:020000040800F2
:10000000005000206521000899210008910A00088D
:10001000970A00089D0A0008A30A000800000000D3
:10002000000000000000000000000000992100080E
:10003000992100080000000099210008992100087A
:1000400099210008992100089921000899210008A8
:100050009921000899210008992100089921000898
:100060009921000899210008992100089921000888
:100070009921000899210008992100089921000878
:10008000992100089921000899210008890A00088F
:100090008D0A000899210008950900089921000897
:1000A0009921000899210008992100089921000848
:1000B0009921000899210008992100089921000838
:1000C0009921000899210008992100089921000828
:1000D0009921000899210008992100089921000818
:1000E00099210008992100089921000800000000CA
:1000F0000000000000000000000000000000000000
:1001000000000000000000005FF808F110B5054C89
:10011000237833B9044B13B10448AFF300800123B3
:10012000237010BD8002002000000000DC7F00086A
:100130000C4B43B10C4810B50C49AFF300800C4890
:10014000036823B910BD0A48036833B97047094BE7
:10015000002BF7D0BDE810401847064B002BF5D018
:10016000184700BF00000000DC7F00088402002068
:100170007C02002000000000154B002B08BF134B31
:100180009D46A3F5803A00218B460F461348144A3A
:10019000121A04F0BDFD0F4B002B00D098470E4BF8
:1001A000002B00D098470020002104000D000D48CE
:1001B000002802D00C4800F08BFF04F0E9FC20007E
:1001C000290001F051FA01F0F5F800BF0000080025
:1001D0000050002000000000591600088002002096
:1001E000300A0020D110000800000000044B1A78EB
:1001F000D2075EBF1A7842F001021A70704700BF42
:10020000C00500200368184708B10B6803607047F9
:1002100070470000F8B50A4E0A4D06F1B0073046A7
:1002200003F08AF858B1EC783846E4B2631CDBB2CC
:10023000EB7003F0BBFE2C44C0B2E071EFE7F8BDF9
:10024000F80500202403002010B50446074BB03009
:1002500003F1200240F8B03C80330260436003F0B9
:100260007DFE204603F04EF9204610BDB078000810
:10027000A0F1B000E8E7A0F1B400E5E710B504464E
:1002800003F0C2FE237E1BB104F030F80023237676
:1002900003F0D0FE204610BD70B504460A4802F0B7
:1002A000E9FF01250646084802F0E4FFA5402CB20C
:1002B000ADB2054214BF26EA04043443A1B2024899
:1002C000BDE8704002F0D0BF50050020F8B50446EC
:1002D0000C2000FB04F31C4DEB5C032B30D8DFE853
:1002E00003F00209101D60432B185B780BB1032348
:1002F0002B54F8BD60432B185B78002BF9D10223F7
:10030000F6E744432F197E782EB9104803F0F2F92E
:100310002E557860F8BD01232B55F8BD60432E188B
:100320007378002BE4D001232B54084803F0E2F942
:100330007368C01AB0602046BDE8F840FFF7ACBF54
:1003400060430123D4E700BFC8050020A0050020BA
:1003500000F00801430748BF41F00401820748BF8D
:1003600041F00201C30756BF21F0010141F0010134
:1003700089B2014802F078BF5005002008B509484D
:1003800002F0EBFF68B1084B08489A79D2B2511CD1
:10039000C9B29971134493F80711BDE8084003F0FE
:1003A000EFBD08BDF805002024030020A8060020AA
:1003B00010B50D490D4A0B78032B0ADC5068013348
:1003C0000468106804420CBF9268D26810600B7019
:1003D00010BD182B90681268D8BF01330260D4BFDB
:1003E000DBB20023F3E700BF4C0500209C02002095
:1003F00038B5124C03F008FE2046142101F084FCAD
:1004000003F018FE0E4B5868B42390FBF3F005F090
:10041000FBFD00220B4B05F0ABFC0B4B002205F063
:1004200059FE06F069F8054603F0EEFD2946204620
:1004300001F06FFCBDE8384003F0FCBDB8020020BD
:10044000C40600200000F83F00408F40552370B5DF
:100450008EB08DF804304E238DF8053045238DF88D
:10046000063052238DF8073000238DF808303A23E8
:10047000404C8DF8093094F80832DBB2A22B51D0F1
:1004800009D8043B012B68D9DD238DF80A300223FB
:100490008DF8083044E0F12B0DD0F22B31D0F02B49
:1004A000F2D18DF80A300D238DF80B3003238DF82F
:1004B0000830082210E030488DF80A3002F0DAFEE9
:1004C0002E4B0922188004238DF80B00C0F307205F
:1004D0008DF80C008DF8083000210846CBB293420D
:1004E00001F101013BDA0EAD2B4413F8346C637952
:1004F0007040DBB25D1CEDB22344657183F8076187
:10050000ECE794F809228DF80A301C4B1A7094F825
:100510000A2218785A7002228DF80820FFF718FF77
:100520000722D9E78DF80A300D238DF80B3003230D
:1005300094F80C228DF80830104B1A7094F80B22A6
:100540005A7094F80A229A7094F80922DA701A689C
:100550000B4B5A60FFF74CFFABE70622BCE7637911
:10056000DBB25A1CD2B262711C4484F807010EB08F
:1005700070BD00BF2403002050050020C4050020EA
:10058000C4060020F8B54C4E4C4D34463279F37811
:100590009A4200F090802B78062B5DD8DFE803F0BC
:1005A00004121E29343F5E002379DBB25A1CD2B2FA
:1005B00022712344DB79552BE8D101232B700023D2
:1005C0006370E3E72379DBB25A1CD2B22271234471
:1005D000DB794E2B3CD102232B70D7E72379DBB29A
:1005E0005A1CD2B222712344DB79452B30D103232C
:1005F000F2E72379DBB25A1CD2B222712344DB79B1
:10060000522B25D10423E7E72379DBB25A1CD2B25F
:1006100023442271DA792A4B1A700523DCE7237907
:10062000DBB25A1CD2B222712344DB793A2B0FD1B0
:1006300006232B70224B93F9003083F03602D2B29E
:1006400062700122DBB284F807321E4B1A709DE7FC
:100650002379013BDBB223710023BDE7184991F9EF
:100660000030012B15DD174890F90020571C07704A
:10067000207922442044C079C0B282F8070222794E
:10068000D2B2501CC0B220712244D279607842406C
:100690006270013B5BB2002B0B703FF777AF00231A
:1006A00062782B7023792344DB799A427FF46EAF12
:1006B000FFF7CCFE6AE7F8BD240300204B050020BD
:1006C000D5020020D4020020C36810B504460BB147
:1006D0009B689847204610BD38B505460446064B32
:1006E00045F8283B02F099FF2846FFF7EDFF20462A
:1006F00003F05AF8204638BDB079000810B504461A
:10070000FFF7EAFF2046402103F0EFFE204610BD30
:100710002DE9F04F00253A4C85B03A4802F0ADFF84
:10072000237810226FF300032370374B2946684665
:10073000364E1D7004F0ECFA354B2A4669463548B2
:100740000093039602F0A4FE6846FFF7BDFF102257
:100750002946684604F0DCFA2F4B4CF250320093E5
:10076000694600232D48039602F03AFF6846FFF7DA
:10077000ABFF01222E462A4BDFF8AC80DFF8AC90AD
:100780001A701A731A7683F824202378DB071CD595
:1007900000254FF0010A2378214F6FF300032370E7
:1007A000042D5FFA85FB10D0404602F095FC39F825
:1007B00015300C3718400CBF07F80B0C07F80BACC2
:1007C0005846FFF783FD0135EAE70E4802F092FF35
:1007D000801B632805DD0B4802F08CFF0646FFF7FF
:1007E000E7FD104D2A79EB789A4201D0FFF7CAFE57
:1007F000AA796B799A42C8D0FFF7C0FDC5E700BF60
:10080000C0050020A00500204C050020387000081D
:1008100015020008F8050020ED010008D0060020B0
:10082000C805002024030020D8020020F400002086
:1008300010B50446FFF708FD2046CC2103F055FE15
:10084000204610BDA0F1B000F2E7A0F1B400EFE740
:1008500070B519234FF0FF343E4E8EB03E4D0C94D0
:100860000B940A94099408940794069405940494AC
:100870000394029401940093172218231621304602
:1008800002F0A2FB2A463549304600F01FFC1F2328
:10089000334E0C940B940A9409940894079406948C
:1008A0000594049403940294019400931D221E2342
:1008B0001C21304602F032FC30460026294C2A46E4
:1008C000294900F003FC1C220021204604F020FAF4
:1008D0002046264C2D2102F0AAFF4FF4E1330A22D4
:1008E0000921204602F0DEFC2046214C2A462149FF
:1008F00000F0ECFB267603F087FB20461A2101F07E
:1009000089F903F097FB20461B4C2A461B4900F04F
:10091000DDFB204602F008FF2046194C2A46194903
:1009200000F0D4FB204602F017FF2046164B31465C
:1009300040F8283B102204F0EBF901232A46134922
:10094000204684F8383000F0C1FB114B1E700EB009
:1009500070BD00BFD8020020F00000208D2F0008DD
:10096000500500209C020020E1300008F80500201E
:10097000B802002049020008A00500207D020008FE
:10098000D00600205B360008B0790008D9060008C0
:10099000C4060020364B70B55A69D2072AD598682C
:1009A000344E99683040B04208BF0126324D9A68F3
:1009B00001EA050108BF9E60A94208BF4FF4807597
:1009C0002E4C2B4B02EA040208BF9D60A24204BFDA
:1009D0004FF480349C60274B984205D0264B9942B7
:1009E00002D0264B9A4205D1254B264A1B6801218D
:1009F000106898471E4CE2686369960707D09D0708
:100A000005D51F4B1F4A1B68002110689847A16934
:100A1000626963698C0709D5900507D5190405D566
:100A2000174B184A1B68052110689847104A9569AA
:100A3000546915F0040504F48064526908D03CB18F
:100A4000120405D50E4B0F4A1B6807211068984702
:100A5000074B5B6955B14CB11B0407D5BDE870402D
:100A6000074B084A1B6802211068184770BD00BF79
:100A700000640040010000040001000800000110B3
:100A80001407002010070020FFF784BFFFF782BF84
:100A9000102300F009B8202300F006B8302300F03E
:100AA00003B8402300F000B8EFF308800421724639
:100AB0000A4201D0EFF309809C46244B1968026872
:100AC0000A60043142680A60043182680A600431B5
:100AD000C2680A600431F0C147460F6004314F46D6
:100AE0000F60043157460F6004315F460F600431D8
:100AF00002690A60083142690A60043182690A6049
:100B00000431C2690A600431034620334FF4007691
:100B1000324200D0043375461026354200D14833A6
:100B20000C46103C2360EFF309820A600431EFF3B6
:100B300008820A60043172460A600431EFF31482BD
:100B40000A606046014900F0BDF9FEE780720008C6
:100B500030B50D0E91FAA1F4B4FA84F491FAA1F132
:100B60000F23B1FA81F1A40003FA04F44359890078
:100B700023EA040302FA01F11943415130BD000098
:100B80007FB5224B04283DD8DFE800F003101B2678
:100B900031009A691E4842F004029A619B6903F091
:100BA00004030193019B07B05DF804FB9A6919489F
:100BB00042F008029A619B6903F008030293029BCA
:100BC000F1E79A69144842F010029A619B6903F0B8
:100BD00010030393039BE6E79A69104842F0200252
:100BE0009A619B6903F020030493049BDBE79A69F5
:100BF0000B4842F040029A619B6903F04003059361
:100C0000059BD0E7074803F017FB00BF0010024028
:100C100000080140000C0140001001400014014098
:100C200000180140F4710008431C10B5044604D1BB
:100C300076220649064803F0CBF9002100F092FD28
:100C4000012004F00F04A04010BD00BF1572000881
:100C50006772000870B504464B1C0E46218218D0FE
:100C6000C1F30310FFF78CFF05463046FFF7DCFFAA
:100C7000238A084A03F00F0352F823306561A36109
:100C800005F10803636005F1100314352060A360CB
:100C9000E56070BDE4750008B0F9100000F062BEB8
:100CA00021B9082281694069FFF752BF0122F9E7A3
:100CB00008B502F0C1F8002008BD0000104B10B5C7
:100CC0001B68104C63B103F059F803F042F8236835
:100CD0001844002323604FF47A73B0FBF3F010BD87
:100CE00002F010F923682060C31A4FF47A70064AA4
:100CF0009BB211680B441360B3FBF0F010BD00BF52
:100D0000200700201C0700201807002000B589B02C
:100D100003F07AF9052101A802F089FD104E114D6A
:100D20000424019A039B30461A6003F0FDFA019AED
:100D3000049B30461A6003F0F7FA013CF1D1042419
:100D4000019A039B28461A6003F0EEFA019A049B6D
:100D500028461A6003F0E8FA013CF1D1E0E700BF51
:100D6000F0490200801A060010B5044603F04CF961
:100D7000204604F0C2FC21460246022000F046FA5A
:100D8000BDE8104003F056B910B5A2B00B460246BC
:100D9000842101A804F0F8FC8328044605D9052223
:100DA00005490DF1830003F0A8FF002C02DD01A826
:100DB000FFF7DAFF22B010BD7A7200080FB407B552
:100DC00004A951F8040B0191FFF7DEFF03B05DF8B1
:100DD00004EB04B070470000F0B52C4C002526460B
:100DE0002B4F85B054F82520294638460135FFF7AA
:100DF000E5FF0D2DF6D1A36C04F134010293636C71
:100E000024480193236C244C00930EC9FFF7D6FFAE
:100E100021682248FFF7D2FFE16AA26AA36AA06AAA
:100E2000256BE76B000C01950090C3F30723029735
:100E3000D2B21B48FFF7C2FFA36A1D0603D5616B40
:100E40001848FFF7BBFFA36A180403D5A16B164827
:100E5000FFF7B4FFF36C190712D51448FFF7AEFF84
:100E6000336DDA070FD51248FFF7A8FFF36C5B0765
:100E70004CBF1048104805B0BDE8F040FFF79EBFDA
:100E80000E48FFF79BFF0E48EEE700BF7C080020EE
:100E9000147300082273000800ED00E0717300086D
:100EA0007F730008CE730008DC730008EA73000843
:100EB000F9730008297400083574000819740008D3
:100EC0000674000813B504461548FFF777FF302C69
:100ED00017D0402C1AD0202C1DD11248FFF76EFFDE
:100EE000114C1248FFF76AFFFFF776FF1048FFF733
:100EF00065FF00230F4A0093D26B0F49204603F091
:100F0000BBF90E48FFF75AFF0D4CEAE70D48FFF713
:100F100055FF0D4CE5E70D48FFF750FF0C4CE0E79F
:100F200084720008AD7200083E01FF80DA7200088A
:100F3000E57200087C08002004730008BC720008F9
:100F40003F01FF80C57200084001FF80D072000899
:100F50003D01FF8008B501F029FF01F01FF901F004
:100F600017FF01F023FF0122014B1A6008BD00BFEB
:100F70002007002000207047036801221B69002120
:100F800018470022036811461B69184703681B694C
:100F9000184703689B69184703689B6A184700292C
:100FA0000CBF6FF01800002070470120704711201F
:100FB000704770476FF01C0070476FF01500704766
:100FC000012070470020704770470000F8B51546B3
:100FD0000C46064E8F18BC4205D014F8011B304653
:100FE00001F0AAF8F7E72846F8BD00BFD0080020B6
:100FF00038B58DB215F0010405D0084800F0B0FEF8
:10100000041C18BF0124EB0605D5044800F0BEFE01
:1010100008B144F01004204638BD00BFD0080020BD
:1010200010B5044603F044FE204610BD10B50C4632
:101030002AB1044801F06AF82070012010BD104662
:1010400010BD00BFD008002038B51D46074B044630
:101050000360074B1B6833B9064800F0F1FE2946D0
:10106000044800F0C7FE204638BD00BFB474000835
:1010700084070020D008002000207047002070471F
:1010800008B5012000F096F90C4A10B51368184411
:10109000EFF30881884205D30C22094B4FF0FF3053
:1010A0001A6010BD07490C6824B10749096821443A
:1010B0008842F1D21060184610BD00BFFC0100202C
:1010C000280A00203C07002040070020012070472C
:1010D00001207047002104F00DBA7047704708B531
:1010E000FFF7FBFF08BD08B5FFF7F8FF08BD0000DC
:1010F00008B5037803F00302012A0BD02AB140F2AD
:101100008C520549054802F063FF43F00203037067
:10111000012008BD002008BD197500086875000889
:1011200008B5037803F00302022A05D040F2945276
:101130000449054802F04CFF23F0030343F0010388
:10114000037008BD197500088E7500083F2870B53A
:1011500004462FDC184D55F820305A1C13D10228B4
:1011600011DCFFF78BFF034658B92046FFF784FFD9
:10117000034630B9114E3378BFF35B8FDB0704D5DC
:101180000F4B45F82430184670BD3046FFF7B0FFCE
:101190000028F5D04FF41653032202210848FFF728
:1011A00053FF3046FFF7BCFF064A07490448FFF7E4
:1011B0008DFFE5E70023E6E7FC0000202407002080
:1011C00038070020F0000020C90F000838B5054698
:1011D0000024FFF7BBFF0B4B43F8254030B903F069
:1011E00087F9092303604FF0FF3038BD03685B695E
:1011F0009847051E04DA03F07BF96D420560F2E7BB
:10120000204638BDFC000020FFF7E0BF38B50C4693
:101210001546FFF79BFF38B903F06AF9092303600D
:101220004FF0FF34204638BD03682146DB682A466C
:101230009847041EF6DA03F05BF964420460EFE7B6
:1012400008B5131E06DA03F053F9162303604FF0B6
:10125000FF3008BD04D0FFF7D9FF40EAE07008BDB9
:10126000184608BD38B50C461546FFF76FFF38B96C
:1012700003F03EF9092303604FF0FF34204638BDE8
:10128000036821469B682A469847041EF6DA03F055
:101290002FF964420460EFE7002A08B503DBBDE8DC
:1012A0000840FFF7DFBF03F023F9162303604FF078
:1012B000FF3008BD10B5FFF749FF044628B903F019
:1012C00017F909230360204610BD0368DB699847BE
:1012D000041EF8DA03F00CF9644204600024F2E71B
:1012E0001FB504220C4640230DEB020101900DF1C5
:1012F00009008DF8083003F000FD214602A803F034
:101300003DFB044630B10198FFF7D4FF10B12046F1
:10131000FFF7E0FE204604B010BDFFF7CBBF38B5A5
:101320000C461546FFF712FF38B903F0E1F8092320
:1013300003604FF0FF34204638BD036821461B6927
:101340002A469847041EF6DA03F0D2F86442046095
:10135000EFE7FFF7E4BF10B5FFF7F8FE30B903F091
:10136000C7F8092303604FF0FF3010BD03689B6985
:101370009847041E04DA03F0BBF864420460F2E705
:10138000002010BD05460A4C08B52368986803F094
:10139000C1F92368D86803F0BDF90120FFF7DBFF2E
:1013A0000220FFF7D8FF0DB1FFF7B0FCFEE700BF4A
:1013B0000802002008B5FFF7E5FF38B50D46FFF736
:1013C000C5FE044630B903F093F8092303604FF0DB
:1013D000FF3038BD0368DB699847002814BF4FF41D
:1013E00000534FF400436B60236820469B6A984784
:1013F0002861002038BDFFF7E0BF000013B50446A8
:1014000003F04EFC034628B90090224602490348E7
:1014100002F032FF02B010BDFC7400081F01018011
:1014200003F046BC08B5034653F8082B02B9036025
:1014300002689A4204D068220249034802F0C8FDBB
:10144000184608BD417400089874000810B5044699
:101450000948FFF7E7FF00231946084A52F823001E
:10146000A04208BF42F823100133402BF6D10248B6
:10147000FFF7D8FF10BD00BF28070020FC000020A8
:1014800010B503240E48FFF7CDFF0E4B53F8242070
:101490006AB10134402CF9D103F02AF81823036013
:1014A0000748FFF7BFFF4FF0FF34204610BD4FF055
:1014B000FF32034843F82420FFF7B4FFF5E700BFED
:1014C00028070020FC00002010B50446FFF7D8FFD5
:1014D0000028A4BF014B43F8204010BDFC000020B1
:1014E00070B506460C46FFF7EFFF054690B1214662
:1014F000FFF7F6FE044630B9074B53F82520964215
:1015000003D143F82500204670BD02F0F1FF092306
:101510000360F8E70446F6E7FC0000200EB42DE96E
:10152000F04185B00546FFF7ABFF041E13DB002337
:10153000294602A8019302F037FC02A802F084FCBD
:101540001B4D064668B902F0D3FF1323036045F82C
:1015500024604FF0FF34204605B0BDE8F04103B0F1
:10156000704702A802F05EFC074602A837B102F0FD
:1015700062FC0190019B45F82430ECE702F049FC45
:1015800006460028DFD0036802A8D3F8088002F0DE
:1015900035FC0B9B024601A93046C0470646002891
:1015A000E8D002F0A5FF7642066045F82470D0E747
:1015B000FC00002073B50E461849054604F093F868
:1015C000044620B9FFF7C2FD204602B070BD1449A1
:1015D000284604F088F820B90120FFF7B7FD012460
:1015E000F2E71049284604F07EF820B90220FFF700
:1015F000ADFD0224E8E72B78402B07D10422691CBB
:101600000DEB020003F079FB019CDDE726F40041BD
:101610002846FFF783FF0446D6E700BFD5750008CC
:10162000DC750008CD75000870477047074B10B592
:101630009A6807490748043A52F8044F41F8044FA2
:101640008142F9D14FF000529A6010BD00ED00E0E8
:10165000FCFFFF1FE800002008B5FFF7E7FFFFF7DA
:1016600079FCFFF7E2FF08BD08B5FFF7DDFFBDE835
:101670000840FFF74DB830B50D0E91FAA1F4B4FA59
:1016800084F491FAA1F10F23B1FA81F1A40003FAD5
:1016900004F44359890023EA040302FA01F11943CF
:1016A000415130BD30B50D0E91FAA1F4B4FA84F475
:1016B00091FAA1F10423B1FA81F1A40003FA04F430
:1016C0004359890023EA040302FA01F11943415105
:1016D00030BD10B591FAA1F2B2FA82F291FAA1F3FB
:1016E00094000F22B3FA83F3090E4058A240104031
:1016F0009B00D84010BD70B5164605460C46FFF756
:10170000E8FF012E0AD0022E1CD0082829D121463C
:101710002846BDE870400422FFF7ADBF042804D17D
:10172000082221462846FFF7A6FFEB68240A94FA10
:10173000A4F223EA0404B2FA82F2012393401C4388
:10174000EC6070BD042804D1082221462846FFF72A
:1017500092FFEB68240A23EA040394FAA4F4EB60F2
:1017600070BD70BDB0F1FF3F2DE9F3478246894659
:1017700004D13E227549764802F02AFC1FFA80F80F
:10178000744B08F00F02C0F3031001F0070553F883
:101790002240FFF7F5F9012D06466F4F40F0C78054
:1017A000210E94FAA4F3B3FA83F394FAA4F04FF061
:1017B000030EB0FA80F072589B000EFA03F322EA8F
:1017C00003032A4680000EFA00FE43EA0E0373501C
:1017D00021463046013DFFF74EFF012D07D819F095
:1017E000080218BF042221463046FFF75BFFC9F309
:1017F000011221463046FFF77EFFBB6943F001032B
:10180000BB61BB6903F001030193019BA8F10D03C8
:10181000012B79D8514A536823F0E06343F0806389
:101820005360A8F11308B8F1010F77D86FE0BB69D6
:10183000C9F3032243F00103BB61BB6903F0010359
:101840000093009B82B1531E092B0DD8DFE803F0F3
:10185000050E151C232C353E454D404A536843F078
:10186000E06343F0010353600922B1E73B4A536848
:1018700043F0E06343F00203F5E7384A536843F06E
:10188000E06343F00403EEE7344A536843F0E06357
:1018900043F00803E7E7314A536823F0300343F08D
:1018A000E06343F01003DEE72C4A536823F0C003E3
:1018B00043F0E06343F04003D5E7284A536823F43C
:1018C000406343F0E06343F40063CCE7234A53688A
:1018D00043F0E06343F44073C5E720494B6843F0AD
:1018E000E06343F440634B6072E71C4A536823F49F
:1018F000C04343F0E06343F48043B4E767221349F5
:10190000174839E7002263E7BAF10F0F89D1134A6C
:10191000536823F0E06343F00073536002B0BDE806
:10192000F087012221463046FFF7A5FE57E7032D39
:10193000E4D801A353F825F0491900082319000839
:101940002F18000805190008082241E7247600082E
:1019500067720008E47500080010024000000140B2
:101960001B7B0008431C70B50E4604D188221A491F
:101970001A4802F02DFB1A4B00F00F02C0F30310BF
:1019800053F82240FFF7FCF821460546FFF7A1FE79
:1019900020F00800012807D1F31E022B0DD80422E5
:1019A00021462846FFF77EFE032E0BD10122214659
:1019B0002846BDE87040FFF79EBE0022214628461B
:1019C000FFF770FE012EF1D0052E01D0022E01D1BD
:1019D0000222ECE70022EAE724760008677200089A
:1019E000E475000830B50C460268284B89B00546FE
:1019F0001A600021204605F073F850BB4FF07E516D
:101A0000204605F08BF808B14FF07E54E86804F0EA
:101A100071FE214604F0C6FE04F008FB1C4B0022B8
:101A200004F0A6F904F090FD60230193AB682861EF
:101A3000B0FBF3F0002303930593069304930793FD
:101A40002B7D0290013B032B1BD8DFE803F012042F
:101A50000E100024DAE70424224601A90B4800F006
:101A600087FF40B10B4802F0E7FB0824F4E70C24A1
:101A7000F2E70024F0E76B7D214604481BB101F03A
:101A800033F809B030BD01F00BF8FAE74407002045
:101A90000000E03F0E77000838B5C46894B10069D3
:101AA00004F028FE0546204604F024FE01462846A0
:101AB00004F02CFF4FF07E51044605F02FF818B9C2
:101AC000204638BD0024FBE74FF07E54F8E70000C5
:101AD00000232DE9F04FD0F80080494C87B00093E7
:101AE00005460E46C4F80080FFF7D6FF41F21113F9
:101AF000D8F8202083461A420BD140F24443D8F84C
:101B000020201A4202BFD8F8003023F00103C8F8A1
:101B1000003001A8694600F0F1FD00222868394B29
:101B2000D1B253F8317001328742F9D110B9364839
:101B300002F082FB03EBC1031B79002B3ED100F0C6
:101B4000BDFD0090049801230099AB602F4B002845
:101B500039D1B1FBF3F3013B63602C4B4FEA4108F1
:101B6000B1FBF3FE002106F1FF3CB8FBF3F88A4617
:101B700063464FF6FE796268C4F80CC0B3F5803F47
:101B800025D2B2F5803F22D2BAF1000F00D06260B8
:101B900001B1E36000231A482361A36000F0A2FEB4
:101BA00030BBEE6059462846FFF71CFF22681368D9
:101BB00043F00103136007B0BDE8F08F00F08EFD25
:101BC00000900598BFE74A00B2FBF3F3C3E7AB68A8
:101BD0005B00AB6070B90EFB03F2BCFBF3F34B454B
:101BE00002F1FF3209D8B2F5803F06D36260E360AC
:101BF00007489DE708FB03F2EFE701218A46BDE7AE
:101C00004407002028770008F976000840420F00BA
:101C10000E77000830B50D46044685B03249284697
:101C200001F050FE2060013004D12E222F493048AF
:101C300002F0CEF92C49284601F066FE431C03D180
:101C400032222A492B48F3E7C0F3043323752A4A8A
:101C50002368C0F34040934260751AD1274B9A69BC
:101C600042F400629A619B6903F400630093009B55
:101C700028461D4901F0DEFD0023E36023610123B6
:101C8000A580A36044F620612046FFF721FF05B040
:101C900030BDB3F1804F0BD103F50433DA6942F064
:101CA0000102DA61DB6903F001030193019BDFE7C5
:101CB000134A93420AD1114BDA6942F00202DA6107
:101CC000DB6903F002030293029BD1E70D4A9342C2
:101CD000CED10A4BDA6942F00402DA61DB6903F023
:101CE00004030393039BC3E7447000087476000861
:101CF000C8760008E0760008002C01400010024081
:101D000000040040000800404FF47A735943FFF785
:101D1000DFBE38B50446084604F0F0FC0546E0682E
:101D200004F0E8FC0146284604F0F0FD0146204698
:101D3000BDE83840FFF756BE0FB407B5064B05AAFD
:101D40001B680649D868019203F028F903B05DF8D2
:101D500004EB04B0704700BF080200205077000871
:101D60004368094A9B01D35882B01A68120706D506
:101D7000002201921A6801925A680192019A186829
:101D8000C0F3401002B070471C0900204368034AAA
:101D90009B01D3581868C0F3C01070471C0900207D
:101DA000426810B412490468920154505318826872
:101DB0005A60C2689A600269DA6042691A61026A0E
:101DC0009A610022DA84DA619A84DA859A85B0F918
:101DD0001A20013205D108225A61184610BC00F0C1
:101DE00034BFB0F9182001320CBF04220C22F3E7F3
:101DF0001C09002010B581600C46FFF7D1FF28B107
:101E00002146BDE810400248FFF796BF10BD00BF55
:101E100050770008094B98420BD0A3F574439842C1
:101E200009D003F5806398420CBF02204FF0FF30C9
:101E30007047002070470120704700BF0038014004
:101E4000F0B50E4685B0044643493046154601F0CC
:101E500039FD42490746284601F034FD014638461F
:101E600001F00CFD2060013004D13D223C493D4889
:101E700002F0AEF8022E0AD0032D08D03649022017
:101E800001F020FD87421BD1374802F0D5F9012728
:101E90002068364B984215D103F558439A6942F4AD
:101EA00080429A619B6903F480430193019BFFF791
:101EB000B1FF0028606023DAA42229492C48D7E723
:101EC0000027E5E72B4B98420BD103F5E633DA699F
:101ED00042F40032DA61DB6903F400330293029BBF
:101EE000E5E7254B9842E2D103F5E433DA6942F4A1
:101EF0008022DA61DB6903F480230393039BD6E736
:101F00001549304601F096FC1449284601F092FC30
:101F1000721C03D001213046FFF724FD6B1C03D057
:101F200001212846FFF71EFD4FF41653A36000233E
:101F30002683E36023616361236265832046FFF7A4
:101F40002FFF3FB101220D4B21461A600C484C2255
:101F500002F0D3FE05B0F0BDAC710008647100085A
:101F60007A770008CE770008EA7700080038014049
:101F70001F7800080044004000480040840700200B
:101F8000D0080020002808DB0123420900F01F00D0
:101F900003FA00F0014B43F82200704700E100E033
:101FA00000280DDB0122430900F01F0002FA00F0B7
:101FB000044A203342F82300BFF34F8FBFF36F8FE3
:101FC000704700BF00E100E0F7B5FFF723FF071EF1
:101FD00026DB144E56F8270010B3134CBD0163598D
:101FE0001A68120606D5DB68190603D50F4B0121C6
:101FF0001B68984763591A68920608D5DB689806EB
:1020000005D50A4B00211B6856F8270098476359ED
:102010001A68110704D55A69D20744BF5B68019357
:1020200003B0F0BD8C0700201C09002088070020A9
:102030000148FFF7C9BF00BF004800400148FFF753
:10204000C3BF00BF004400400148FFF7BDBF00BF51
:1020500000380140034B19604168034B43F82120CD
:10206000704700BF880700208C07002030B409C8E3
:102070001E4CA04213D125201D4C1E4D9B01FAB1D0
:10208000EA58D368C9B943F02003D3601A4B00F172
:1020900010029B6843F8224030BCFFF773BF174C17
:1020A000A04202D1164C2620E7E7164CA04213BFEF
:1020B0000024154C27202046DFE743F08003E4E7A7
:1020C000EB58DA6849B922F02002DA60DB6813F0D5
:1020D000800F09D130BCFFF763BF22F08002DA60C5
:1020E000DB6813F0200FF4E730BC70470038014084
:1020F000492000081C09002000ED00E000440040D9
:102100003D200008004800403120000838B5054651
:1021100044682846FFF724FE0028FAD0054AA301A8
:10212000D358E968586809B9C0B238BDC0F308008F
:1021300038BD00BF1C09002070B506460C46456836
:102140003046FFF723FE0028FAD0054AF168AB01BC
:10215000D35811B9E4B25C6070BDC4F30804FAE767
:102160001C09002008488546002103E0074B5B5806
:10217000435004310648074B42189A42F6D300F008
:10218000A7FDFDF7F9FFFEE700500020E87F0008FB
:10219000F000002080020020FEE77047074A08B5E3
:1021A0001368032043F01003136000F009F80F20B8
:1021B000FEF77EFDFFF7F1FF002008BD0020024082
:1021C000074A0002D36800F4E06023F4E0631B04D4
:1021D0001B0C43F0BF6343F400330343D3607047E9
:1021E00000ED00E003682DE9F341DB07054610D45C
:1021F0002B689F075ED42B68190700F195802B6828
:102200005A0700F1BF80EA69002A40F02D810020C2
:1022100014E0904C636803F00C03042B07D0636850
:1022200003F00C03082B0CD16368DE0309D5236887
:102230009C03DDD56B68002BDAD1012002B0BDE82C
:10224000F0816B68B3F5803F10D1236843F480338D
:102250002360FEF733FD064623689803C8D4FEF7D3
:102260002DFD801B6428F7D90320E7E79BB923687D
:1022700023F480332360236823F480232360FEF754
:102280001DFD064623689903B2D5FEF717FD801B96
:102290006428F7D9E8E7B3F5A02F236803D143F406
:1022A00080232360D1E723F480332360236823F461
:1022B0008023CDE7674C636813F00C0F07D0636889
:1022C00003F00C03082B10D16368DA030DD42368E4
:1022D0009B0702D52B69012BAFD123686A6923F0D4
:1022E000F80343EAC203236085E72A695A4B6AB1BF
:1022F00001221A60FEF7E2FC064623689F07ECD431
:10230000FEF7DCFC801B0228F7D9ADE71A60FEF768
:10231000D5FC0646236898077FF56DAFFEF7CEFC27
:10232000801B0228F6D99FE7AA694A4C4B4BDAB1C9
:1023300001221A60FEF7C2FC0646636A9B070DD5B0
:102340004FF4FA52464B1B68B3FBF2F3019300BF04
:10235000019B5A1E0192002BF9D150E7FEF7AEFC0B
:10236000801B0228E9D97FE71A60FEF7A7FC064622
:10237000636A9F077FF543AFFEF7A0FC801B02282E
:10238000F6D971E7334CE369D80024D40127E36917
:1023900043F08053E361E36903F080530093009BB3
:1023A000304E3368D90518D5EB68012B26D1236A46
:1023B00043F001032362FEF781FC41F28836804638
:1023C000236A9B073FD5002F3FF41DAFE36923F03D
:1023D0008053E36117E70027E2E7336843F4807333
:1023E0003360FEF76BFC80463368DA05DCD4FEF719
:1023F00065FCA0EB08006428F6D935E7ABB9236A81
:1024000041F2883823F001032362236A23F0040396
:102410002362FEF753FC0646236A9807D3D5FEF7DE
:102420004DFC801B4045F7D91EE7052B236A03D1DD
:1024300043F004032362BAE723F001032362236A13
:1024400023F00403B6E7FEF739FCA0EB0800B04226
:10245000B6D909E70010024000004242800442421F
:102460000002002000700040224C636803F00C035F
:10247000082B3FF4E2AE00231F4E022A33602BD11B
:10248000FEF71CFC0746236899011FD42B6AB3F59D
:10249000803F05D16268A96822F400320A43626075
:1024A000696A62680B4322F4741213436360012368
:1024B0003360FEF703FC054623689A013FF5A7AE9B
:1024C000FEF7FCFB401B0228F6D9CDE6FEF7F6FB33
:1024D000C01B0228D7D9C7E6FEF7F0FB05462368E4
:1024E0009B017FF594AEFEF7E9FB401B0228F6D96D
:1024F000BAE600BF001002406000424230B5194BFE
:1025000087B002AC03F110052246186859680833F9
:1025100003C2AB421446F7D101238DF804300223E5
:1025200011498DF805304B6803F00C02082A17D1C9
:10253000C3F3834206A80244DB0312F8102C0CD527
:102540004B680A48C3F34043504306AA134413F8A8
:10255000143CB0FBF3F007B030BD05485043FAE738
:102560000248F8E7317800080010024000127A00B3
:1025700000093D004D4A2DE9F0411368054603F07E
:1025800007038B420E4628D32A68910732D4D2071C
:1025900038D4464A136803F007039E4273D32A686F
:1025A000434C12F0040F79D1130706D563682A69EA
:1025B00023F4605343EAC2036360FFF79FFF63683D
:1025C0003C4AC3F30313D35CD8403B4B18600F2045
:1025D000FEF76EFB0020BDE8F081136823F00703CF
:1025E0000B431360136803F007039942CCD001201A
:1025F000BDE8F0812E49A8684B6823F0F00303433F
:102600004B60C4E76A682A4C012A23681CD113F482
:10261000003FECD0636841F2883823F00303134392
:102620006360FEF74BFB6B680746012B14D16368B0
:1026300003F00C03042BACD0FEF740FBC01B40455D
:10264000F5D90320BDE8F081022A02D113F0007F02
:10265000DFE713F0020FDCE7022B0FD1636803F012
:102660000C03082B95D0FEF729FBC01B4045F5D97C
:10267000E7E7FEF723FBC01B4045E2D8636813F091
:102680000C0FF6D185E7136823F00703334313607B
:10269000136803F007039E42A9D180E76368E968E5
:1026A00023F4E0630B4363607EE700BF0020024039
:1026B000001002405578000800020020044B054A33
:1026C0005B68C3F30223D35C034A1068D8407047A9
:1026D000001002406578000800020020044B054A03
:1026E0005B68C3F3C223D35C034A1068D8407047C9
:1026F0000010024065780008000200200F230360EC
:102700000B4B5A6802F0030242605A6802F0F00272
:1027100082605A6802F4E062C2605B68DB0803F41E
:10272000E0630361034B1B6803F007030B60704712
:102730000010024000200240036A70B523F001033C
:102740000362036A446882690D6822F073022A43B7
:102750008D6823F002032B430A4DA8420BD1CD68AC
:1027600023F008032B438E694D6924F440743543EC
:1027700023F004032C43446082614A68426303628D
:1027800070BD00BF002C0140036A70B523F4807354
:102790000362036A4468C2690D6822F073022A4327
:1027A0008D6823F4007343EA05230B4DA8420DD135
:1027B000CD6823F4006343EA05238E694D6924F450
:1027C0004054354323F4806344EA05144460C261F5
:1027D0004A68C263036270BD002C0140036A30B5D1
:1027E00023F480530362036A4468C2690D6822F4CB
:1027F000E64242EA05228D6823F4005343EA05339A
:10280000064DA84202BF4D6924F4804444EA851471
:102810004460C2614A680264036230BD002C01401A
:1028200070470223026880F83D30136843F00103CB
:102830001360012380F83D3000207047704700008E
:102840001A4A036890420AD0B0F1804F07D0A2F52F
:102850009432904203D002F58062904215D14A68CA
:1028600023F070031343114A90420AD0B0F1804F15
:1028700007D0A2F59432904203D002F580629042D4
:1028800003D1CA6823F4407313434A6923F08003D9
:10289000134303608B68C3620B688362034B9842E7
:1028A00004BF0B690363012343617047002C01409F
:1028B00010B50446A0B190F83D3003F0FF021BB9FB
:1028C00080F83C20FFF7ACFF0223206884F83D30FD
:1028D000211DFFF7B5FF0123002084F83D3010BD16
:1028E000012010BD10B50446A0B190F83D3003F0B2
:1028F000FF021BB980F83C20FFF7A0FF02232068ED
:1029000084F83D30211DFFF79BFF0123002084F850
:102910003D3010BD012010BD036A70B523F01003D7
:102920000362036A446882690D6822F4E64242EA5F
:1029300005228D6823F0200343EA05130B4DA842BE
:102940000DD1CD6823F0800343EA05138E694D69EC
:1029500024F44064354323F0400344EA8504446092
:1029600082614A688263036270BD00BF002C01402F
:1029700038B590F83C300446012B4FF0020025D0CA
:10298000012384F83D0084F83C300C2A18D8DFE895
:1029900002F0071717171E1717172F1717174000E2
:1029A0002068FFF7C9FE236809699A6942F00802A6
:1029B0009A619A6922F004029A619A690A439A61BB
:1029C0000123002084F83D3084F83C0038BD2068A5
:1029D000FFF7A2FF236809699A6942F400629A61CD
:1029E0009A6922F480629A619A6942EA0122E6E7D2
:1029F0002068FFF7C9FE23680969DA6942F0080216
:102A0000DA61DA6922F00402DA61DA690A43DA612A
:102A1000D6E72068FFF7E2FE23680969DA6942F425
:102A20000062DA61DA6922F48062DA61DA6942EA24
:102A30000122ECE710B50124036A8C4023EA040369
:102A40000362036A8A401A43026210BD10B504464D
:102A500000220068FFF7EEFF2368104A93420DD171
:102A600041F21112196A114208D140F24442196A26
:102A7000114202BF5A6C22F400425A6441F2111210
:102A8000196A114208D140F24442196A114202BF48
:102A90001A6822F001021A60002010BD002C0140CB
:102AA00010B5044601220068FFF7C4FF2368064AF8
:102AB0000020934202BF5A6C42F400425A641A68E2
:102AC00042F001021A6010BD002C0140FFF7E8BF80
:102AD00010B50424036A8C4023EA04030362036AEA
:102AE0008A401A43026210BD10B5044604220068F1
:102AF000FFF7EEFF236800205A6C42F400425A644C
:102B00001A6842F001021A6010BD00002DE9F0477A
:102B10000568C2682B69016923F4405313432B6194
:102B20008368EA680B43416922F4B05222F00C0238
:102B30000B431343EB606B69826923F440731343C7
:102B40006B61404B81469D424FF0190446D1FFF71F
:102B5000C5FD04FB00F3D9F804604FF06408B6002B
:102B6000B3FBF6F3B3FBF8F31E01FFF7B7FD6043C9
:102B7000D9F804309B00B0FBF3F7FFF7AFFD6043DB
:102B8000D9F804309B00B0FBF3F3B3FBF8F308FB78
:102B900013731B013233B3FBF8F303F0F007FFF7B5
:102BA0009DFD6043D9F804209200B0FBF2FAFFF7D4
:102BB00095FD6043D9F804309B00B0FBF3F3B3FB01
:102BC000F8F308FB13A31B013233B3FBF8F303F054
:102BD0000F033B433344AB60BDE8F087FFF76EFD66
:102BE00004FB00F3D9F804604FF06408B600B3FBAF
:102BF000F6F3B3FBF8F31E01FFF760FD6043D9F86D
:102C000004309B00B0FBF3F7FFF758FD6043D9F8A1
:102C100004309B00B0FBF3F3B3FBF8F308FB137332
:102C20001B013233B3FBF8F303F0F007FFF746FD67
:102C30006043D9F804209200B0FBF2FAFFF73EFDA2
:102C4000B7E700BF00380140704710B5044640B3F5
:102C500090F8393003F0FF021BB980F83820FFF7F5
:102C6000F3FF2423226884F83930D368204623F404
:102C70000053D360FFF74AFF236800201A6922F44B
:102C800090421A615A6922F02A025A61DA6842F4C3
:102C90000052DA602023E06384F8393084F83A3057
:102CA00010BD012010BD7FB50F23022101934FF409
:102CB0008062002301A80291039304920593FFF719
:102CC00059FCB0FA80F0400907B05DF804FB000041
:102CD0000F4B1A6842F001021A6059680D4A0A4007
:102CE0005A601A6822F0847222F480321A601A68DC
:102CF00022F480221A605A6822F4FE025A604FF4CD
:102D00001F029A604FF00062034B9A60704700BF49
:102D1000001002400000FFF800ED00E0012310B5B4
:102D20008AB00093A0B94FF4803301930223079334
:102D30004FF48033002408934FF4E0136846029464
:102D40000993FFF74FFA30B9FFF7ADFF0AB010BD96
:102D50004FF4A023E9E72046F8E7032310B58AB033
:102D60000093012304931023059302230024079367
:102D70004FF460136846019408940993FFF732FA00
:102D800018B9FFF790FF0AB010BD2046FBE700001E
:102D900008B50120FFF7C2FF28B9FFF7DEFF10B921
:102DA000014801F049FA08BD41780008114A124B68
:102DB000516801F00C01042901D008290AD00F49FB
:102DC000196052680E49C2F30312895C1A68CA403E
:102DD0001A60704751685068C1F38341C00301F124
:102DE000020102D407484143EAE750688003F9D45E
:102DF0000248F8E7001002400002002000127A00AA
:102E00005578000800093D00074B084A13601A690D
:102E1000910707D5DA68920704D56FF002021A61AC
:102E200000F0B0BF704700BF00080040E00900207C
:102E30000048704770780008224B37B5DA69224C99
:102E400042F00402DA61DA69002502F0040201921C
:102E5000019A1A6942F004021A611A6922F0040206
:102E60001A61FFF7A3FF194B194A23604FF6FF734E
:102E7000E360184B20461B682561B3FBF2F3013B6E
:102E80006360A5606561A561FFF712FD29462046D4
:102E9000FFF71CFE104B114A9B682046C3F8B82070
:102EA0004FF080420E4B1A60FFF7BBFC2268D368DC
:102EB00023F00203D3600B4B1D600B4B1D6003B06E
:102EC00030BD00BF00100240E009002000080040B3
:102ED00040420F000002002000ED00E0092E000833
:102EE00000E100E01C070020180700200448002132
:102EF0000268D36823F00203D360FFF7E7BD00BF89
:102F0000E0090020014B586A704700BF00080040EC
:102F10006FF00202044B1B6858631A61DA6842F0D2
:102F20000202DA60704700BFE00900206FF0020281
:102F3000054B1B681A615A6942F002025A61DA684D
:102F400042F00202DA607047E0090020034B1A6881
:102F5000D36823F00203D360704700BFE00900206C
:102F60006FF00202014B1B681A617047E0090020F4
:102F700008B500210348FFF769FDBDE80840FFF7E9
:102F8000E5BF00BFE00900207047000070B50446AF
:102F90000546074B00F1440644F8043B54F8040B83
:102FA00008B1FEF73DFAB442F8D1284670BD00BF23
:102FB0008078000810B50446FFF7E8FF2046FEF7CA
:102FC0002FFA204610BD00002DE9F04105460024EF
:102FD00088B0ADF80430BDF938302F48ADF8063070
:102FE000BDF93C302860ADF80830BDF94030ADF88F
:102FF0000010ADF80A30BDF94430ADF80220ADF84C
:103000000C30BDF948306C64ADF80E30BDF94C3071
:103010002F1DADF81030BDF95030ADF81230BDF9AC
:103020005430ADF81430BDF95830ADF81630BDF954
:103030005C30ADF81830BDF96030ADF81A30BDF92C
:103040006430ADF81C30BDF96830ADF81E303DF984
:103050001480B8F1FF3F1DD01C20FEF7CFF90646C3
:1030600000211C2201F054FE4146304600F0CCFB0A
:10307000B8F1FF3F47F8046B05D0012303FA04F2CF
:103080006B6C13436B640134102CE0D1284608B0FC
:10309000BDE8F0810026EBE78078000870B50446B3
:1030A00054F8043B06469B68984700231D4654F895
:1030B000042B42B1516812680968114214BF012201
:1030C00000229A4015430133102BF0D1336830466B
:1030D000DB689847284670BDFFF7E0BF70470000E7
:1030E00070B504460546074B00F1440644F8043B1E
:1030F00054F8040B08B1FEF793F9B442F8D128460E
:1031000070BD00BF9878000810B50446FFF7E8FFCF
:103110002046FEF785F9204610BD00002DE9F0415C
:103120000546002488B0ADF80430BDF938302F488A
:10313000ADF80630BDF93C302860ADF80830BDF977
:103140004030ADF80010ADF80A30BDF94430ADF8AC
:103150000220ADF80C30BDF948306C64ADF80E308B
:10316000BDF94C302F1DADF81030BDF95030ADF821
:103170001230BDF95430ADF81430BDF95830ADF807
:103180001630BDF95C30ADF81830BDF96030ADF8DF
:103190001A30BDF96430ADF81C30BDF96830ADF8B7
:1031A0001E303DF91480B8F1FF3F1DD01C20FEF702
:1031B00025F9064600211C2201F0AAFD41463046B1
:1031C00000F035FBB8F1FF3F47F8046B05D0012351
:1031D00003FA04F26B6C13436B640134102CE0D1DE
:1031E000284608B0BDE8F0810026EBE79878000893
:1031F00070B5044654F8043B05469B680E46984754
:10320000002354F8042B42B146FA03F111F0010FE8
:10321000106814BF9268D26810600133102BF0D18F
:103220002B682846BDE87040DB68184770B5044637
:1032300054F8043B06469B68984700231D4654F803
:10324000042B42B1516812680968114214BF01226F
:1032500000229A4015430133102BF0D133683046D9
:10326000DB689847284670BD10B50446FFF7C0FFDD
:10327000204610BDFFF7DABF7047A0F1B000FFF79E
:10328000FBBFA0F1B000FFF7F7BF00F077B8A0F1E7
:10329000B000FFF7FABF00F074B8A0F1B000FFF77C
:1032A000FABF000010B5044600F08CF8002104F1CC
:1032B000B00000F029FE064B204603F10802226010
:1032C00003F128028833C4F8B020C4F8B43010BD2C
:1032D000A87800087047704710B4446800F10801EE
:1032E0000EC954B103F0010002B930B15B1008B14E
:1032F000E0588258E01810BC104710BC704700001E
:1033000000EB01138C33DA6810B57AB100EB0110D1
:10331000D0F898202AB940F23A220549054800F031
:1033200057FE12681846BDE81040104710BD00BF98
:10333000387900088B79000838B5054655F8403BC8
:1033400004461B6898472846FEF70AFD0546236891
:1033500020465B689847284638BD38B5054655F87D
:10336000403B04461B6898472846FEF70FFD05467C
:10337000236820465B689847284638BD4030FEF7F2
:10338000C5BE10B50C464030FEF7D6FE204610BD37
:10339000C36810B504460BB19B689847204610BD22
:1033A000884238B504460D460AD0FDF78DF93CB188
:1033B000EB681BB15B68294620469847EB68E360E1
:1033C000204638BD2DE9F04F002504469B4689462E
:1033D00092462C4B85B003602B4BA060294643607E
:1033E000C56005614561856105774577102220300C
:1033F00001F08EFC04F140062946102204F1300051
:1034000001F086FC04F18C0829464C22304601F07C
:103410007FFC04F19C0729461022404601F078FC0D
:1034200029461022384601F073FC10222946C4F8C0
:10343000ACB0684601F06CFC69464046FFF7B0FF4F
:103440006846FDF741F910222946684601F060FC04
:1034500069463846FFF7A4FF6846FDF735F952463E
:1034600049463046FEF7ECFCD4F8AC103046FEF787
:10347000C1FC304622460549FEF7ECFD204605B06A
:10348000BDE8F08F98790008D932000801330008B0
:103490002DE9FF41064688461746054656F8403B4B
:1034A0003C011B68984700F0AFFDD8F80C308C3415
:1034B0002C44ABB1E3680BB900F0F6FE4146204660
:1034C000FFF76EFF012239463046FEF7CFFD00F0D0
:1034D000B1FD2B6828465B68984704B0BDE8F081D1
:1034E000E3680BB100F002FF10220021684601F0F2
:1034F0000FFC69462046FFF753FF6846FDF7E4F8E6
:103500000022E0E77FB504461A4B10220360002139
:10351000684601F0FDFB002269462046FFF7B8FF30
:103520006846FDF7D1F810220021684601F0F0FB53
:10353000012269462046FFF7ABFF6846FDF7C4F855
:1035400014F18C0608D004F1AC05B54204D0103D4E
:103550002846FDF7B9F8F8E704F13000FFF718FF47
:1035600004F12000FFF714FFA06900F015FC2046CD
:1035700004B070BD9879000810B50446FFF7C2FF8B
:103580002046FDF74DFF204610BD70B5D0E9082359
:10359000D0E90245064612196B4100F0F5F8736B4D
:1035A0002BB106F128001B68BDE87040184770BDBC
:1035B000D0B5044616461F4600F026FD204600F012
:1035C000EDF8C4E90867A06900F0C3FB321847EBC7
:1035D0000103204600F0D8F8BDE8D04000F02ABD35
:1035E000F8B504461F460D46164600F00DFD636B08
:1035F00013B994F838306BB9294604F12800FFF765
:10360000CFFE32463B462046FFF7D2FFBDE8F840EA
:1036100000F010BD00F048FEEEE71FB5044600F0D4
:10362000F3FC204600F0BAF8636B13B194F838301D
:1036300083B910220021684601F06AFB694604F153
:103640002800FFF7ADFE6846FDF73EF800F0F2FCFB
:1036500004B010BD00F04AFEEBE710B5044600F0E0
:10366000D3FC23681BB1237F0BB100F03FFE002386
:10367000236000F0DFFC204610BD10B5044600F0CA
:10368000C3FC236853B9237F0BB100F00DFEA06982
:1036900000F05FFB0123C4E902012360BDE8104094
:1036A00000F0C8BC38B5044600F0AEFC236873B126
:1036B000A06900F04EFB04F10805D5E90045041BA4
:1036C00061EB050500F0B6FC2046294638BD002414
:1036D0000025F7E770B5064600F096FCD6E90445EC
:1036E0003046FFF7DFFF24184D4100F0A3FC2046D1
:1036F000294670BD08B5FFF7EDFF4FF47A7200233D
:1037000003F016FA08BD10B5044600F07DFCA06970
:1037100000F01FFB00220023C4E90201C4E90423D6
:10372000BDE8104000F086BC002310B50022036005
:103730000023C0E90223C0E90423044600F01EFB75
:103740000123A06123772046FFF7DDFF204610BD4F
:1037500003689B6818470000094B10B500220360FE
:103760000023C0E90223002303614361044600F003
:1037700005FB0449A06100F069FA204610BD00BFB6
:10378000C47900085137000807B5009000F108011E
:10379000806900F09AFA03B05DF804FB00F10801BB
:1037A000806900F0BBBA000010B50446024B03600C
:1037B000FFF7F4FF204610BDC479000870B50E462F
:1037C00004461546FDF746FA013609D02046002189
:1037D000FDF766FA29462046BDE87040FDF75CBA61
:1037E00070BD38B504460D4603685AB1826820465C
:1037F00013600121FDF754FA29462046BDE8384000
:10380000FDF74ABAC268F2E70022FFF7D7BF70B5EA
:103810000E4604461546FDF71DFA013606D02A4627
:103820002046BDE870400021FFF7DBBF70BD0022DD
:10383000FFF7EDBF13B5044601300FD102B010BD44
:103840009C420AD120468968FDF78CFF0021204662
:1038500002B0BDE81040FEF785B80C31B1F9003078
:103860005A1CEDD10023224600930249024800F081
:1038700003FD00BF1F7A000830010180884207B5B0
:1038800002460AD0431C08D0013105D00023054967
:103890000093054800F0F0FC0146084603B05DF8CF
:1038A00004FB00BFEE79000830010180B1F900305F
:1038B0005A1C01D118467047834201D148687047AD
:1038C0000C31F3E7431C07B50AD0FFF7EFFF431CA9
:1038D00006D10023024600930349044800F0CCFCC3
:1038E00003B05DF804FB00BFFF79000830010180E0
:1038F000B1F900305A1C01D118467047834201D1FA
:10390000886870470C31F3E7431C07B50AD0FFF70E
:10391000EFFF431C06D100230246009303490448ED
:1039200000F0AAFC03B05DF804FB00BFD0790008EA
:10393000300101802DE9F74FD0F804A004469AF831
:103940003A30002B46D103685B68984763681B6A6E
:1039500098423FD0DAF82030DAF80840A0EB0308AC
:10396000CAF82000DAF80C30314808EA030884422B
:1039700046464FF0000727D0DAE90A239AF83BB011
:10398000A8FB0089CDE900230025BBF1000F2BD057
:103990005A464046494602F0CDF9DDE9002312EBD4
:1039A000080243EB090390465A46994606460F46DD
:1039B00002F0CCF9B8EB000069EB0101A94208BFA5
:1039C000A0420AD2CAE90A01DAE90C23B6185F411B
:1039D000CAE90C6703B0BDE8F08F013647F1000774
:1039E000001B61EB0501EDE722462B4640464946A8
:1039F00003F09EF8224606460F46404649462B46AF
:103A000003F096F8DDE9008918EB020849EB030999
:103A1000A94508BFA04502D2CAE90A89D4E7013600
:103A200047F10007B8EB040869EB0509F4E700BFAC
:103A300040420F00824206D98A420BD9884294BF85
:103A4000002001207047884206D98A428CBF00209E
:103A50000120704701207047002070472DE9F14F89
:103A60004768064697F83A30002B60D197F839300E
:103A7000002B5CD1FFF75EFF75686B68002B59D097
:103A8000D5E90C89D3E90001894508BF804505D3F4
:103A900033685B6901B0BDE8F04F1847B0EB080828
:103AA00061EB0909D5E906234B4508BF42452C695E
:103AB00006D3AB68254A93420FD1444528BF4446FC
:103AC0002A6A3B6A1444EA681440A34221D14FF4A5
:103AD00084721F491F4800F07BFA95F83B20DFF8FD
:103AE00078A04FF0000B7AB14046494602F02EF91B
:103AF00010EB0A0041EB0B01144A002303F018F805
:103B0000844228BF0446DBE7A3FB080103FB09113D
:103B1000EEE7336820461B69984733685B6898472F
:103B200022460146386AFFF785FF0028B0D101B070
:103B3000BDE8F08F3B69386AFA6818443368104072
:103B40001B6901B0BDE8F04F184700BF40420F00AD
:103B5000307A00087A7A00083F420F002DE9F04FD2
:103B6000436885B093F838200546002A64D193F85D
:103B70003A30002B60D103681B6898472B68DB69DB
:103B80009847076827B92D222D492E4800F020FAC2
:103B90001F23012202FA03F18F425FFA83FB02D056
:103BA000013BF7D19B46D0F804A0AAF104031C2BDB
:103BB00001D93B22E8E707269E40002317F1FF309A
:103BC000214C43F1FF313A46C4FB060102F0B0FF3D
:103BD00000236C682A682360636052680393CDE910
:103BE000000190474FF000084FF0000920626C6818
:103BF0005246C4E90A89A76084F83BB0012000213D
:103C000002F0A4F8DDE90023C4E90623039B013890
:103C100084F8393084F83A300123E0602661284680
:103C2000C4E90C8984F83830FFF784FE284605B0D3
:103C3000BDE8F04FFFF712BF05B0BDE8F08F00BF41
:103C4000307A00081B7B000840420F0038B505465B
:103C50000C46FFF783FF00F0D7F96B681C60BDE8E6
:103C6000384000F0E7B970B5044600F0CDF923689C
:103C7000DB689847636893F83A201AB1BDE8704052
:103C800000F0D8B9012283F8392063685B68A3B1DA
:103C90002046FFF74FFE65686E68D5E90C01D6E94E
:103CA0000023994208BF904207D3F3686B602B68EA
:103CB000002BEAD0B0689847E7E700226368204607
:103CC00083F83920FFF7CAFED8E72DE9F041804696
:103CD0000C4616461F46069D00F096F94046FFF733
:103CE00029FEA5600025D8F80420C4E900675368C0
:103CF0004BB9E36085B954604046FFF7AFFEBDE8BD
:103D0000F04100F097B9D3E900018F4208BF864225
:103D1000EFD31D46DB68EBE7EC60F0E738B505460E
:103D20000C4600F071F96A685368A34209D1DB6858
:103D300028465360FFF792FEBDE8384000F07AB99C
:103D40001346002BF8D0DA689442F9D1E268DA60C1
:103D5000F2E738B50446FFF701FF00F055F92046B9
:103D6000FFF7E8FD6368D3E90C4500F063F92046EE
:103D7000294638BD08B5FFF7ECFF08BD004870477D
:103D8000A07A0008024B1B680BB102481847704725
:103D900004020020A07A0008024B1B6803B11847F8
:103DA000704700BFD807002070B50E4600250446B6
:103DB000056045600E49304601F0A7FC29463044B5
:103DC000206023681A782F2A07D10133236051B964
:103DD0002A220849084800F0FBF8002AF7D00133EE
:103DE00001312360EDE700F033FB6060204670BDD9
:103DF000C87A0008CA7A0008147B00080068704777
:103E0000406808B520B100F0CBFA431E5842584133
:103E100008BD10B50446FFF7F3FF10B1606800B1AC
:103E2000043810BD406808B520B100F0B9FAB0FA06
:103E300080F0400908BD10B50446FFF7F3FF10B14C
:103E4000606800B1043810BD4068003018BF012020
:103E500070470020704770477047F8B50E460368FA
:103E600004461B6D8F1835469847BD4207D023681E
:103E700015F8011B9B6C204698470130F5D123684B
:103E800020465B6D9847A81BF8BDF8B50E46036841
:103E900004461B6D8F1835469847BD4208D02368ED
:103EA0002046DB6C9847431C02D005F8010BF4E771
:103EB000236820465B6D9847A81BF8BD002070471B
:103EC00070470020704700207047000010B504467E
:103ED000044B0360503340F8043F00F081FA204661
:103EE00010BD00BF287B0008A0F10400EEE700BF72
:103EF00010B50446FFF7EAFF2046FDF791FA204689
:103F000010BDA0F10400F3E713B504460E4B0022E8
:103F100040F8043B00F046FA0C4B0D492360603337
:103F20006360002320466361FDF7DAFA03466061AF
:103F300028B9009002460749074800F09DF9FDF7AF
:103F4000C9F8204602B010BDFC7E0008A07B000826
:103F5000807B0008837B00081901018010B50446AE
:103F6000064B03F10802683302604360406900F0C9
:103F700017FB2046FFF7AAFF204610BD987B0008DC
:103F800038B504460D4603681B6D98470122002191
:103F9000606900F029FD6169284600F01BFD0546B7
:103FA000236820465B6D9847284638BD38B50446DF
:103FB00003681B6D9847606900F0ACFB606900F016
:103FC000E7FB0546236820465B6D9847284638BDC9
:103FD00004460D46164607B500F016F800962B4627
:103FE00000222146014800F047F900BF4401FF804C
:103FF000EFF31080C04300F001007047EFF305803D
:10400000003018BF0120704710B5074C23680133FA
:1040100004D1512205490648FFF7DAFF00F094F970
:1040200023680133236010BDDC070020087C0008F2
:10403000557C0008054B1A6832B11A68013A1A60BB
:104040001B680BB900F092B9704700BFDC07002075
:104050000122D0E84F3FC0E8412F0029F9D1D8B262
:10406000003018BF01207047D0E85F3F0B449BB27F
:10407000C0E8523F002AF7D118467047D0E85F3FAA
:104080005B1A9BB2C0E8523F002AF7D1184670472E
:1040900008B50B48FFF7DCFF28B1FFF7B5FFBFF30A
:1040A0004F8F20BFFDE7FFF7A9FF08B1FCF72EFEF9
:1040B000FFF79EFF0028F9D00120FDF77BF900BF34
:1040C0002008002070B5164C0D4634EA200428BFA5
:1040D000044616468EB03422002101A800F018FED6
:1040E000019402960395FFF78FFF0E4A1368013380
:1040F000012B136004D1342201A90B4800F0FDFD0F
:10410000342201A9094800F0F8FD094B1B680BB1E6
:1041100006489847FFF78EFF00200EB070BD00BF25
:104120000101FF80E0070020EC07002024080020A8
:10413000E40700202DE9F0412E4C0E462168804610
:10414000C1F34173032B0CBF4D428DB2C1F3074342
:10415000174629482A46FCF731FE6FF498731D4430
:10416000132D0FD8DFE805F00A2D3033363C393FE8
:104170000E0E0E0E0E0E0E0E0E0E0E42A1681F48F3
:10418000FCF71CFE4046FCF7EFFD61681C48FCF79D
:1041900015FE4EB11B48FCF7E7FD3046FCF7E4FD89
:1041A00039461948FCF70AFEA1681848FCF706FED4
:1041B00021681748FCF702FEBDE8F0411548FCF7FE
:1041C000FDBDA1681448DBE7A1681448D8E7A168E1
:1041D0001348D5E7A1681348D2E7A1681248CFE792
:1041E000A1681248CCE7A1681148C9E71148FCF75B
:1041F000E5FDC7E7240800209B7C0008EC7C000854
:10420000947D0008A57D0008AD7D0008B17D000803
:10421000C57D0008117E0008027D0008127D00089F
:10422000217D0008347D0008487D00085C7D000881
:104230006B7D0008817D00080FB407B50B487546FB
:10424000FFF706FF044670B901462A460848FFF703
:1042500039FF214607482246FFF76CFF05A904985D
:104260000191FCF791FDFFF713FF00BFE807002065
:104270000001FF80867C000880B506460948F046AC
:104280000C4617461D46FFF7E3FE48B9424639463D
:104290003046FFF717FF029A29462046FFF74AFFEC
:1042A000FFF7F6FEE807002013B5FFF7ADFE4FF667
:1042B000FF730B4C22889A4208D1FFF7BBFE002304
:1042C0002288009307490848FFF7D6FF01212046BE
:1042D000FFF7CAFE02B0BDE81040FFF7ABBE00BF5B
:1042E000580800202B7E00082301048037B50B4CB2
:1042F000FFF78AFE258845B9FFF79CFE22880095C6
:104300002B4607490748FFF7B7FF01212046FFF773
:10431000B5FE03B0BDE83040FFF78CBE5808002062
:10432000507E00082401048070B50446FFF726FD86
:104330000646FFF71FFD05463046FFF71BFD401BF5
:10434000A042F9D370BD0000EFF31083DB4372B6D7
:10435000044A117829B9044903F001030B700123C1
:10436000137070475B0800205A08002008B5EFF36F
:104370001083DB0704D4362205490648FFF728FEE0
:104380000022054B1A70054B1B7803B162B608BDBD
:104390006E7E0008C27E00085B0800205A080020DC
:1043A000007B704738B50B4B0446036000230D4675
:1043B0004360A16002730848FDF734F845B1074B2C
:1043C0001A681C6062600448FDF72CF8204638BD6E
:1043D0006560F8E7EC7E0008600800205C080020BB
:1043E00010B50446114B03601148FDF71BF8A36894
:1043F0002BB1104A13689C4212D1636813600E4BB4
:104400000B481A68944204BF00221A60FDF70AF8AC
:10441000237B13B9201FFDF719F8204610BD134662
:104420005A689442FBD162685A60E8E7EC7E000863
:10443000600800205C0800207008002010B50446C9
:10444000FFF7CEFF2046FCF7EBFF204610BD000033
:1044500070B5064614480D46FCF7E4FF134B1C6884
:104460007CB1A068E8B101F048F9A84219D12A4608
:104470003146A06800F032FC98B90B48FCF7D2FF37
:104480000DE0072DF9D12A463146094800F026FCF7
:104490000028F2D10448FCF7C5FF064B1C682046F3
:1044A00070BD6468DCE700BF600800205C08002085
:1044B000DC7E000870080020036870B51B690122CB
:1044C000002104469847051E0DDB236802221B6964
:1044D0000021204698470646236829461B6900228A
:1044E000204698473546284670BDFCF799BF000026
:1044F000014B1868704700BF0802002070B50546E0
:104500000C4611B90026304670BD18B183690BB94D
:1045100000F086F91F4B9C4232D16C68B4F90C3024
:10452000002BEFD02146284600F042F8236B0646C8
:1045300033B1216A284698470028B8BF4FF0FF36AC
:10454000A3891B0603D52169284602F07DFC616B17
:1045500041B104F14403994202D0284602F074FCB0
:1045600000236363A16C21B1284602F06DFC002397
:10457000A36400F0C1F90023A38100F0BEF9C2E7F3
:10458000054B9C4201D1AC68C8E7044B9C4208BF74
:10459000EC68C3E7647F0008847F0008447F00085C
:1045A000024B01461868FFF7A9BF00BF08020020B0
:1045B0008A892DE9F041054610070C465AD44B680C
:1045C000002B05DC0B6C002B02DC0020BDE8F08129
:1045D000E66A002EF9D0002312F480522F682B6077
:1045E00033D0606DA3895A0705D56368C01A636B21
:1045F0000BB1236CC01A00230246E66A216A2846E2
:10460000B047431CA38906D129681D294BD82B4AE2
:10461000CA40D60747D5002262602269D9042260C9
:1046200004D5421C01D12B6803B96065616B2F6012
:104630000029CAD004F14403994202D0284602F06E
:1046400003FC00206063BDE8F081216A0123284655
:10465000B047411CC6D12B68002BC3D01D2B01D005
:10466000162B01D12F60B0E7A38943F04003A3814B
:10467000BDE8F0810F69002FA7D0930718BF002372
:104680000E6808BF4B69A6EB07080F608B60B8F196
:10469000000F9ADD43463A46216A2846A66AB0478B
:1046A000002807DCA38943F04003A3814FF0FF30CB
:1046B000BDE8F0810744A8EB0008E8E701004020CE
:1046C00038B50B6905460C46DBB118B183690BB9E7
:1046D00000F0A6F80C4B9C4209D16C68B4F90C3080
:1046E0007BB121462846BDE83840FFF761BF074B44
:1046F0009C4201D1AC68F1E7054B9C4208BFEC68D5
:10470000ECE7002038BD00BF647F0008847F00080C
:10471000447F0008014620B9044B0549186800F0A1
:1047200019BA044B1868FFF7CBBF00BFA47F00087D
:10473000C14600080802002038B50C46054618B1ED
:1047400083690BB900F06CF80E4B9C420BD16C687E
:104750006368013B002B63600FDA21462846BDE801
:10476000384000F09BBE084B9C4201D1AC68EFE79B
:10477000064B9C4208BFEC68EAE723685A1C22609B
:10478000187838BD647F0008847F0008447F0008E3
:10479000024B01461868FFF7CFBF00BF0802002098
:1047A000014900F0D7B900BFC1460008002310B589
:1047B000044603604360836081814366C281036174
:1047C00043618361194608225C3000F0A1FA054B71
:1047D00024626362044BA362044BE362044B2363D1
:1047E00010BD00BF6156000883560008BB56000884
:1047F000DF56000870B568254A1E55430E4605F180
:10480000740102F01DFB044640B1002180E8420023
:104810000C30A06005F1680200F07AFA204670BD05
:10482000836910B5044633BB8364C3640365124BCC
:10483000124A1B688262984204BF0123836100F020
:104840001FF86060204600F01BF8A060204600F0D2
:1048500017F80022E06004216068FFF7A7FF01223B
:104860000921A068FFF7A2FF02221221E068FFF7EA
:104870009DFF0123A36110BDA47F0008A14700088C
:10488000F8B51C4B07461E68B36913B93046FFF7ED
:10489000C7FF4836B4687368013B03D5336833B14A
:1048A0003668F7E7B4F90C506DB16834F4E70421C9
:1048B0003846FFF79FFF30600028F1D10C230446F3
:1048C0003B602046F8BD4FF6FF73E3810123656628
:1048D000A3812560A560656025616561A5610822E9
:1048E000294604F15C0000F013FA6563A563A56432
:1048F000E564E6E7A47F000870477047F7B50F4608
:10490000114601AA054601F02FF8064618B9002401
:10491000204603B0F0BD2846FFF7B2FF044600284A
:10492000F5D04FF4DB73019A3946284600F0D8FCE5
:10493000002806DA0025FFF7DFFFA581FFF7DDFF7E
:10494000E5E70A4BE0816362094BA681A362094B4C
:104950002462E362084B2363F305D9D502230022C6
:104960002146284600F03EF8D2E700BF6156000815
:1049700083560008BB560008DF560008024B0A4663
:1049800001461868FFF7BABF0802002070B50E464E
:104990001446054618B183690BB9FFF741FF0A4B6E
:1049A0009C4207D16C68224631462846BDE87040DB
:1049B00000F0A8BC054B9C4201D1AC68F3E7044B66
:1049C0009C4208BFEC68EEE7647F0008847F000823
:1049D000447F0008024B0A4601461868FFF7D6BF1D
:1049E0000802002000F00AB813460A4601460248B1
:1049F000006800F003B800BF080200202DE9F8436A
:104A00000C4691461E46054618B183690BB9FFF75F
:104A100007FF3F4B9C4212D16C68A38903F4847357
:104A2000B3F5847F03D121462846FFF749FED4F829
:104A30002C80B8F1000F0CD11D232B6057E0354BB3
:104A40009C4201D1AC68E8E7334B9C4208BFEC685C
:104A5000E3E7012E30D0022E01D0002E55D123697C
:104A60001BB92146284600F0DBF821462846FFF70F
:104A700027FE074600283AD133464A46216A28468F
:104A8000C047013033D0616B41B104F14403994216
:104A900002D0284602F0D8F900236363002123697D
:104AA00061602360A389082223F40263A38104F1D7
:104AB0005C0000F02DF91CE021462846FFF700FEBF
:104AC000A28912F480520CD0606DA3895A0713D5C5
:104AD0006368C01A636B0BB1236CC01A8144002653
:104AE000BDE7216A33462846C047411CEDD14FF04F
:104AF000FF373846BDE8F8831B07EFD52368002B46
:104B0000ECD022699B1A1844E8E7162395E700BF0A
:104B1000647F0008847F0008447F00082DE9F0418D
:104B20008846002600F1480414B93046BDE8F081FB
:104B3000A5686768013F01D52468F5E7AB89012BBB
:104B400006D9B5F90E30013302D02846C0470643D6
:104B50006835EFE72DE9F84380468946002600F1E5
:104B6000480414B93046BDE8F883A5686768013F7A
:104B700001D52468F5E7AB89012B07D9B5F90E30CB
:104B8000013303D029464046C84706436835EEE75F
:104B900070B500250C4E0D4CA41BA410A54209D1E4
:104BA00002F03EFA00250A4E0A4CA41BA410A542AE
:104BB00005D170BD56F8253098470135EEE756F817
:104BC000253098470135F2E770020020700200207E
:104BD000700200207802002070B50E46B1F90E1068
:104BE00090B0002914461D4607DA00232B60B389D4
:104BF0001A0610D44FF480630EE001AA00F0EAFE1A
:104C00000028F2DB029A02F47042A2F500535A42E5
:104C10005A412A60EEE740230020236010B070BDA7
:104C20008B8973B59D0706460C4607D504F14703EB
:104C3000236023610123636102B070BD01AB6A464A
:104C4000FFF7CAFF00990546304602F0F9F848B967
:104C5000B4F90C309A05EFD423F0030343F00203B8
:104C6000A381E3E70D4BB362A389206043F0800387
:104C7000A381009B20616361019B5BB1B4F90E10BD
:104C8000304600F0B9FE28B1A38923F0030343F0B6
:104C90000103A381A3891D43A581CDE7A147000896
:104CA000024B0146186802F0CBB800BF0802002092
:104CB000024B0146186802F0C7B800BF0802002086
:104CC00010B5C9B202449042034601D1002010BD84
:104CD0001C7801308C42F6D1184610BD10B5013950
:104CE0000244904201D1002010BD10F8013B11F8A0
:104CF000014FA342F5D0181B10BD10B5431E0A4446
:104D0000914200D110BD11F8014B03F8014FF7E7B4
:104D100003460244934200D1704703F8011BF9E7B0
:104D2000936810B4013B002B936008DA9469A342A6
:104D300002DBCBB20A2B02D110BC00F033BD1368EA
:104D4000581C10601970C8B210BC7047F8B5064600
:104D50000F461446D518AC4201D1002007E03A4670
:104D600014F8011B3046FFF7DBFF431CF3D1F8BDFD
:104D70002DE9F04F9DB00C4617460393064618B137
:104D800083690BB9FFF74CFD7C4B9C4257D174688B
:104D9000A38918075DD52369002B5AD000230993F6
:104DA00020238DF8293030234FF0010B8DF82A3065
:104DB000B846454615F8013B002B55D1B8EB070A1C
:104DC0000BD053463A4621463046FFF7BFFF01302D
:104DD00000F0C480099B5344099398F80030002BDD
:104DE00000F0BC8000234FF0FF320493079305923C
:104DF00006938DF853301A93052229786048FFF7FF
:104E00005FFF05F10108049B002831D1D90644BF9A
:104E100020228DF853201A0744BF2B228DF85320EF
:104E20002A782A2A2CD000210A20079AA84698F826
:104E300000300135303B092B6DD971B326E0514B61
:104E40009C4201D1B468A3E74F4B9C4208BFF46871
:104E50009EE72146304600F009FD00289ED04FF025
:104E6000FF301DB0BDE8F08F252BA7D0A846A0E7E6
:104E7000434A4546801A0BFA00F018430490BBE7FA
:104E8000039A111D12680391002A01DB079204E0C6
:104E9000524243F002030792049398F800302E2BFD
:104EA00010D198F8013008F101012A2B37D1039B6A
:104EB00008F102081A1D1B680392002BB8BF4FF0BF
:104EC000FF330593314D032298F800102846FFF771
:104ED000F7FE40B14023401B03FA00F0049B08F1A9
:104EE00001080343049398F800100622284808F1AB
:104EF00001078DF82810FFF7E3FE002834D0254B7A
:104F000003BB039B073323F0070308330393099B79
:104F10004B4409934CE700FB0232012186E7002352
:104F20000A2518460593884698F800200131303A42
:104F3000092A03D9002BC5D00590C3E705FB002043
:104F40000123F0E703AB00932246134B04A930463C
:104F5000AFF30080B0F1FF3F8146D8D1A3895B0653
:104F60003FF57DAF09987CE703AB009322460A4BDF
:104F700004A9304600F094F8ECE700BF647F000815
:104F8000A87F0008847F0008447F0008AE7F0008E7
:104F9000B27F0008000000004D4D000813460A468D
:104FA000014602480068FFF7E3BE00BF0802002088
:104FB0002DE9F04791461F468A680B6906469342E1
:104FC000B8BF1346C9F8003091F843200C46DDF80D
:104FD000208012B10133C9F800302368990642BF1E
:104FE000D9F800300233C9F80030256815F00605FD
:104FF00007D104F1190AE368D9F800209B1A9D42F1
:105000002ADB94F843302268003318BF012392064C
:105010002FD404F1430239463046C047013022D034
:105020002368E56803F00603042B18BF0025D9F8B0
:1050300000204FF0000908BFAD1AA368226908BF1D
:1050400025EAE5759342C4BF9B1AED181A344D4505
:105050001BD10020BDE8F087012352463946304677
:10506000C047013003D14FF0FF30BDE8F087013574
:10507000C1E73020E11881F843005A1C94F845102C
:105080002244023382F84310C3E701232246394603
:105090003046C0470130E6D009F10109D7E70000EA
:1050A0002DE9F04317460A7E85B06E2A98460646DB
:1050B0000C460C9B01F1430E00F0BC801AD8632A09
:1050C0002ED00AD8002A00F0C880582A00F08A8022
:1050D00004F1420584F842202AE0642A01D0692ABA
:1050E000F6D121681A6811F0800F23D0111D1960C4
:1050F000136827E0732A00F0B48008D86F2A2AD0FA
:10510000702AE5D10A6842F020020A6003E0752A9D
:1051100021D0782ADCD178226F4984F8452064E0D8
:105120001A6801F14205111D1960136884F84230B4
:105130000123A3E011F0400F02F104011960D7D060
:10514000B2F90030002B03DA2D225B4284F84320B1
:1051500062490A2217E02068196810F0800F03D016
:10516000081D18600B6806E010F0400F01F1040004
:105170001860F7D00B886F2A14BF0A2208225749FB
:10518000002084F843006568002DA560C0F29C8073
:10519000206820F004002060002B3FD1002D40F05B
:1051A00095807546082A0BD12368DA0708D523694C
:1051B00062689A42DEBF302305F8013C05F1FF35F5
:1051C000AEEB05032361CDF800803B4603AA2146E0
:1051D0003046FFF7EDFE013055D14FF0FF3005B0FE
:1051E000BDE8F08381F845203C492268186812F038
:1051F000800F00F104051D6001D0036802E0550630
:10520000FBD50388D00744BF42F0200222601BB9BF
:10521000226822F0200222601022B1E77546B3FB1B
:10522000F2F002FB1033CB5C05F8013D0346002889
:10523000F5D1B7E708681A6810F0800F496904D003
:10524000101D18601368196007E010F0400F02F19C
:10525000040018601368F6D0198000237546236196
:10526000B1E71A68111D19601568002162682846A7
:10527000FFF726FD08B1401B6060636823610023CF
:1052800084F843309FE723692A4639463046C047B1
:105290000130A2D023689B0707D5002504F1190926
:1052A000E368039A9B1A9D4205DBE068039B9842E2
:1052B000B8BF184693E701234A4639463046C047EF
:1052C00001308AD00135EBE7002BA7D10B7804F130
:1052D000420584F8423065E7CA7F0008B97F0008BC
:1052E00038B50546084611460022054C22601A468C
:1052F000FCF760F9431C02D1236803B12B6038BD71
:10530000280A002070B50D461446064618B1836978
:105310000BB9FFF785FA134B9C4212D17468A3684E
:10532000013B002BA36016DAA269934202DBEBB2C9
:105330000A2B10D1224629463046BDE8704000F0C5
:1053400031BA094B9C4201D1B468E8E7074B9C4253
:1053500008BFF468E3E72368E8B25A1C22601D70B6
:1053600070BD00BF647F0008847F0008447F000890
:10537000838903F00903092B01D1FFF7CBB9002082
:1053800070470000F8B50C46054618B183690BB9A3
:10539000FFF746FA3C4B9C420AD16C680023B4F9F3
:1053A0000C20636093B29E060CD54FF0FF30F8BD21
:1053B000364B9C4201D1AC68F0E7354B9C4208BFAC
:1053C000EC68EBE7580749D4D90605D4092342F025
:1053D00040022B60A281E8E71A070BD52146284638
:1053E000FFF76EF90028E0D1A389A06023F008033D
:1053F000A381A061A38943F00403A38123691BB99E
:1054000021462846FFF70CFCB4F90C70BEB2B30776
:105410000FD00123A3811F4B1F49186806F009060E
:10542000FFF77CFB092EA78103D121462846FFF711
:10543000BFF82269666A22606369216A2846B0471C
:10544000002860601DDC18BF0022A38916BF6260BF
:1054500043F0200343F04003A381A6E7616B0029DA
:10546000CCD004F14403994202D0284601F0ECFC70
:105470000020236C60636360002BBFD0E36B23606C
:10548000F8BD0020F8BD00BF647F0008847F0008DD
:10549000447F0008A47F00087153000838B50C460B
:1054A000054618B183690BB9FFF7BAF90E4B9C4258
:1054B0000DD16C6821462846FFF764FF88B9636800
:1054C000013B636023685A1C2260187838BD074B83
:1054D0009C4201D1AC68EDE7054B9C4208BFEC68EB
:1054E000E8E74FF0FF3038BD647F0008847F000894
:1054F000447F000800294FF480630CBF0222002281
:1055000000F000B82DE9F7431D46514B04461E68D4
:105510000F46904626B1B36913B93046FFF780F9BC
:105520004C4B9C4252D17468B8F1020F06D0B8F1CE
:10553000010F00F28980002DC0F28680214630469E
:10554000FFF7BEF8616B41B104F14403994202D008
:10555000304601F079FC002363630023A36163609C
:10556000A3891B0603D52169304601F06DFCA38990
:10557000B8F1020F23F44A6323F00303A3815DD043
:1055800001AB6A4621463046FFF726FBA389184344
:10559000A0812DBB009D2846FFF782FB074600280F
:1055A0004ED1DDF80090A9453CD14FF0FF30A389E2
:1055B00043F00203A3810023A36004F147032360A7
:1055C00023610123636103B0BDE8F083224B9C4259
:1055D00001D1B468A8E7214B9C4208BFF468A3E757
:1055E000002FD8D0B36913B93046FFF719F9B8F1D5
:1055F000010F08BFA389276004BF43F00103A38103
:10560000A389276113F0080065611BD013F0010026
:105610004FF000031FBF6D42A360A561184608BF8D
:10562000A560D0E74846FFF73BFB07460028BCD003
:10563000A3894D4643F08003A381D3E70020B6E75A
:10564000A946F5E7A060BEE74FF0FF30BBE700BF1B
:1056500008020020647F0008847F0008447F00085F
:1056600010B50C46B1F90E1000F052FB0028ABBF8C
:10567000636DA3891B1823F48053ACBF6365A381BA
:1056800010BD2DE9F0411F468B890546DB050C4610
:10569000164605D502230022B1F90E1000F0BCF920
:1056A000A389324623F48053A381B4F90E103B46FC
:1056B0002846BDE8F04100F0C7B810B50C46B1F976
:1056C0000E1000F0A9F9431CA38915BF606523F4EF
:1056D000805343F48053A38118BFA38110BDB1F957
:1056E0000E1000F031B910F8012B11F8013B012A1E
:1056F00028BF9A42F7D0D01A7047034613F8012BFF
:10570000002AFBD1181A01387047034670B51A46B3
:1057100012F8015B3DB14C1E01E0B54205D014F812
:10572000016F002EF9D1181A70BD1346EFE730B59E
:10573000141E05469BB0184605DA8B234FF0FF3048
:105740002B601BB030BD4FF40273ADF80C300CBFB2
:10575000234604F1FF33029305934FF6FF73009144
:105760000491ADF80E3002461E9B6946284600F0B3
:10577000DBF9431CBCBF8B232B60002CE1D0002243
:10578000009B1A70DDE7000007B5009313460A4638
:10579000014603480068FFF7CAFF03B05DF804FB49
:1057A00008020020F8B50E461446054618B1836974
:1057B0000BB9FFF735F8214B9C422AD16C68A369DD
:1057C000A360A3891A072ED5236963B323692068D0
:1057D000F6B2C01A63693746984204DB2146284670
:1057E000FEF76EFF28BBA3680130013BA36023686E
:1057F0005A1C22601E706369984204D0A389DB079B
:1058000019D50A2E17D121462846FEF759FF90B127
:105810000FE00B4B9C4201D1AC68D0E7094B9C4296
:1058200008BFEC68CBE72146284600F01FF80028A7
:10583000CCD04FF0FF373846F8BD00BF647F00087A
:10584000847F0008447F000838B5054608461146A5
:105850000022054C22601A46FBF7F2FC431C02D1E1
:10586000236803B12B6038BD280A0020324B70B585
:105870001D6806460C4625B1AB6913B92846FEF7EC
:10588000CFFF2E4B9C420FD16C68B4F90C309AB20A
:1058900015072CD4D00611D40922326043F04003FE
:1058A000A3814FF0FF3070BD254B9C4201D1AC6805
:1058B000EBE7244B9C4208BFEC68E6E7510712D5A2
:1058C000616B41B104F14403994202D0304601F0CA
:1058D000BBFA00236363A38923F02403A38100237D
:1058E000636023692360A38943F00803A3812369CC
:1058F0004BB9A38903F42073B3F5007F03D021468D
:105900003046FFF78DF9A28912F001030CD0002375
:10591000A36063695B42A361236953B9B4F90C3096
:1059200013F08000BAD170BD920758BF6369A360BD
:10593000F2E70020F7E700BF08020020647F0008BC
:10594000847F0008447F000838B50023054C0546D5
:1059500008462360FBF758FC431C02D1236803B1BF
:105960002B6038BD280A00200B7830B5722B13D07D
:10597000772B07D0612B13D14FF4027401234FF41E
:10598000847003E04FF4C0640123082011F8015F24
:1059900055B92343136030BD002404202346F5E7A6
:1059A00016230360002030BD622D0CD0782D0DD061
:1059B0002B2DEBD120F01C0023F0030340F010004E
:1059C00043F00203E2E743F48033DFE743F400638C
:1059D000DCE7000038B50023064C054608461146B2
:1059E0002360FBF708FD431C02D1236803B12B6041
:1059F00038BD00BF280A002038B50023054C0546F5
:105A000008462360FBF789FC431C02D1236803B1DD
:105A10002B6038BD280A002038B5054608461146D7
:105A20000022054C22601A46FBF793FC431C02D16E
:105A3000236803B12B6038BD280A0020884210B5C6
:105A400001EB020303D8421E99420CD110BD9842CB
:105A5000F9D28118D21AD34200D110BD13F8014DEA
:105A600001F8014DF7E711F8014B02F8014FEBE7A0
:105A70002DE9F0478E6882469E420C469146984634
:105A800035D88A8912F4906F31D0022325680969CC
:105A90006F1A656905EB450595FBF3F508F1010300
:105AA0003B449D4238BF1D46530531D5294601F080
:105AB000C7F9064650B90C23CAF80030A3894FF045
:105AC000FF3043F04003A381BDE8F0873A462169E7
:105AD000FFF713F9A38923F4906343F08003A381B4
