:020000040800F2
:1000000000500020B52F0008E92F000879150008DE
:100010007F150008851500088B15000800000000FA
:10002000000000000000000000000000E92F0008B0
:10003000E92F000800000000E92F0008E92F000860
:10004000E92F0008E92F0008E92F0008E92F000830
:10005000E92F0008E92F0008E92F0008E92F000820
:10006000E92F0008E92F0008E92F0008E92F000810
:10007000E92F0008E92F0008E92F0008E92F000800
:10008000E92F0008E92F0008E92F00087115000882
:1000900075150008E92F00087D140008E92F0008F5
:1000A000E92F0008E92F0008E92F0008E92F0008D0
:1000B000E92F0008E92F0008E92F0008E92F0008C0
:1000C000E92F0008E92F0008E92F0008E92F0008B0
:1000D000E92F0008E92F0008E92F0008E92F0008A0
:1000E000E92F0008E92F0008E92F000800000000B0
:1000F0000000000000000000000000000000000000
:1001000000000000000000005FF808F110B5054C89
:10011000237833B9044B13B10448AFF300800123B3
:10012000237010BD780200200000000068920008D3
:100130000C4B43B10C4810B50C49AFF300800C4890
:10014000036823B910BD0A48036833B97047094BE7
:10015000002BF7D0BDE810401847064B002BF5D018
:10016000184700BF00000000689200087C020020D1
:100170007402002000000000154B002B08BF134B39
:100180009D46A3F5803A00218B460F461348144A3A
:10019000121A06F00FF80F4B002B00D098470E4BA9
:1001A000002B00D098470020002104000D000D48CE
:1001B000002802D00C4801F0D9FE05F03BFF2000DA
:1001C000290002F079F902F043F800BF00000800AE
:1001D0000050002000000000A92400087802002040
:1001E000980E00206D1F000800000000036811B188
:1001F000826813607047C268FBE743681A68036847
:100200001A4214BF0120002070477047024A9368C9
:1002100001339360704700BF54070020024A5368BF
:1002200001335360704700BF54070020044B1A7815
:10023000D2075EBF1A7842F001021A70704700BF01
:10024000A40700200368184708B10B6803607047D3
:1002500070470000F8B50A4E0A4D06F1B007304667
:1002600004F0A8FA58B1EC783846E4B2631CDBB26B
:10027000EB7005F0EDF82C44C0B2E071EFE7F8BD8B
:10028000C00700200205002010B50446382105F003
:100290007EFB204610BD000010B50446074BB03071
:1002A00003F1200240F8B03C80330260436005F067
:1002B000A7F8204604F052FB204610BD808B0008B2
:1002C000A0F1B000E8E7A0F1B400E5E710B50446FE
:1002D00005F0ECF8237E1BB105F05AFA00232376D3
:1002E00005F0FAF8204610BD024BDA681B6813606F
:1002F000704700BFA004002038B504460D461C22FC
:10030000002105F057FF2046294604F0E2FC204674
:1003100038BD38B5054655F8043B04469B689847F8
:10032000284600F0DFFF054623682046DB68984733
:10033000284638BD38B5002304460D46037605F03F
:10034000B5F82046294602F08DFB05F0C5F8204699
:1003500038BD38B504460D4605F0A8F829462046B4
:1003600002F0FFFBBDE8384005F0B6B810B5044612
:1003700004F044FC2046064B102240F8283B0021A4
:1003800005F018FF0123204684F8383010BD00BF67
:10039000288C000810B50C4C05F088F82046142174
:1003A00002F0DAFB05F098F84FF47A71074B20461B
:1003B00093F9013059437E2391FBF3F101F2DC51B3
:1003C000FFF7C7FF10BD00BF840400209C08002079
:1003D00038B5414B05465A78102A23D0112A3FD010
:1003E000012A78D19B78012B02D0102B13D038BD75
:1003F0003A4B9A681B681360394BDA681B681360C4
:10040000384B5B68022B94BF4FF4FA71294636488B
:10041000FFF79FFF38BD314BDA681B681360304B24
:100420009A68EBE79B78012B02D0102B11D038BDD6
:100430002E4BDA681B6813602D4B9A681B682D4899
:100440001360284B9B68022B94BF4FF4FA71294626
:10045000DEE7264B9A681B681360254BDA68EDE7E8
:100460009B78012B02D0102B1CD038BD1F4B1D4C8C
:10047000DA681B6813601E4B9A681B681360A268D9
:10048000022A8CBF01464FF4FA711A48FFF761FF48
:10049000124B9A681B681360114BDA681B68136073
:1004A0006368AFE7114B0F4C9A681B681360104BE1
:1004B000DA681B681360A268022A8CBF01464FF4F9
:1004C000FA710C48FFF745FF044BDA681B681360AC
:1004D000034B9A68E2E738BD98070020A403002088
:1004E000C0030020540700204C0400206C030020AF
:1004F000880300206804002010B52F4C2278637810
:10050000002A38D0032B21D8DFE803F03B0221304A
:10051000237A052B0CDC294A0133DBB2D168106841
:10052000042B0860237211D9936812681A6010BDF9
:10053000062B11D12148FFF760FEB0FA80F11F4869
:100540004909FFF753FE237A0133237210BD237A42
:10055000052BE0DD082BEDDD184A222B916812688F
:100560000A60DABF0133DBB20023EEE7237A052B02
:10057000D1DD0A2BEFE7032BE8D8DFE803F0020D0B
:1005800016190E48FFF739FEBDE81040B0FA80F1A9
:100590000A484909FFF72ABE237A012BCADD074A18
:1005A0001D2B916812680A60DBE7237A032BF5E7BD
:1005B000237A052BF2E700BF88070020B002002055
:1005C000552370B58EB08DF804304E238DF805306C
:1005D00045238DF8063052238DF807303A23002248
:1005E000484C8DF8093094F808328DF80820DBB2B9
:1005F000A32B43D00CD8A12B44D066D8A02B3DD040
:10060000DD238DF80A3002238DF80830072320E01F
:10061000F02B33D0F12B12D0A42BF1D18DF80A306E
:100620000D238DF80B3003238DF80830364B1978E5
:1006300000295AD01A704FF4FA729A8108E08DF8A6
:100640000A30324B1B788DF80B3003238DF80830BD
:10065000082300210846CAB29A4201F1010146DA94
:100660000EAD2A4412F8346C62797040D2B2551C37
:10067000EDB22244657182F80761ECE78DF80A302B
:100680000D23E0E78DF80A300D238DF80B3003239E
:100690008DF8083001231E4D1E482B7094F8093246
:1006A0006B7094F80A3294F80B22AB701A4B1A70E4
:1006B00094F80C225A701B68AB8004F06EFAA860A4
:1006C0004FF4FA70FFF784FEC2E7A2238DF80A30D8
:1006D0000D238DF80B30032394F809228DF8083090
:1006E0000E4B5A70FFF756FEB2E70122A2E763797C
:1006F000DBB25A1CD2B262711C4484F807010EB0FE
:1007000070BD00BF0205002054070020F400002047
:100710009807002068070020A80700209C080020F8
:10072000F8B54C4E4C4D34463279F3789A4200F08D
:1007300090802B78062B5DD8DFE803F004121E2989
:10074000343F5E002379DBB25A1CD2B222712344BB
:10075000DB79552BE8D101232B7000236370E3E78D
:100760002379DBB25A1CD2B222712344DB794E2B9F
:100770003CD102232B70D7E72379DBB25A1CD2B2CB
:1007800022712344DB79452B30D10323F2E723790F
:10079000DBB25A1CD2B222712344DB79522B25D111
:1007A0000423E7E72379DBB25A1CD2B22344227137
:1007B000DA792A4B1A700523DCE72379DBB25A1C5D
:1007C000D2B222712344DB793A2B0FD106232B704E
:1007D000224B93F9003083F03602D2B262700122CC
:1007E000DBB284F807321E4B1A709DE72379013B78
:1007F000DBB223710023BDE7184991F90030012BCA
:1008000015DD174890F90020571C07702079224405
:100810002044C079C0B282F807022279D2B2501CBB
:10082000C0B220712244D279607842406270013BAC
:100830005BB2002B0B703FF777AF002362782B7011
:1008400023792344DB799A427FF46EAFFFF7B8FE39
:100850006AE7F8BD020500205007002001050020CE
:1008600000050020552370B58EB08DF804304E235E
:100870008DF8053045238DF8063052238DF807306A
:100880003A23A2288DF8093070D00BD8112834D023
:10089000A02855D0DD238DF80A30022307218DF8DA
:1008A000083037E0A3286BD0A428F3D10A234449A9
:1008B0008DF808304B68434A8DF80A00C3F30720CF
:1008C00013608DF80B308DF80C00C3F307401B0E3E
:1008D0008DF80E308B688DF80D001360C3F307227E
:1008E0008DF80F308DF81020C3F307421B0E8DF8E2
:1008F00011208DF812300F210CE0042309218DF80E
:100900000830314B8DF80A005A781B788DF80B208F
:100910008DF80C30002004462C4BC2B28A4200F104
:10092000010042DA0EAD2A4412F8346C5A79744050
:10093000D2B2551CEDB21A445D7182F80761ECE742
:100940000623234A8DF8083053888DF80A008DF865
:100950000B301B0A8DF80C3093881A4A8DF80D3035
:1009600013601B0A8DF80E300B21D3E70D238DF891
:100970000B3003238DF80A008DF808300821C9E7F1
:1009800006238DF80830134B0E4A5B688DF80A0079
:100990001360C3F307228DF80C20C3F307428DF8D0
:1009A0000B308DF80D201B0EDCE75A79D2B2511CAA
:1009B000C9B25971134483F807410EB070BD00BF2E
:1009C00054070020A8070020880700200205002007
:1009D0008C0800203809002010B5094C09482378FC
:1009E00023B104F0E3F80023237010BD04F0D1F824
:1009F000012360602370A320BDE81040FFF732BFE1
:100A00003809002030070020174B9A68174BB2F5C1
:100A10007A7F1FDBB2F5FA6F15DB00221A705A706D
:100A2000134BDA681B681360124BDA681B6813609B
:100A3000114BDA681B681360104BDA681B6813608F
:100A40001120FFF70FBF01221A700D4B1A70002200
:100A50005A70F5E7197831B95A780132D2B2032ABF
:100A6000F6D95970ECE77047AC07002088070020E2
:100A70006C03002088030020A4030020C003002092
:100A80009C08002038B5154C2378032B24D8DFE8C8
:100A900003F002070C1463780BB10323237038BDF5
:100AA0006378002BFBD10223F8E76578A5B90C48E1
:100AB00004F073F82570606038BD6378002BEDD0CA
:100AC00001230748237004F068F86368C01AA06027
:100AD000BDE83840FFF798BF0123DFE7AC070020EF
:100AE0006807002008B5094803F075FE68B1084B97
:100AF00008489A79D2B2511CC9B29971134493F83B
:100B00000711BDE8084004F08DBC08BDC0070020F7
:100B10000205002070080020C36810B504460BB120
:100B20009B689847204610BD38B505460446064BDD
:100B300045F8283B03F09DFF2846FFF7EDFF2046D0
:100B400004F084F8204638BD288C000810B504460F
:100B5000FFF7EAFF2046402104F019FF204610BDB0
:100B600010B50446024B0360FFF7DEFF204610BDC0
:100B70003C8C000808B5034653F8042B02B9036007
:100B800002689A4204D068220249034804F072FCC9
:100B9000184608BD8C800008AC80000808B50248E3
:100BA000FFF7E8FF08BD00BFF00B002008B50248C2
:100BB000FFF7E0FF08BD00BFF00B0020F8B50446CA
:100BC0000F460546074B084E44F8043B3046FFF7F6
:100BD000D1FF3946204600F08FFB3046FFF7CAFFB1
:100BE0002846F8BD70800008F00B002038B50D468F
:100BF00004461022002105F0DDFA2B682360014B2A
:100C0000E36038BD808000082DE9F04FB1488FB017
:100C100003F082FFB04803F07FFFB04A0EA91378BB
:100C20000AA86FF300031370AD4BAE4C41F8183DAA
:100C3000FFF7DCFF00220AA9AB4803F055FE0AA823
:100C4000FFF76AFFA94B0EA941F81C3D0AA8FFF760
:100C5000CDFF4CF2503200230AA9A54803F0ECFE68
:100C60000AA8FFF759FF0EA941F8204D0AA8FFF77F
:100C7000BDFF0AA99F4803F0CEFC0AA8FFF74CFF6E
:100C80000EA941F8244D0AA8FFF7B0FF0AA9994818
:100C900003F0E7FC0AA8FFF73FFF974B0EA941F8C6
:100CA000283D0AA8FFF7A2FF0AA9944803F0B3FC65
:100CB0000AA8FFF731FF924B0EA941F82C3D0AA874
:100CC000FFF794FF0AA98F4803F0A5FC0AA8FFF7D5
:100CD00023FF804803F061FFDFF868928A4FC9F86C
:100CE000100004F0E3FB4FF47A71884801F018FE1D
:100CF00004F0F2FB04F0DAFB4FF47A71844801F05F
:100D00000FFE04F0E9FB8348FFF703FB714803F093
:100D100044FF0123804EB8606E48337003F03DFFFE
:100D2000002528237D4CF0606A482572337403F057
:100D300034FFDFF81482DFF814B26570257060604C
:100D400088F80150FFF726FB00945C46614D284669
:100D500003F023FFF368C01A337C98420FD30023BB
:100D60002846B36003F019FFF0606D48FFF745FABD
:100D7000002800F0AD8001237370FFF783FE284642
:100D800003F00BFF009B5B68C01A632806DD284652
:100D900003F003FF009B5860FFF7AEFB284603F00B
:100DA000FCFEBB68C01ABB89984214DB284603F0DE
:100DB000F4FEB8605B48FFF7ACFA4FF0640AB0FB92
:100DC000FAF078805348FFF7A4FAB0FBFAF0B88045
:100DD000A020FFF747FD9BF80030E3B1284603F061
:100DE000DCFEDBF80830C01ABBF80430984212DB96
:100DF00000238BF800304C4BDA681B6813604B4BB8
:100E0000DA681B6813604A4BDA681B681360494B49
:100E1000DA681B681360284603F0BFFEDFF830A1D4
:100E2000DAF80C30C01ADAF8103098421BDB28468A
:100E300003F0B3FE404BCAF80C009A681B680EA979
:100E4000136001238AF800303C4B0AA841F8143D96
:100E5000FFF7CCFE3A480A2200230AA903F0ECFD72
:100E60000AA8FFF759FE284603F097FED9F810307C
:100E7000C01AB9F80C3098420CDB284603F08DFEFE
:100E8000C9F81000A420FFF7EDFC0023C9F80430D6
:100E9000C9F80830009B1B7833B1009B5B78012BAD
:100EA0005AD0022B00F0C680DFF8A8A09AF80420E0
:100EB0009AF803309A4201D0FFF732FC9AF80620E4
:100EC0009AF805309A423FF442AFFFF70BFE3EE737
:100ED000707052E76807002030070020A407002048
:100EE00055020008D9090008C00700202D0200089B
:100EF000A8080020E80800200D020008CC0200200D
:100F00001D0200081C0300208C0800204C04002057
:100F100068040020DC030020AC07002088070020C4
:100F200094020020140400206C0300208803002099
:100F3000A4030020C0030020A0040020E902000850
:100F4000C0040020540700209C08002098070020BF
:100F5000380900200205002040F2AA52DAF80410F5
:100F6000914235D9464A2846D168126801930A60F1
:100F7000444AD16812680A60434AD16812680A601C
:100F8000424AD16812680A6003F007FED8F80420CC
:100F9000801AB8F80820904286DB284603F0FDFD51
:100FA00098F90120C8F80400592A394909DD019B44
:100FB0000B700B7853B12D3A88F80120FFF7EAF94E
:100FC00072E712F1590FF4DA0023F1E72D32F3E75B
:100FD000DAF80420B2F5DC7F24D998F90120002A40
:100FE0000DDA4FF4AF706370A370FFF7F1F91023BF
:100FF00063704FF4AF70A370FFF7EAF954E70DD0B8
:101000004FF0100A4FF4AF706370019384F802A0A0
:10101000FFF7DEF984F801A0019BEAE71123637072
:101020001023E6E7DAF80420B2F59F7F07D81122F3
:101030006270DEE7DAF80430B3F5CB7F10D2104BE4
:10104000DA681B6813600F4BDA681B6813600E4B7D
:10105000DA681B6813600D4BDA681B68136023E7BE
:10106000BB88642B05DD012363701023A37000206F
:10107000C2E77B88642BD1DD10236370F6E700BFE5
:101080006C03002088030020A4030020C00300207C
:101090009407002010B50446FFF7FEF82046CC2147
:1010A00004F075FC204610BDA0F1B000F2E7A0F1FD
:1010B000B400EFE710B50446FFF752FD204640218B
:1010C00004F065FC204610BDF8B51C27624D634C4A
:1010D0002D216348FFF710F9624E4FF4E1330A22E5
:1010E0000921284603F01CFB22465F49284600F0F0
:1010F0003BFF5E4D13213046FFF71CF930465C4E36
:101100002246294600F030FF08213046FFF712F949
:101110003046584E2246294600F026FF142130461C
:10112000FFF708F92946544D2246304600F01CFFCF
:10113000524E01212846FFF741FD2846504D2246D8
:10114000314600F011FF00212846FFF737FD284601
:101150004C4D3146224600F007FF3A460021284612
:1011600005F028F82846042103F0A0FD1D2146487B
:10117000FFF7C2F815214548FFF7BEF8162144488D
:10118000FFF7BAF8434D1E214348FFF7B5F81F217A
:101190004248FFF7B1F8424E284603F018FD2846B2
:1011A000404D3146224600F0DFFE284603F00FFD99
:1011B00028463D4D3146224600F0D6FE2846FFF730
:1011C000D5F82846394D2246394900F0CDFE28464B
:1011D000FFF7CCF8374E384B2246384928462B606B
:1011E00000F0C2FE364D3946304603F0B9F93046BC
:1011F000344E2246294600F0B7FE1821304603F04F
:10120000AFF93046304E2246294600F0ADFE192196
:10121000304603F0A5F922462946304600F0A4FEE8
:101220004FF4C8710023294A4FF4FA7011816421E8
:101230001370274A1370137253601161254A13709B
:10124000254A1370536090819360244A13709181F2
:10125000234A1370F8BD00BFC0070020F000002033
:10126000B00200208404002099020008CD0200088A
:101270004C04002068040020DC0300200B0200085E
:101280001404002094020020A00400206C0300201D
:101290008803002068070020A4030020C00300206A
:1012A000F94A000830070020A8080020C0040020E8
:1012B000290B0008E80800203C8C0008610B00089E
:1012C000B9450008CC0200201C0300209C08002027
:1012D0003809002098070020540700208C080020BF
:1012E0008807002008B500F07BF8C0F3032343EA29
:1012F000001080B208BD000070B5A1F1F0039BB2F0
:101300000F2B86B004460D4615D92E49284603F00A
:101310002BFD2C492060284603F048FD294906464C
:10132000284603F0D9FC236801330FD13C2226491B
:10133000264804F09FF82649284603F015FD244965
:101340002060284603F032FD0646ECE7731C03D10B
:101350003D221D491F48ECE72586C6F304361E4D85
:1013600084F83260AB69012243F40073AB61AB696E
:10137000204603F400730193019B0023A362636082
:10138000A360E3606361A3614FF460232261E361C2
:1013900002F022F810B1114804F0A0F96B6803F4D0
:1013A0004043B3F5004F0AD0022302934FF40043A9
:1013B00002A8049302F0B4FB204602F08DF806B0B8
:1013C00070BD00BFC080000848830008B0830008DB
:1013D00074810008DA83000800100240F3830008DB
:1013E0001FB5002301220193042390F83210044614
:1013F0000292039311293FD8DFE801F00A091C1F6C
:101400001D21232527292B2D2F313335373C0192E0
:1014100001A9204601F0A0FE204601F059FF0A2153
:10142000204601F0F7FD38BB204601F091FE80B266
:1014300004B010BD02230193EAE70323FBE7052371
:10144000F9E70623F7E70723F5E70823F3E709237E
:10145000F1E70A23EFE70B23EDE70C23EBE70D237E
:10146000E9E70E23E7E70F23E5E7102301930723BE
:101470000393CDE71123F9E70020D9E7364B70B588
:101480005A69D2072AD59868344E99683040B042DC
:1014900008BF0126324D9A6801EA050108BF9E6027
:1014A000A94208BF4FF480752E4C2B4B02EA040270
:1014B00008BF9D60A24204BF4FF480349C60274B5C
:1014C000984205D0264B994202D0264B9A4205D12C
:1014D000254B264A1B680121106898471E4CE2687C
:1014E0006369960707D09D0705D51F4B1F4A1B68E8
:1014F000002110689847A169626963698C0709D562
:10150000900507D5190405D5174B184A1B68052106
:1015100010689847104A9569546915F0040504F459
:101520008064526908D03CB1120405D50E4B0F4AB5
:101530001B68072110689847074B5B6955B14CB190
:101540001B0407D5BDE87040074B084A1B68022101
:101550001068184770BD00BF00640040010000041F
:101560000001000800000110500900204C09002073
:10157000FFF784BFFFF782BF102300F009B82023D4
:1015800000F006B8302300F003B8402300F000B8A4
:10159000EFF30880042172460A4201D0EFF309807C
:1015A0009C46244B196802680A60043142680A604C
:1015B000043182680A600431C2680A600431F0C1F3
:1015C00047460F6004314F460F60043157460F60A5
:1015D00004315F460F60043102690A6008314269D4
:1015E0000A60043182690A600431C2690A60043108
:1015F000034620334FF40076324200D00433754660
:101600001026354200D148330C46103C2360EFF3DE
:1016100009820A600431EFF308820A6004317246DD
:101620000A600431EFF314820A606046014900F059
:1016300097FBFEE7A885000830B50D0E91FAA1F4DE
:10164000B4FA84F491FAA1F10F23B1FA81F1A40064
:1016500003FA04F44359890023EA040302FA01F16E
:101660001943415130BD00007FB5224B04283DD8BD
:10167000DFE800F003101B2631009A691E4842F093
:1016800004029A619B6903F004030193019B07B074
:101690005DF804FB9A69194842F008029A619B6957
:1016A00003F008030293029BF1E79A69144842F0A1
:1016B00010029A619B6903F010030393039BE6E712
:1016C0009A69104842F020029A619B6903F0200356
:1016D0000493049BDBE79A690B4842F040029A614D
:1016E0009B6903F040030593059BD0E7074803F08F
:1016F000F5FF00BF0010024000080140000C01404F
:101700000010014000140140001801400984000845
:10171000431C10B5044604D176220649064803F05E
:10172000A9FE002100F046FF012004F00F04A040B4
:1017300010BD00BF2A8400087C84000870B50446F0
:101740004B1C0E46218218D0C1F30310FFF78CFF0B
:1017500005463046FFF7DCFF238A084A03F00F03F3
:1017600052F823306561A36105F10803636005F158
:10177000100314352060A360E56070BD8888000800
:10178000B0F9100001F016B821B90822816940694A
:10179000FFF752BF0122F9E74C232DE9F041002564
:1017A0004FF0010E43431F4F1A1D1F4C3A441F4474
:1017B0008D4203D101461D4803F090FF3B680EFAAD
:1017C00005F61E422AD0136B66690EFA03F3334204
:1017D00024D0D2F818C063611668FEB1E26833EA1B
:1017E000020203D1A26833EA020213D1A26833EAEB
:1017F000020203D1E26833EA02020DD1DCF80820CC
:10180000134214BF01210221094B3046BDE8F041CB
:101810001B6818470221F7E70121F5E7013504327B
:10182000C6E700BF5409002000040140B684000848
:10183000680B002006210846FFF7AEBF05210846C9
:10184000FFF7AABF01210420FFF7A6BF0121032053
:10185000FFF7A2BF01210220FFF79EBF012108462A
:10186000FFF79ABF01210020FFF796BF012910B5AD
:1018700018D11B4C838952B1A26803F00F03994021
:101880001143A160836843F00103836010BDA26827
:1018900003F00F03994022EA0101A160836823F05D
:1018A0000103F2E70229F1D10D4983895AB10122DE
:1018B000CC6803F00F0302FA03F32343CB60836881
:1018C00043F00203E1E70124CA6803F00F0304FABE
:1018D00003F322EA0303CB60836823F00203D4E717
:1018E000000401400F22B0F90C3070B599B201F03C
:1018F0000F0606F00C0404F1804404F5803401F076
:101900000301A56889008A4025EA02050122C3F384
:1019100003138B402B43A3600E4BB2401968114355
:1019200019608468E50742BF996811439960A1076F
:1019300042BFD9680A43DA6090F90030002B08DB17
:101940000122590903F01F0302FA03F3024A42F885
:10195000213070BD0004014000E100E02DE9F04FAE
:1019600092464A1C85B080460D4661D0314A324FBE
:10197000916905F00F0941F0010191619269C5F388
:10198000031002F001020392039A0C2202FB097277
:101990005468062C49D8DFE804F0043C3E40424439
:1019A0004600264E0193FFF75FFE0C2101FB09F173
:1019B00057F801E07A184C21A8F80C5001254FF097
:1019C000000B61431E4F92F908207B5805FA0EF573
:1019D0001D43C8F8044088F80020C8F808B07D50BE
:1019E000132101FB04E4019B07EB84014B60154BC1
:1019F000C861C3F800A0144BC1F834909B68103242
:101A0000404643F82260FFF76DFF584605B0BDE839
:101A1000F08F0E4EC6E70E4EC4E70E4EC2E70E4ED6
:101A2000C0E70E4EBEE70E4EBCE70E4803F056FE72
:101A30000846EBE700100240E08400086518000843
:101A400054090020680B002000ED00E05D1800083C
:101A5000551800084D180008451800083D180008E2
:101A6000351800088F84000801210C22838970B585
:101A700003F00F035A4301FA03F3DB431A4CA51892
:101A8000A4581A4A6E68956801FA04F41D409560DE
:101A9000D5681D40D56015682B4013604C237343F7
:101AA000134AD358A3431ED190F90030002B0CDB0E
:101AB0005A0903F01F03994002F120030D4A42F82E
:101AC0002310BFF34F8FBFF36F8F90F90030002BBF
:101AD00009DB01215A0903F01F0301FA03F3054949
:101AE000603241F8223070BDE084000800040140FB
:101AF0005409002000E100E083894C2103F00F022B
:101B00000C2370B4012453430E4AD65843680E4A3E
:101B1000594304FA06F5545824EA05045450132195
:101B200001FB0363002102EB830461609C1D0C3305
:101B300002EB840402EB83036160596070BCFFF721
:101B400093BF00BFE08400085409002008B502F0EC
:101B500057FC002008BD0000104B10B51B68104C4E
:101B600063B103F05DFB03F046FB236818440023D8
:101B700023604FF47A73B0FBF3F010BD02F0A6FCC3
:101B800023682060C31A4FF47A70064A9BB211682A
:101B90000B441360B3FBF0F010BD00BF740B0020CA
:101BA000700B00206C0B002000B589B003F07EFCA8
:101BB000052101A803F08DF8104E114D0424019A5F
:101BC000039B30461A6003F001FE019A049B3046E5
:101BD0001A6003F0FBFD013CF1D10424019A039B40
:101BE00028461A6003F0F2FD019A049B28461A6009
:101BF00003F0ECFD013CF1D1E0E700BFF049020049
:101C0000801A060010B5044603F050FC204604F08C
:101C1000C6FF21460246022000F046FABDE8104009
:101C200003F05ABC10B5A2B00B460246842101A8AD
:101C300004F0FCFF8328044605D9052205490DF16F
:101C4000830004F0ACFA002C02DD01A8FFF7DAFFF4
:101C500022B010BDA08500080FB407B504A951F843
:101C6000040B0191FFF7DEFF03B05DF804EB04B055
:101C700070470000F0B52C4C002526462B4F85B050
:101C800054F82520294638460135FFF7E5FF0D2D8C
:101C9000F6D1A36C04F134010293636C24480193E0
:101CA000236C244C00930EC9FFF7D6FF216822480D
:101CB000FFF7D2FFE16AA26AA36AA06A256BE76B0D
:101CC000000C01950090C3F307230297D2B21B4882
:101CD000FFF7C2FFA36A1D0603D5616B1848FFF723
:101CE000BBFFA36A180403D5A16B1648FFF7B4FF26
:101CF000F36C190712D51448FFF7AEFF336DDA07FE
:101D00000FD51248FFF7A8FFF36C5B074CBF1048D4
:101D1000104805B0BDE8F040FFF79EBF0E48FFF742
:101D20009BFF0E48EEE700BFE40C00203C86000855
:101D30004A86000800ED00E099860008A7860008A2
:101D4000F68600080487000812870008218700082B
:101D5000518700085D870008418700082E8700082A
:101D600013B504461548FFF777FF302C17D0402CE9
:101D70001AD0202C1DD11248FFF76EFF114C1248CB
:101D8000FFF76AFFFFF776FF1048FFF765FF0023B4
:101D90000F4A0093D26B0F49204603F0BFFC0E4858
:101DA000FFF75AFF0D4CEAE70D48FFF755FF0D4CC2
:101DB000E5E70D48FFF750FF0C4CE0E7AC85000865
:101DC000D58500083E01FF80028600080D860008C8
:101DD000E40C00202C860008E48500083F01FF8009
:101DE000ED8500084001FF80F88500083D01FF8077
:101DF00008B502F0BFFA01F0F9F802F0ADFA02F00E
:101E0000B9FA0122014B1A6008BD00BF740B002013
:101E100000207047036801221B6900211847002237
:101E2000036811461B69184703681B691847036854
:101E30009B69184703689B6A184700290CBF6FF01D
:101E4000180000207047012070471120704770472C
:101E50006FF01C0070476FF015007047012070474D
:101E60000020704770470000F8B515460C46064E36
:101E70008F18BC4205D014F8011B304601F084F8DD
:101E8000F7E72846F8BD00BF380D002038B58DB201
:101E900015F0010405D0084800F08AFE041C18BFA4
:101EA0000124EB0605D5044800F098FE08B144F083
:101EB0001004204638BD00BF380D002010B5044680
:101EC00004F048F9204610BD10B50C462AB104486C
:101ED00001F044F82070012010BD104610BD00BF75
:101EE000380D002038B51D46074B04460360074BEC
:101EF0001B6833B9064800F0CBFE2946044800F0C1
:101F0000A1FE204638BD00BF74870008DC0B00200E
:101F1000380D0020002070470020704708B50120D0
:101F200000F096F90C4A10B513681844EFF30881D5
:101F3000884205D30C22094B4FF0FF301A6010BDC8
:101F400007490C6824B10749096821448842F1D245
:101F50001060184610BD00BFF8010020900E002050
:101F6000940B0020980B002001207047012070473F
:101F7000002104F011BD7047704708B5FFF7FBFF63
:101F800008BD08B5FFF7F8FF08BD000008B50378E5
:101F900003F00302012A0BD02AB140F28C5205490A
:101FA000054803F067FA43F002030370012008BDFF
:101FB000002008BDBC8700080B88000808B503781E
:101FC00003F00302022A05D040F294520449054866
:101FD00003F050FA23F0030343F00103037008BD3C
:101FE000BC870008318800083F2870B504462FDC04
:101FF000184D55F820305A1C13D1022811DCFFF778
:102000008BFF034658B92046FFF784FF034630B9DB
:10201000114E3378BFF35B8FDB0704D50F4B45F8C8
:102020002430184670BD3046FFF7B0FF0028F5D0C9
:102030004FF41653032202210848FFF753FF30469E
:10204000FFF7BCFF064A07490448FFF78DFFE5E7A5
:102050000023E6E7F8000020780B0020900B00201A
:10206000F0000020651E000838B505460024FFF783
:10207000BBFF0B4B43F8254030B903F08BFC092321
:1020800003604FF0FF3038BD03685B699847051E59
:1020900004DA03F07FFC6D420560F2E7204638BDAC
:1020A000F8000020FFF7E0BF38B50C461546FFF7F3
:1020B0009BFF38B903F06EFC092303604FF0FF3437
:1020C000204638BD03682146DB682A469847041E2F
:1020D000F6DA03F05FFC64420460EFE708B5131E14
:1020E00006DA03F057FC162303604FF0FF3008BDFB
:1020F00004D0FFF7D9FF40EAE07008BD184608BDDC
:1021000038B50C461546FFF76FFF38B903F042FCAF
:10211000092303604FF0FF34204638BD0368214691
:102120009B682A469847041EF6DA03F033FC6442A3
:102130000460EFE7002A08B503DBBDE80840FFF7BD
:10214000DFBF03F027FC162303604FF0FF3008BD0C
:1021500010B5FFF749FF044628B903F01BFC09231B
:102160000360204610BD0368DB699847041EF8DA57
:1021700003F010FC644204600024F2E71FB504225F
:102180000C4640230DEB020101900DF109008DF882
:10219000083004F004F8214602A803F041FE04468A
:1021A00030B10198FFF7D4FF10B12046FFF7E0FEF1
:1021B000204604B010BDFFF7CBBF38B50C4615461E
:1021C000FFF712FF38B903F0E5FB092303604FF076
:1021D000FF34204638BD036821461B692A469847CC
:1021E000041EF6DA03F0D6FB64420460EFE7FFF763
:1021F000E4BF10B5FFF7F8FE30B903F0CBFB0923BD
:1022000003604FF0FF3010BD03689B699847041EC0
:1022100004DA03F0BFFB64420460F2E7002010BD63
:1022200005460A4C08B52368986803F0C5FC236886
:10223000D86803F0C1FC0120FFF7DBFF0220FFF7A5
:10224000D8FF0DB1FFF7B0FCFEE700BF040200208D
:1022500008B5FFF7E5FF38B50D46FFF7C5FE0446A4
:1022600030B903F097FB092303604FF0FF3038BD0E
:102270000368DB699847002814BF4FF400534FF4FC
:1022800000436B60236820469B6A984728610020C2
:1022900038BDFFF7E0BF03F05DBF000010B5044696
:1022A0000948FEF767FC00231946084A52F8230044
:1022B000A04208BF42F823100133402BF6D1024858
:1022C000FEF758FC10BD00BF800B0020F800002076
:1022D00010B503240E48FEF74DFC0E4B53F8242096
:1022E0006AB10134402CF9D103F054FB1823036088
:1022F0000748FEF73FFC4FF0FF34204610BD4FF07B
:10230000FF32034843F82420FEF734FCF5E700BF12
:10231000800B0020F800002010B50446FFF7D8FF1E
:102320000028A4BF014B43F8204010BDF800002056
:1023300070B506460C46FFF7EFFF054690B1214603
:10234000FFF71CFF044630B9074B53F8252096428F
:1023500003D143F82500204670BD03F01BFB092381
:102360000360F8E70446F6E7F80000200EB42DE914
:10237000F04185B00546FFF7ABFF041E13DB0023D9
:10238000294602A8019302F061FF02A802F0AEFF05
:102390001B4D064668B903F0FDFA1323036045F8A8
:1023A00024604FF0FF34204605B0BDE8F04103B093
:1023B000704702A802F088FF074602A837B102F072
:1023C0008CFF0190019B45F82430ECE702F073FF8D
:1023D00006460028DFD0036802A8D3F8088002F080
:1023E0005FFF0B9B024601A93046C0470646002806
:1023F000E8D003F0CFFA7642066045F82470D0E7C3
:10240000F800002073B50E461849054604F0BDFBE0
:10241000044620B9FFF7E8FD204602B070BD14491C
:10242000284604F0B2FB20B90120FFF7DDFD0124AE
:10243000F2E71049284604F0A8FB20B90220FFF774
:10244000D3FD0224E8E72B78402B07D10422691C36
:102450000DEB020003F0A3FE019CDDE726F4004132
:102460002846FFF783FF0446D6E700BF78880008B8
:102470007F8800087088000870477047074B10B5C8
:102480009A6807490748043A52F8044F41F8044F44
:102490008142F9D14FF000529A6010BD00ED00E08A
:1024A000FCFFFF1FE800002008B5FFF7E7FFFFF77C
:1024B0009FFCFFF7E2FF08BD08B5FFF7DDFFBDE8B1
:1024C0000840FEF7A1BB30B50D0E91FAA1F4B4FAA5
:1024D00084F491FAA1F10F23B1FA81F1A40003FA77
:1024E00004F44359890023EA040302FA01F1194371
:1024F000415130BD30B50D0E91FAA1F4B4FA84F417
:1025000091FAA1F10423B1FA81F1A40003FA04F4D1
:102510004359890023EA040302FA01F119434151A6
:1025200030BD10B591FAA1F2B2FA82F291FAA1F39C
:1025300094000F22B3FA83F3090E4058A2401040D2
:102540009B00D84010BD70B5164605460C46FFF7F7
:10255000E8FF012E0AD0022E1CD0082829D12146DE
:102560002846BDE870400422FFF7ADBF042804D11F
:10257000082221462846FFF7A6FFEB68240A94FAB2
:10258000A4F223EA0404B2FA82F2012393401C432A
:10259000EC6070BD042804D1082221462846FFF7CC
:1025A00092FFEB68240A23EA040394FAA4F4EB6094
:1025B00070BD70BDB0F1FF3F2DE9F34782468946FB
:1025C00004D13E227549764802F054FF1FFA80F884
:1025D000744B08F00F02C0F3031001F0070553F825
:1025E0002240FFF741F8012D06466F4F40F0C780AB
:1025F000210E94FAA4F3B3FA83F394FAA4F04FF003
:10260000030EB0FA80F072589B000EFA03F322EA30
:1026100003032A4680000EFA00FE43EA0E037350BD
:1026200021463046013DFFF74EFF012D07D819F036
:10263000080218BF042221463046FFF75BFFC9F3AA
:10264000011221463046FFF77EFFBB6943F00103CC
:10265000BB61BB6903F001030193019BA8F10D036A
:10266000012B79D8514A536823F0E06343F080632B
:102670005360A8F11308B8F1010F77D86FE0BB6978
:10268000C9F3032243F00103BB61BB6903F00103FB
:102690000093009B82B1531E092B0DD8DFE803F095
:1026A000050E151C232C353E454D404A536843F01A
:1026B000E06343F0010353600922B1E73B4A5368EA
:1026C00043F0E06343F00203F5E7384A536843F010
:1026D000E06343F00403EEE7344A536843F0E063F9
:1026E00043F00803E7E7314A536823F0300343F02F
:1026F000E06343F01003DEE72C4A536823F0C00385
:1027000043F0E06343F04003D5E7284A536823F4DD
:10271000406343F0E06343F40063CCE7234A53682B
:1027200043F0E06343F44073C5E720494B6843F04E
:10273000E06343F440634B6072E71C4A536823F440
:10274000C04343F0E06343F48043B4E76722134996
:10275000174839E7002263E7BAF10F0F89D1134A0E
:10276000536823F0E06343F00073536002B0BDE8A8
:10277000F087012221463046FFF7A5FE57E7032DDB
:10278000E4D801A353F825F099270008732700081F
:102790007F26000855270008082241E7C88800085E
:1027A0007C84000888880008001002400000014076
:1027B000A78D0008431C70B50E4604D188221A4923
:1027C0001A4802F057FE1A4B00F00F02C0F3031034
:1027D00053F82240FEF748FF21460546FFF7A1FEC9
:1027E00020F00800012807D1F31E022B0DD8042287
:1027F00021462846FFF77EFE032E0BD101222146FB
:102800002846BDE87040FFF79EBE002221462846BC
:10281000FFF770FE012EF1D0052E01D0022E01D15E
:102820000222ECE70022EAE7C88800087C8400085E
:102830008888000830B50C460268284B89B00546E8
:102840001A600021204605F063F950BB4FF07E511D
:10285000204605F07BF908B14FF07E54E86804F09B
:1028600061FF214604F0B6FF04F032FE1C4B00224B
:1028700004F0D0FC04F080FE60230193AB68286173
:10288000B0FBF3F00023039305930693049307939F
:102890002B7D0290013B032B1BD8DFE803F01204D1
:1028A0000E100024DAE70424224601A90B4801F0A7
:1028B00043FB40B10B4802F011FF0824F4E70C245D
:1028C000F2E70024F0E76B7D214604481BB101F0DC
:1028D000EFFB09B030BD01F0C7FBFAE79C0B00200D
:1028E0000000E03F9989000838B5C46894B10069D8
:1028F00004F018FF0546204604F014FF0146284660
:1029000005F01CF84FF07E51044605F01FF918B988
:10291000204638BD0024FBE74FF07E54F8E7000066
:1029200000232DE9F04FD0F80080494C87B0009388
:1029300005460E46C4F80080FFF7D6FF41F211139A
:10294000D8F8202083461A420BD140F24443D8F8ED
:1029500020201A4202BFD8F8003023F00103C8F843
:10296000003001A8694601F0BDF800222868394B03
:10297000D1B253F8317001328742F9D110B93648DB
:1029800002F0ACFE03EBC1031B79002B3ED101F03A
:1029900089F80090049801230099AB602F4B002820
:1029A00039D1B1FBF3F3013B63602C4B4FEA410893
:1029B000B1FBF3FE002106F1FF3CB8FBF3F88A46B9
:1029C00063464FF6FE796268C4F80CC0B3F5803FE9
:1029D00025D2B2F5803F22D2BAF1000F00D062605A
:1029E00001B1E36000231A482361A36001F05EFA9D
:1029F00030BBEE6059462846FFF71CFF226813687B
:102A000043F00103136007B0BDE8F08F01F05AF8FE
:102A100000900598BFE74A00B2FBF3F3C3E7AB6849
:102A20005B00AB6070B90EFB03F2BCFBF3F34B45EC
:102A300002F1FF3209D8B2F5803F06D36260E3604D
:102A400007489DE708FB03F2EFE701218A46BDE74F
:102A50009C0B0020B08900088489000840420F00C8
:102A60009989000830B50D46044685B0324928469C
:102A700002F07AF92060013004D12E222F4930482B
:102A800002F0F8FC2C49284602F090F9431C03D1CF
:102A900032222A492B48F3E7C0F3043323752A4A2C
:102AA0002368C0F34040934260751AD1274B9A695E
:102AB00042F400629A619B6903F400630093009BF7
:102AC00028461D4902F008F90023E3602361012331
:102AD000A580A36044F620612046FFF721FF05B0E2
:102AE00030BDB3F1804F0BD103F50433DA6942F006
:102AF0000102DA61DB6903F001030193019BDFE767
:102B0000134A93420AD1114BDA6942F00202DA61A8
:102B1000DB6903F002030293029BD1E70D4A934263
:102B2000CED10A4BDA6942F00402DA61DB6903F0C4
:102B300004030393039BC3E79881000818890008E6
:102B40006C890008DA830008002C01400010024064
:102B500000040040000800404FF47A735943FFF727
:102B6000DFBE38B50446084604F0E0FD0546E068DF
:102B700004F0D8FD0146284604F0E0FE0146204658
:102B8000BDE83840FFF756BE0FB407B5064B05AA9F
:102B90001B680649D868019203F052FC03B05DF847
:102BA00004EB04B0704700BF04020020D88900087D
:102BB0004368094A9B01D35882B01A68120706D5A8
:102BC000002201921A6801925A680192019A1868CB
:102BD000C0F3401002B07047840D00204368034AE0
:102BE0009B01D3581868C0F3C0107047840D0020B3
:102BF000426810B412490468920154505318826814
:102C00005A60C2689A600269DA6042691A61026AAF
:102C10009A610022DA84DA619A84DA859A85B0F9B9
:102C20001A20013205D108225A61184610BC01F061
:102C3000F0BAB0F9182001320CBF04220C22F3E7DD
:102C4000840D002010B581600C46FFF7D1FF28B13C
:102C50002146BDE810400248FFF796BF10BD00BFF7
:102C6000D8890008094B98420BD0A3F574439842C9
:102C700009D003F5806398420CBF02204FF0FF306B
:102C80007047002070470120704700BF00380140A6
:102C9000F0B50E4685B0044643493046154602F06D
:102CA00063F842490746284602F05EF80146384676
:102CB00002F036F82060013004D13D223C493D4805
:102CC00002F0D8FB022E0AD0032D08D0364902208C
:102CD00002F04AF887421BD1374802F0FFFC012777
:102CE0002068364B984215D103F558439A6942F44F
:102CF00080429A619B6903F480430193019BFFF733
:102D0000B1FF0028606023DAA42229492C48D7E7C4
:102D10000027E5E72B4B98420BD103F5E633DA6940
:102D200042F40032DA61DB6903F400330293029B60
:102D3000E5E7254B9842E2D103F5E433DA6942F442
:102D40008022DA61DB6903F480230393039BD6E7D7
:102D50001549304601F0C0FF1449284601F0BCFF78
:102D6000721C03D001213046FFF724FD6B1C03D0F9
:102D700001212846FFF71EFD4FF41653A3600023E0
:102D80002683E36023616361236265832046FFF746
:102D90002FFF3FB101220D4B21461A600C484C22F7
:102DA00003F0FDF905B0F0BD00830008B88200080B
:102DB000028A0008568A0008728A0008003801401A
:102DC000A78A00080044004000480040DC0B0020B7
:102DD000380D0020002808DB0123420900F01F0005
:102DE00003FA00F0014B43F82200704700E100E0D5
:102DF00000280DDB0122430900F01F0002FA00F059
:102E0000044A203342F82300BFF34F8FBFF36F8F84
:102E1000704700BF00E100E0F7B5FFF723FF071E92
:102E200026DB144E56F8270010B3134CBD0163592E
:102E30001A68120606D5DB68190603D50F4B012167
:102E40001B68984763591A68920608D5DB6898068C
:102E500005D50A4B00211B6856F82700984763598F
:102E60001A68110704D55A69D20744BF5B680193F9
:102E700003B0F0BDE40B0020840D0020E00B002027
:102E80000148FFF7C9BF00BF004800400148FFF7F5
:102E9000C3BF00BF004400400148FFF7BDBF00BFF3
:102EA00000380140034B19604168034B43F821206F
:102EB000704700BFE00B0020E40B002030B409C8CD
:102EC0001E4CA04213D125201D4C1E4D9B01FAB172
:102ED000EA58D368C9B943F02003D3601A4B00F114
:102EE00010029B6843F8224030BCFFF773BF174CB9
:102EF000A04202D1164C2620E7E7164CA04213BF91
:102F00000024154C27202046DFE743F08003E4E748
:102F1000EB58DA6849B922F02002DA60DB6813F076
:102F2000800F09D130BCFFF763BF22F08002DA6066
:102F3000DB6813F0200FF4E730BC70470038014025
:102F4000992E0008840D002000ED00E000440040B0
:102F50008D2E000800480040812E000838B5054637
:102F600044682846FFF724FE0028FAD0054AA3014A
:102F7000D358E968586809B9C0B238BDC0F3080031
:102F800038BD00BF840D002070B506460C4645686C
:102F90003046FFF723FE0028FAD0054AF168AB015E
:102FA000D35811B9E4B25C6070BDC4F30804FAE709
:102FB000840D002008488546002103E0074B5B583C
:102FC000435004310648074B42189A42F6D301F0A9
:102FD00063F9FDF7D1F8FEE7005000207492000875
:102FE000F000002078020020FEE77047074A08B58D
:102FF0001368032043F01003136000F0D5FA0F208C
:10300000FEF7A4FDFFF7F1FF002008BD00200240FD
:1030100070470000F7B5002604460D460196FEF7FE
:103020009BFD236807469A68D20508D50120A36A4C
:1030300084F8246043F02003A36203B0F0BD5A6813
:10304000D60503D4DB6A13F4700F3BD03A4B022051
:103050001E6800F0DDFD2368384A1969B6FBF0F000
:103060001142374A4FD1DE6836490E424BD11969B9
:10307000114259D1DA68344B1A4214BF2923142360
:1030800000FB03F6019B9E4220D96B1C05D05DB16D
:10309000FEF762FDC01B854206D3019B01330193FD
:1030A000F0E7681C0FD045B9A36A032043F004037E
:1030B000A362002384F82430BFE7FEF74DFDC01B58
:1030C0008542F1D3226813689907EAD56FF012039D
:1030D00022681360A36A43F40073A362936803F445
:1030E0006023B3F5602F25D1E3681BBBA36A23F4EB
:1030F0008073A362A06A10F480501BD1A36A43F0CE
:103100000103A36299E71969114203D1D9680E4AF4
:1031100011420BD019690D4A114209D1DB681342E3
:1031200014BFFC235423ABE72923A9E75423A7E7C3
:10313000FC23A5E7002080E7FC010020244992241D
:103140009224491224499200922449004992240071
:103150000368D86C70470000002373B5019390F8A2
:103160002430012B74D001234D6880F82430062DC3
:1031700002684FEA85030C6825D82B441F25566B3F
:10318000053B9D4026EA050504FA03F32B435363F0
:10319000092C4FEA44038D682FD907262344D168B0
:1031A0001E3B9E4021EA060105FA03F30B43D36060
:1031B000A4F11003012B2BD90023002280F8242036
:1031C000184602B070BD0C2D0BD82B441F25166B72
:1031D000233B9D4026EA050504FA03F32B431363C2
:1031E000D6E72B441F25D66A413B9D4026EA0505BC
:1031F00004FA03F32B43D362CAE707261169234479
:103200009E4021EA060105FA03F30B431361CFE761
:10321000104B9A4216D193681B02CDD49368102CA0
:1032200043F400039360C7D10B4B0C4A1B68B3FBFC
:10323000F2F20A2353430193019B002BBCD0019B64
:10324000013BF8E7836A43F0200383620123B4E77C
:103250000223B5E700240140FC01002040420F009A
:10326000002373B50193036804469A68D20702D518
:10327000002002B070BD9A6842F001029A60124BC1
:10328000124A1B68B3FBF2F30193019BC3B9FEF72B
:1032900063FC064623689D6815F00105E8D1FEF73A
:1032A0005BFC801B0228F5D9A36A84F8245043F004
:1032B0001003A362E36A012043F00103E362D8E74D
:1032C000019B013BE0E700BFFC01002040420F00F2
:1032D00090F8243010B5012B044654D0012380F817
:1032E0002430FFF7BDFF002849D1A36A274A23F401
:1032F000407323F0010343F48073A3622368934275
:1033000004D123494A6812F4702F2ED1A26A22F404
:103310008012A2625A68520541BFA26A22F440524A
:1033200042F48052A262A26A12F480521CBFE26A86
:1033300022F00602E262002284F824206FF00202EA
:103340001A609A6802F46022B2F5602F13D10F4A16
:10335000934205D1A2F58062526812F4702F0AD10F
:103360009A6842F4A0029A6010BDA26A42F48012E8
:10337000A2624A68CFE79A6842F48012F3E700231A
:1033800084F8243010BD022010BD00BF0028014089
:103390000024014038B5036804469A68D20701D476
:1033A000002038BD9A6822F001029A60FEF7D4FB33
:1033B000054623689B68DB07F2D5FEF7CDFB401B73
:1033C0000228F6D9A36A012043F01003A362E36A3E
:1033D00043F00103E36238BD70B50446002871D0A4
:1033E000836A23B9C36280F82430FFF711FE2046B8
:1033F000FFF7D0FFA36A13F0100FA36A64D100286F
:1034000062D1E16923F48853626823F0020343F038
:1034100002030A43A168A362E368B1F5807F42EA30
:10342000430238D0012914BF06464FF480766569FF
:10343000012D07D1002B30D1A369013B46EA43356A
:1034400045F400662368B1F5807F5D6825F4694521
:1034500045EA06055D609E681D4D05EA060545EADC
:1034600002059D6001D0012920D12169013909059A
:10347000DD6A25F470052943D9629968154B0B4024
:103480009A4215D10023E362A36A23F0030343F0B9
:103490000103A36270BD0E46C9E7A36A43F020038F
:1034A000A362E36A43F00103E362CBE70021DFE7B5
:1034B000A36A23F0120343F01003A362E36A43F00C
:1034C0000103E362012070BD43F01003A362F9E73A
:1034D000FDF7E1FFFE0E1FFF002373B5019390F887
:1034E00024300446012B5AD0012380F82430FFF702
:1034F00051FF0546002832D1A36A022023F48853E5
:1035000023F0020343F00203A362264B1E6800F07F
:103510007FFBB6FBF0F040000190019B1BBB2046F7
:10352000FFF79EFE2268936843F008039360FEF75E
:1035300013FB064623689A68120718D49A6842F06B
:1035400004029A60FEF708FB064623689B685B0747
:103550001FD4A36A23F0030343F00103A3620023F3
:1035600084F8243012E0019B013B0193D5E7FEF77C
:10357000F3FA801B0A28DDD9A36A012523F0120380
:1035800043F01003A362002384F82430284602B0DD
:1035900070BDFEF7E1FA801B0A28D6D9ECE70225B8
:1035A000F4E700BFFC010020074A0002D36800F4E2
:1035B000E06023F4E0631B041B0C43F0BF6343F49F
:1035C00000330343D360704700ED00E003682DE94A
:1035D000F341DB07054610D42B689F075ED42B68A8
:1035E000190700F195802B685A0700F1BF80EA693E
:1035F000002A40F02D81002014E0904C636803F015
:103600000C03042B07D0636803F00C03082B0CD1C8
:103610006368DE0309D523689C03DDD56B68002B46
:10362000DAD1012002B0BDE8F0816B68B3F5803FCC
:1036300010D1236843F480332360FEF78DFA0646E9
:1036400023689803C8D4FEF787FA801B6428F7D94B
:103650000320E7E79BB9236823F4803323602368C2
:1036600023F480232360FEF777FA06462368990344
:10367000B2D5FEF771FA801B6428F7D9E8E7B3F5F5
:10368000A02F236803D143F480232360D1E723F4E0
:1036900080332360236823F48023CDE7674C63687D
:1036A00013F00C0F07D0636803F00C03082B10D144
:1036B0006368DA030DD423689B0702D52B69012BBD
:1036C000AFD123686A6923F0F80343EAC203236099
:1036D00085E72A695A4B6AB101221A60FEF73CFA63
:1036E000064623689F07ECD4FEF736FA801B0228B3
:1036F000F7D9ADE71A60FEF72FFA06462368980758
:103700007FF56DAFFEF728FA801B0228F6D99FE7F8
:10371000AA694A4C4B4BDAB101221A60FEF71CFA37
:103720000646636A9B070DD54FF4FA52464B1B6859
:10373000B3FBF2F3019300BF019B5A1E0192002BD1
:10374000F9D150E7FEF708FA801B0228E9D97FE794
:103750001A60FEF701FA0646636A9F077FF543AFDA
:10376000FEF7FAF9801B0228F6D971E7334CE369BA
:10377000D80024D40127E36943F08053E361E3696F
:1037800003F080530093009B304E3368D90518D561
:10379000EB68012B26D1236A43F001032362FEF775
:1037A000DBF941F288368046236A9B073FD5002F1C
:1037B0003FF41DAFE36923F08053E36117E700276F
:1037C000E2E7336843F480733360FEF7C5F980465F
:1037D0003368DA05DCD4FEF7BFF9A0EB08006428F3
:1037E000F6D935E7ABB9236A41F2883823F00103F3
:1037F0002362236A23F004032362FEF7ADF9064631
:10380000236A9807D3D5FEF7A7F9801B4045F7D95F
:103810001EE7052B236A03D143F004032362BAE7B2
:1038200023F001032362236A23F00403B6E7FEF7C3
:1038300093F9A0EB0800B042B6D909E700100240A6
:103840000000424280044242FC010020007000401F
:10385000224C636803F00C03082B3FF4E2AE002314
:103860001F4E022A33602BD1FEF776F907462368F4
:1038700099011FD42B6AB3F5803F05D16268A9680E
:1038800022F400320A436260696A62680B4322F4E0
:1038900074121343636001233360FEF75DF905463C
:1038A00023689A013FF5A7AEFEF756F9401B0228A0
:1038B000F6D9CDE6FEF750F9C01B0228D7D9C7E6E6
:1038C000FEF74AF9054623689B017FF594AEFEF7A3
:1038D00043F9401B0228F6D9BAE600BF00100240A7
:1038E0006000424230B5194B87B002AC03F11005BD
:1038F000224618685968083303C2AB421446F7D110
:1039000001238DF80430022311498DF805304B68EE
:1039100003F00C02082A17D1C3F3834206A802441D
:10392000DB0312F8102C0CD54B680A48C3F3404354
:10393000504306AA134413F8143CB0FBF3F007B04D
:1039400030BD05485043FAE70248F8E7B98A000855
:103950000010024000127A0000093D004D4A2DE996
:10396000F0411368054603F007038B420E4628D347
:103970002A68910732D4D20738D4464A136803F034
:1039800007039E4273D32A68434C12F0040F79D187
:10399000130706D563682A6923F4605343EAC20318
:1039A0006360FFF79FFF63683C4AC3F30313D35C74
:1039B000D8403B4B18600F20FEF7C8F80020BDE848
:1039C000F081136823F007030B431360136803F0BF
:1039D00007039942CCD00120BDE8F0812E49A868A8
:1039E0004B6823F0F00303434B60C4E76A682A4C3A
:1039F000012A23681CD113F4003FECD0636841F224
:103A0000883823F0030313436360FEF7A5F86B685F
:103A10000746012B14D1636803F00C03042BACD0D0
:103A2000FEF79AF8C01B4045F5D90320BDE8F081A8
:103A3000022A02D113F0007FDFE713F0020FDCE768
:103A4000022B0FD1636803F00C03082B95D0FEF70F
:103A500083F8C01B4045F5D9E7E7FEF77DF8C01BAA
:103A60004045E2D8636813F00C0FF6D185E7136880
:103A700023F0070333431360136803F007039E42E8
:103A8000A9D180E76368E96823F4E0630B436360CE
:103A90007EE700BF0020024000100240ED8A0008CF
:103AA000FC010020044B054A5B68C3F30223D35C8E
:103AB000034A1068D840704700100240FD8A000891
:103AC000FC010020044B054A5B68C3F3C223D35CAE
:103AD000034A1068D840704700100240FD8A000871
:103AE000FC0100200F2303600B4B5A6802F0030215
:103AF00042605A6802F0F00282605A6802F4E062A2
:103B0000C2605B68DB0803F4E0630361034B1B687E
:103B100003F007030B6070470010024000200240D2
:103B200003682DE9F341D907054620D5354CE369F3
:103B3000DA0032D40127E36943F08053E361E3699B
:103B400003F080530193019B2F4E3368DB0526D58C
:103B5000236A13F4407336D1236A6A6823F44073EE
:103B6000134323621FB1E36923F08053E3612868A4
:103B7000830706D5234AA968536823F440430B43BF
:103B8000536010F010001BD01E4AE96853680020F3
:103B900023F480030B43536012E00027D4E733681B
:103BA00043F480733360FDF7D7FF80463368D80550
:103BB000CED4FDF7D1FFA0EB08006428F6D903208E
:103BC00002B0BDE8F0816A6802F440729342C3D04B
:103BD00001200E4A236A1060002023F44071106017
:103BE0002162D907B8D5FDF7B7FF41F288380646FC
:103BF000236A9A07B0D4FDF7AFFF801B4045F7D981
:103C0000DDE700BF00100240007000404004424267
:103C100070B50446364B86B002AD03F110062A4655
:103C200018685968083303C2B3421546F7D1012317
:103C30008DF8043002239C428DF8053049D0102CB9
:103C400017D0012C51D140F202312A4A136A19408F
:103C5000B1F5817F46D003F44073B3F5007F2DD1D9
:103C6000536A13F0020F0CBF00204FF4FA4006B065
:103C700070BD204B5968186810F08070F7D0C1F300
:103C8000834206A8024412F8100CCA0341BF5A68C6
:103C900006A9C2F34042521844BF12F8141C164A37
:103CA0005B684CBFB2FBF1F2144A5B0202FB00F00E
:103CB000DDD403234000B0FBF3F0D8E7B3F5407F39
:103CC00013D113684FF2244013F4003F08BF0020C3
:103CD000CDE7FFF7F7FE074B5B68C3F38133013392
:103CE0005B00E8E74FF40040C1E70020BFE700BFFA
:103CF000C98A00080010024000127A0000093D0045
:103D0000036A70B523F001030362036A44688269A1
:103D10000D6822F073022A438D6823F002032B43BF
:103D20000A4DA8420BD1CD6823F008032B438E69BE
:103D30004D6924F44074354323F004032C4344605C
:103D400082614A684263036270BD00BF002C01407B
:103D5000036A70B523F480730362036A4468C2691E
:103D60000D6822F073022A438D6823F4007343EA3E
:103D700005230B4DA8420DD1CD6823F4006343EA1F
:103D800005238E694D6924F44054354323F4806340
:103D900044EA05144460C2614A68C263036270BDAC
:103DA000002C0140036A30B523F480530362036A98
:103DB0004468C2690D6822F4E64242EA05228D6831
:103DC00023F4005343EA0533064DA84202BF4D6970
:103DD00024F4804444EA85144460C2614A68026461
:103DE000036230BD002C014070470223026880F856
:103DF0003D30136843F001031360012380F83D3028
:103E000000207047704700001A4A036890420AD0A9
:103E1000B0F1804F07D0A2F59432904203D002F562
:103E20008062904215D14A6823F070031343114A0F
:103E300090420AD0B0F1804F07D0A2F59432904260
:103E400003D002F58062904203D1CA6823F4407324
:103E500013434A6923F08003134303608B68C362F2
:103E60000B688362034B984204BF0B690363012311
:103E700043617047002C014010B50446A0B190F892
:103E80003D3003F0FF021BB980F83C20FFF7ACFF88
:103E90000223206884F83D30211DFFF7B5FF012380
:103EA000002084F83D3010BD012010BD10B504463F
:103EB000A0B190F83D3003F0FF021BB980F83C2020
:103EC000FFF7A0FF0223206884F83D30211DFFF793
:103ED0009BFF0123002084F83D3010BD012010BD60
:103EE000036A70B523F010030362036A44688269B1
:103EF0000D6822F4E64242EA05228D6823F0200391
:103F000043EA05130B4DA8420DD1CD6823F0800381
:103F100043EA05138E694D6924F44064354323F068
:103F2000400344EA8504446082614A688263036214
:103F300070BD00BF002C014038B590F83C300446FD
:103F4000012B4FF0020025D0012384F83D0084F8B6
:103F50003C300C2A18D8DFE802F0071717171E1795
:103F600017172F17171740002068FFF7C9FE23689F
:103F700009699A6942F008029A619A6922F004027A
:103F80009A619A690A439A610123002084F83D30BE
:103F900084F83C0038BD2068FFF7A2FF2368096958
:103FA0009A6942F400629A619A6922F480629A6185
:103FB0009A6942EA0122E6E72068FFF7C9FE236812
:103FC0000969DA6942F00802DA61DA6922F004026A
:103FD000DA61DA690A43DA61D6E72068FFF7E2FEC0
:103FE00023680969DA6942F40062DA61DA6922F465
:103FF0008062DA61DA6942EA0122ECE710B5012455
:10400000036A8C4023EA04030362036A8A401A436A
:10401000026210BD10B5044600220068FFF7EEFFF3
:104020002368104A93420DD141F21112196A1142CC
:1040300008D140F24442196A114202BF5A6C22F47C
:1040400000425A6441F21112196A114208D140F239
:104050004442196A114202BF1A6822F001021A6032
:10406000002010BD002C014010B50446012200685C
:10407000FFF7C4FF2368064A0020934202BF5A6C30
:1040800042F400425A641A6842F001021A6010BDFC
:10409000002C0140FFF7E8BF10B50424036A8C40F0
:1040A00023EA04030362036A8A401A43026210BDD2
:1040B00010B5044604220068FFF7EEFF23680020D5
:1040C0005A6C42F400425A641A6842F001021A60C3
:1040D00010BD00002DE9F0470568C2682B69016931
:1040E00023F4405313432B618368EA680B4341690F
:1040F00022F4B05222F00C020B431343EB606B69C5
:10410000826923F4407313436B61404B81469D42A7
:104110004FF0190446D1FFF7D5FC04FB00F3D9F8A2
:1041200004604FF06408B600B3FBF6F3B3FBF8F39A
:104130001E01FFF7C7FC6043D9F804309B00B0FBB9
:10414000F3F7FFF7BFFC6043D9F804309B00B0FBE6
:10415000F3F3B3FBF8F308FB13731B013233B3FB28
:10416000F8F303F0F007FFF7ADFC6043D9F8042043
:104170009200B0FBF2FAFFF7A5FC6043D9F80430D7
:104180009B00B0FBF3F3B3FBF8F308FB13A31B0195
:104190003233B3FBF8F303F00F033B433344AB601C
:1041A000BDE8F087FFF77EFC04FB00F3D9F804605C
:1041B0004FF06408B600B3FBF6F3B3FBF8F31E014F
:1041C000FFF770FC6043D9F804309B00B0FBF3F7B5
:1041D000FFF768FC6043D9F804309B00B0FBF3F3B1
:1041E000B3FBF8F308FB13731B013233B3FBF8F393
:1041F00003F0F007FFF756FC6043D9F80420920063
:10420000B0FBF2FAFFF74EFCB7E700BF0038014001
:10421000704710B5044640B390F8393003F0FF0200
:104220001BB980F83820FFF7F3FF2423226884F8B5
:104230003930D368204623F40053D360FFF74AFF98
:10424000236800201A6922F490421A615A6922F008
:104250002A025A61DA6842F40052DA602023E063ED
:1042600084F8393084F83A3010BD012010BD7FB594
:104270000F23022101934FF48062002301A80291D1
:10428000039304920593FFF769FBB0FA80F04009AD
:1042900007B05DF804FB00000F4B1A6842F0010202
:1042A0001A6059680D4A0A405A601A6822F08472EE
:1042B00022F480321A601A6822F480221A605A6846
:1042C00022F4FE025A604FF41F029A604FF000621F
:1042D000034B9A60704700BF001002400000FFF8D7
:1042E00000ED00E0012310B58AB00093A0B94FF4AF
:1042F00080330193022307934FF480330024089303
:104300004FF4E013684602940993FFF75FF930B960
:10431000FFF7ADFF0AB010BD4FF4A023E9E7204638
:10432000F8E7032310B58AB0009301230493102308
:1043300005930223002407934FF460136846019409
:1043400008940993FFF742F918B9FFF790FF0AB0F4
:1043500010BD2046FBE7000008B50120FFF7C2FFB3
:1043600028B9FFF7DEFF10B9014801F0B7F908BD21
:10437000D98A0008114A124B516801F00C01042936
:1043800001D008290AD00F49196052680E49C2F3BA
:104390000312895C1A68CA401A60704751685068F5
:1043A000C1F38341C00301F1020102D40748414334
:1043B000EAE750688003F9D40248F8E700100240A9
:1043C000FC01002000127A00ED8A000800093D007F
:1043D000074B084A13601A69910707D5DA689207F4
:1043E00004D56FF002021A6100F01EBF704700BFD3
:1043F00000080040480E002000487047088B000865
:10440000224B37B5DA69224C42F00402DA61DA69EC
:10441000002502F004020192019A1A6942F0040296
:104420001A611A6922F004021A61FFF7A3FF194BFF
:10443000194A23604FF6FF73E360184B20461B6850
:104440002561B3FBF2F3013B6360A5606561A56183
:10445000FFF712FD29462046FFF71CFE104B114ABC
:104460009B682046C3F8B8204FF080420E4B1A607C
:10447000FFF7BBFC2268D36823F00203D3600B4B29
:104480001D600B4B1D6003B030BD00BF001002402B
:10449000480E00200008004040420F00FC010020B0
:1044A00000ED00E0D143000800E100E0700B0020C7
:1044B0006C0B0020044800210268D36823F002033B
:1044C000D360FFF7E7BD00BF480E0020014B586ADC
:1044D000704700BF000800406FF00202044B1B68E9
:1044E00058631A61DA6842F00202DA60704700BF6E
:1044F000480E00206FF00202054B1B681A615A69D2
:1045000042F002025A61DA6842F00202DA60704751
:10451000480E0020034B1A68D36823F00203D360CF
:10452000704700BF480E00206FF00202014B1B686D
:104530001A617047480E002008B500210348FFF7B4
:1045400069FDBDE80840FFF7E5BF00BF480E002049
:104550000346024A2030FDF701BA00BFD5460008E5
:10456000F8B50546044610260F46124B1C2245F8A6
:10457000043B0021284601F01DFE3246002104F1D3
:10458000200001F017FE3246002104F1300001F056
:1045900011FE3246002104F1400001F00BFE3946C5
:1045A0002046FFF7D5FF2846394600F07FFB20461E
:1045B000F8BD00BF708B000810B50446074B40F8EB
:1045C000203BFDF799FA04F14000FCF7A5FA04F14D
:1045D0003000FCF7A1FA204610BD00BF708B000828
:1045E00010B50446FFF7E8FF2046FDF754FE2046CD
:1045F00010BD884238B504460D460AD0FCF78CFA47
:104600003CB1EB681BB15B68294620469847EB68D4
:10461000E360204638BDF0B50F46044685B000F093
:1046200045FFFD6804F13006203465B13946304657
:10463000FFF7DFFF012201212046FDF717F900F007
:104640004BFF05B0F0BD10222946684601F0B2FDCF
:1046500069463046FFF7CDFF6846FCF75DFA2A460B
:10466000E9E7F0B50F46044685B000F01FFFFD688E
:1046700004F14006203465B139463046FFF7B9FFF2
:10468000012202212046FDF7F1F800F025FF05B0D8
:10469000F0BD10222946684601F08CFD694630467F
:1046A000FFF7A7FF6846FCF737FA2A46E9E700005C
:1046B000C36810B52BB940F23A220449044800F00F
:1046C000D9FE1B68BDE81040184700BF108B0008DA
:1046D000638B0008012908B502D0022906D008BD65
:1046E000C36B13B13030FFF7E3FF08BDC36C002B81
:1046F000FBD04030F7E77047A0F1B000FFF7FBBFF9
:10470000A0F1B000FFF7F7BF00F076B8A0F1B0005D
:10471000FFF7FABF00F073B8A0F1B000FFF7FABFDF
:1047200010B5044600F07AF8002104F1B00000F062
:104730003DFE064B204603F10802226003F12802E9
:104740008833C4F8B020C4F8B43010BD788B0008AA
:104750007047704710B4446800F108010EC954B1A5
:1047600003F0010002B930B15B1008B1E058825883
:10477000E01810BC104710BC7047000000EB01139C
:104780008C33DA6810B57AB100EB0110D0F89820BC
:104790002AB940F23A220549054800F06BFE12683A
:1047A0001846BDE81040104710BD00BF108B000830
:1047B000638B000838B5054655F8403B04461B6836
:1047C00098472846FEF7F4F90546236820465B68BB
:1047D0009847284638BD38B5054655F8403B04464D
:1047E0001B6898472846FEF7F9F9054623682046D6
:1047F0005B689847284638BD4030FEF7AFBB10B520
:104800000C464030FEF7C0FB204610BDC36810B513
:1048100004460BB19B689847204610BD2DE9F04F28
:10482000002504469B46894692462C4B85B0036082
:104830002B4BA06029464360C560056145618561D9
:10484000057745771022203001F0B4FC04F14006D2
:104850002946102204F1300001F0ACFC04F18C0870
:1048600029464C22304601F0A5FC04F19C0729465C
:104870001022404601F09EFC29461022384601F0E5
:1048800099FC10222946C4F8ACB0684601F092FCAD
:1048900069464046FFF7ADFE6846FCF73DF9102239
:1048A0002946684601F086FC69463846FFF7A1FEB6
:1048B0006846FCF731F9524649463046FEF7E8F9BA
:1048C000D4F8AC103046FEF7BDF930462246054913
:1048D000FEF7E8FA204605B0BDE8F08F108C00081E
:1048E000554700087D4700082DE9FF4106468846E8
:1048F0001746054656F8403B3C011B68984700F0B8
:10490000D5FDD8F80C308C342C44ABB1E3680BB92E
:1049100000F01CFF41462046FFF76BFE012239469E
:104920003046FEF7CBFA00F0D7FD2B6828465B68CF
:10493000984704B0BDE8F081E3680BB100F028FFB0
:1049400010220021684601F035FC69462046FFF739
:1049500050FE6846FCF7E0F80022E0E77FB5044629
:104960001A4B102203600021684601F023FC00224C
:1049700069462046FFF7B8FF6846FCF7CDF81022DD
:104980000021684601F016FC012269462046FFF727
:10499000ABFF6846FCF7C0F814F18C0608D004F1B0
:1049A000AC05B54204D0103D2846FCF7B5F8F8E751
:1049B00004F13000FFF72AFF04F12000FFF726FF83
:1049C000A06900F03BFC204604B070BD108C0008CC
:1049D00010B50446FFF7C2FF2046FDF75CFC2046F9
:1049E00010BD70B5D0E90823D0E90245064612197A
:1049F0006B4100F01BF9736B2BB106F128001B68AB
:104A0000BDE87040184770BDD0B5044616461F4635
:104A100000F04CFD204600F013F9C4E90867A069D6
:104A200000F0E9FB321847EB0103204600F0FEF8E6
:104A3000BDE8D04000F050BDF8B504461F460D4615
:104A4000164600F033FD636B13B994F838306BB938
:104A5000294604F12800FFF7CCFD32463B462046AC
:104A6000FFF7D2FFBDE8F84000F036BD00F06EFE63
:104A7000EEE71FB5044600F019FD204600F0E0F80F
:104A8000636B13B194F8383083B910220021684663
:104A900001F090FB694604F12800FFF7AAFD684683
:104AA000FCF73AF800F018FD04B010BD00F070FEFD
:104AB000EBE700001FB5436B044600F1280113B17A
:104AC0005B6868469847636B20460393FFF7D1FF06
:104AD000039B2BB940F23A220549064800F0CAFC74
:104AE0001B68684698476846FCF716F804B010BD86
:104AF000108B0008638B000810B5044600F0D6FC4C
:104B000023681BB1237F0BB100F042FE002323601A
:104B100000F0E2FC204610BD10B5044600F0C6FCD3
:104B2000236853B9237F0BB100F010FEA06900F099
:104B300062FB0123C4E902012360BDE8104000F0DC
:104B4000CBBC38B5044600F0B1FC236873B1A06952
:104B500000F051FB04F10805D5E90045041B61EBA9
:104B6000050500F0B9FC2046294638BD0024002583
:104B7000F7E770B5064600F099FCD6E904453046E3
:104B8000FFF7DFFF24184D4100F0A6FC2046294620
:104B900070BD08B5FFF7EDFF08BD08B5FFF7E9FFE9
:104BA0004FF47A72002302F0DBFF08BD10B5044613
:104BB00000F07CFCA06900F01EFB00220023C4E989
:104BC0000201C4E90423BDE8104000F085BC0023C5
:104BD00010B5002203600023C0E90223C0E90423CA
:104BE000044600F01DFB0123A06123772046FFF758
:104BF000DDFF204610BD03689B681847094B10B5C0
:104C0000002203600023C0E9022300230361436103
:104C1000044600F005FB0449A06100F069FA204653
:104C200010BD00BF508C0008F74B000807B500907E
:104C300000F10801806900F09AFA03B05DF804FB06
:104C400000F10801806900F0BBBA000010B504460D
:104C5000024B0360FFF7F4FF204610BD508C0008A4
:104C600070B50E4604461546FCF768FD013609D0BE
:104C700020460021FCF788FD29462046BDE870400B
:104C8000FCF77EBD70BD38B504460D4603685AB1C9
:104C90008268204613600121FCF776FD29462046F4
:104CA000BDE83840FCF76CBDC268F2E70022FFF7B0
:104CB000D7BF70B50E4604461546FCF73FFD0136DA
:104CC00006D02A462046BDE870400021FFF7DBBF32
:104CD00070BD0022FFF7EDBF13B5044601300FD1C0
:104CE00002B010BD9C420AD120468968FDF762FCE3
:104CF0000021204602B0BDE81040FDF75BBD0C313D
:104D0000B1F900305A1CEDD100232246009302492C
:104D1000024800F003FD00BFAB8C000830010180A9
:104D2000884207B502460AD0431C08D0013105D09D
:104D3000002305490093054800F0F0FC01460846B1
:104D400003B05DF804FB00BF7A8C000830010180DD
:104D5000B1F900305A1C01D118467047834201D185
:104D6000486870470C31F3E7431C07B50AD0FFF7DA
:104D7000EFFF431C06D10023024600930349044879
:104D800000F0CCFC03B05DF804FB00BF8B8C000886
:104D900030010180B1F900305A1C01D1184670472A
:104DA000834201D1886870470C31F3E7431C07B593
:104DB0000AD0FFF7EFFF431C06D100230246009301
:104DC0000349044800F0AAFC03B05DF804FB00BFEF
:104DD0005C8C0008300101802DE9F74FD0F804A069
:104DE00004469AF83A30002B46D103685B6898472E
:104DF00063681B6A98423FD0DAF82030DAF808403E
:104E0000A0EB0308CAF82000DAF80C30314808EAB1
:104E10000308844246464FF0000727D0DAE90A2308
:104E20009AF83BB0A8FB0089CDE900230025BBF12F
:104E3000000F2BD05A464046494602F0CDF9DDE935
:104E4000002312EB080243EB090390465A469946A9
:104E500006460F4602F0CCF9B8EB000069EB010101
:104E6000A94208BFA0420AD2CAE90A01DAE90C2322
:104E7000B6185F41CAE90C6703B0BDE8F08F013690
:104E800047F10007001B61EB0501EDE722462B46C9
:104E90004046494602F064FE224606460F4640461A
:104EA00049462B4602F05CFEDDE9008918EB02085A
:104EB00049EB0309A94508BFA04502D2CAE90A89FE
:104EC000D4E7013647F10007B8EB040869EB0509A0
:104ED000F4E700BF40420F00824206D98A420BD954
:104EE000884294BF002001207047884206D98A4238
:104EF0008CBF0020012070470120704700207047C0
:104F00002DE9F14F4768064697F83A30002B60D1FB
:104F100097F83930002B5CD1FFF75EFF75686B683E
:104F2000002B59D0D5E90C89D3E90001894508BF88
:104F3000804505D333685B6901B0BDE8F04F184781
:104F4000B0EB080861EB0909D5E906234B4508BF1A
:104F500042452C6906D3AB68254A93420FD144459C
:104F600028BF44462A6A3B6A1444EA681440A342B4
:104F700021D14FF484721F491F4800F07BFA95F845
:104F80003B20DFF878A04FF0000B7AB1404649464D
:104F900002F02EF910EB0A0041EB0B01144A00233A
:104FA00002F0DEFD844228BF0446DBE7A3FB0801D4
:104FB00003FB0911EEE7336820461B699847336805
:104FC0005B68984722460146386AFFF785FF00284C
:104FD000B0D101B0BDE8F08F3B69386AFA68184477
:104FE000336810401B6901B0BDE8F04F184700BF9F
:104FF00040420F00BC8C0008068D00083F420F00A5
:105000002DE9F04F436885B093F838200546002A13
:1050100064D193F83A30002B60D103681B6898473D
:105020002B68DB699847076827B92D222D492E4840
:1050300000F020FA1F23012202FA03F18F425FFAE7
:1050400083FB02D0013BF7D19B46D0F804A0AAF124
:1050500004031C2B01D93B22E8E707269E400023CE
:1050600017F1FF30214C43F1FF313A46C4FB0601F2
:1050700002F076FD00236C682A6823606360526842
:105080000393CDE9000190474FF000084FF000096D
:1050900020626C685246C4E90A89A76084F83BB074
:1050A0000120002102F0A4F8DDE90023C4E9062371
:1050B000039B013884F8393084F83A300123E060EA
:1050C00026612846C4E90C8984F83830FFF784FE4D
:1050D000284605B0BDE8F04FFFF712BF05B0BDE8A8
:1050E000F08F00BFBC8C0008A78D000840420F0065
:1050F00038B505460C46FFF783FF00F0D7F96B681B
:105100001C60BDE8384000F0E7B970B5044600F017
:10511000CDF92368DB689847636893F83A201AB1A1
:10512000BDE8704000F0D8B9012283F839206368E7
:105130005B68A3B12046FFF74FFE65686E68D5E94E
:105140000C01D6E90023994208BF904207D3F368C7
:105150006B602B68002BEAD0B0689847E7E7002225
:105160006368204683F83920FFF7CAFED8E72DE9A7
:10517000F04180460C4616461F46069D00F096F903
:105180004046FFF729FEA5600025D8F80420C4E9B1
:10519000006753684BB9E36085B954604046FFF738
:1051A000AFFEBDE8F04100F097B9D3E900018F42AE
:1051B00008BF8642EFD31D46DB68EBE7EC60F0E703
:1051C00038B505460C4600F071F96A685368A34289
:1051D00009D1DB6828465360FFF792FEBDE83840EE
:1051E00000F07AB91346002BF8D0DA689442F9D16E
:1051F000E268DA60F2E738B50446FFF701FF00F035
:1052000055F92046FFF7E8FD6368D3E90C4500F047
:1052100063F92046294638BD08B5FFF7ECFF08BD05
:10522000004870472C8D0008024B1B680BB10248E8
:1052300018477047000200202C8D0008024B1B68A5
:1052400003B11847704700BF400C002070B50E46F0
:1052500000250446056045600E49304601F0A7FC74
:1052600029463044206023681A782F2A07D1013359
:10527000236051B92A220849084800F0FBF8002AA7
:10528000F7D0013301312360EDE700F033FB6060BC
:10529000204670BD548D0008568D0008A08D000872
:1052A00000687047406808B520B100F0CBFA431E93
:1052B0005842584108BD10B50446FFF7F3FF10B13E
:1052C000606800B1043810BD406808B520B100F036
:1052D000B9FAB0FA80F0400908BD10B50446FFF7EE
:1052E000F3FF10B1606800B1043810BD40680030B1
:1052F00018BF012070470020704770477047F8B50D
:105300000E46036804461B6D8F1835469847BD420C
:1053100007D0236815F8011B9B6C20469847013085
:10532000F5D1236820465B6D9847A81BF8BDF8B5FA
:105330000E46036804461B6D8F1835469847BD42DC
:1053400008D023682046DB6C9847431C02D005F840
:10535000010BF4E7236820465B6D9847A81BF8BD56
:105360000020704770470020704700207047000001
:1053700010B50446044B0360503340F8043F00F07E
:1053800081FA204610BD00BFB48D0008A0F10400D2
:10539000EEE700BF10B50446FFF7EAFF2046FCF732
:1053A0007AFF204610BDA0F10400F3E713B50446D0
:1053B0000E4B002240F8043B00F046FA0C4B0D491E
:1053C000236060336360002320466361FCF7B0FF15
:1053D0000346606128B9009002460749074800F07B
:1053E0009DF9FCF7C5FD204602B010BD889100086C
:1053F0002C8E00080C8E00080F8E00081901018009
:1054000010B50446064B03F108026833026043609E
:10541000406900F017FB2046FFF7AAFF204610BDA9
:10542000248E000838B504460D4603681B6D984766
:1054300001220021606900F029FD6169284600F021
:105440001BFD0546236820465B6D9847284638BDFE
:1054500038B5044603681B6D9847606900F0ACFBE3
:10546000606900F0E7FB0546236820465B6D9847BE
:10547000284638BD04460D46164607B500F016F816
:1054800000962B4600222146014800F047F900BF54
:105490004401FF80EFF31080C04300F0010070472B
:1054A000EFF30580003018BF0120704710B5074C9E
:1054B0002368013304D1512205490648FFF7DAFF7A
:1054C00000F094F923680133236010BD440C0020E0
:1054D000948E0008E18E0008054B1A6832B11A68F4
:1054E000013A1A601B680BB900F092B9704700BF0F
:1054F000440C00200122D0E84F3FC0E8412F002992
:10550000F9D1D8B2003018BF01207047D0E85F3F12
:105510000B449BB2C0E8523F002AF7D118467047AF
:10552000D0E85F3F5B1A9BB2C0E8523F002AF7D138
:105530001846704708B50B48FFF7DCFF28B1FFF7A6
:10554000B5FFBFF34F8F20BFFDE7FFF7A9FF08B1FD
:10555000FCF72AFBFFF79EFF0028F9D00120FCF79B
:1055600077FE00BF880C002070B5164C0D4634EA5B
:10557000200428BF044616468EB03422002101A81C
:1055800000F018FE019402960395FFF78FFF0E4A74
:1055900013680133012B136004D1342201A90B4895
:1055A00000F0FDFD342201A9094800F0F8FD094B87
:1055B0001B680BB106489847FFF78EFF00200EB01E
:1055C00070BD00BF0101FF80480C0020540C00207A
:1055D0008C0C00204C0C00202DE9F0412E4C0E4686
:1055E00021688046C1F34173032B0CBF4D428DB23D
:1055F000C1F30743174629482A46FCF72DFB6FF4F1
:1056000098731D44132D0FD8DFE805F00A2D3033B1
:10561000363C393F0E0E0E0E0E0E0E0E0E0E0E42C4
:10562000A1681F48FCF718FB4046FCF7EBFA6168DD
:105630001C48FCF711FB4EB11B48FCF7E3FA30465F
:10564000FCF7E0FA39461948FCF706FBA168184850
:10565000FCF702FB21681748FCF7FEFABDE8F041B1
:105660001548FCF7F9BAA1681448DBE7A1681448AB
:10567000D8E7A1681348D5E7A1681348D2E7A16825
:105680001248CFE7A1681248CCE7A1681148C9E7E2
:105690001148FCF7E1FAC7E78C0C0020278F0008BF
:1056A000788F000820900008319000083990000899
:1056B0003D900008519000089D9000088E8F0008D2
:1056C0009E8F0008AD8F0008C08F0008D48F00089F
:1056D000E88F0008F78F00080D9000080FB407B599
:1056E0000B487546FFF706FF044670B901462A4687
:1056F0000848FFF739FF214607482246FFF76CFFAD
:1057000005A904980191FCF78DFAFFF713FF00BF7C
:10571000500C00200001FF80128F000880B5064663
:105720000948F0460C4617461D46FFF7E3FE48B908
:10573000424639463046FFF717FF029A294620466F
:10574000FFF74AFFFFF7F6FE500C002013B5FFF7F6
:10575000ADFE4FF6FF730B4C22889A4208D1FFF73B
:10576000BBFE00232288009307490848FFF7D6FFB5
:1057700001212046FFF7CAFE02B0BDE81040FFF746
:10578000ABBE00BFC00C0020B7900008230104800E
:1057900037B50B4CFFF78AFE258845B9FFF79CFE0D
:1057A000228800952B4607490748FFF7B7FF0121DC
:1057B0002046FFF7B5FE03B0BDE83040FFF78CBED2
:1057C000C00C0020DC9000082401048070B5044661
:1057D000FFF726FD0646FFF71FFD05463046FFF79B
:1057E0001BFD401BA042F9D370BD0000EFF31083F6
:1057F000DB4372B6044A117829B9044903F0010366
:105800000B70012313707047C30C0020C20C0020E2
:1058100008B5EFF31083DB0704D4362205490648A8
:10582000FFF728FE0022054B1A70054B1B7803B1C9
:1058300062B608BDFA9000084E910008C30C002023
:10584000C20C0020007B704738B50B4B0446036048
:1058500000230D464360A16002730848FBF78AF9F4
:1058600045B1074B1A681C6062600448FBF782F977
:10587000204638BD6560F8E778910008C80C002024
:10588000C40C002010B50446114B03601148FBF70F
:1058900071F9A3682BB1104A13689C4212D1636856
:1058A00013600E4B0B481A68944204BF00221A6022
:1058B000FBF760F9237B13B9201FFCF7EFFC2046B0
:1058C00010BD13465A689442FBD162685A60E8E7FB
:1058D00078910008C80C0020C40C0020D80C0020CF
:1058E00010B50446FFF7CEFF2046FCF7D4FC204657
:1058F00010BD000070B5064614480D46FBF73AF996
:10590000134B1C687CB1A068E8B101F048F9A842CB
:1059100019D12A463146A06800F032FC98B90B48EC
:10592000FBF728F90DE0072DF9D12A463146094841
:1059300000F026FC0028F2D10448FBF71BF9064BC7
:105940001C68204670BD6468DCE700BFC80C0020FE
:10595000C40C002068910008D80C0020036870B5C2
:105960001B690122002104469847051E0DDB2368B0
:1059700002221B69002120469847064623682946D3
:105980001B690022204698473546284670BDFCF723
:1059900082BC0000014B1868704700BF0402002061
:1059A00070B505460C4611B90026304670BD18B1D9
:1059B00083690BB900F086F91F4B9C4232D16C68A9
:1059C000B4F90C30002BEFD02146284600F042F805
:1059D000236B064633B1216A284698470028B8BF92
:1059E0004FF0FF36A3891B0603D52169284602F034
:1059F00043FA616B41B104F14403994202D0284655
:105A000002F03AFA00236363A16C21B1284602F048
:105A100033FA0023A36400F0C1F90023A38100F04E
:105A2000BEF9C2E7054B9C4201D1AC68C8E7044B04
:105A30009C4208BFEC68C3E7F09100081092000890
:105A4000D0910008024B01461868FFF7A9BF00BFBC
:105A5000040200208A892DE9F041054610070C4612
:105A60005AD44B68002B05DC0B6C002B02DC0020A9
:105A7000BDE8F081E66A002EF9D0002312F48052CE
:105A80002F682B6033D0606DA3895A0705D56368F2
:105A9000C01A636B0BB1236CC01A00230246E66A7E
:105AA000216A2846B047431CA38906D129681D29CD
:105AB0004BD82B4ACA40D60747D5002262602269DC
:105AC000D904226004D5421C01D12B6803B960655A
:105AD000616B2F600029CAD004F14403994202D0BF
