:020000040800F2
:1000000000500020413B0008753B00080521000816
:100010000B21000811210008172100080000000032
:10002000000000000000000000000000753B000818
:10003000753B000800000000753B0008753B000898
:10004000753B0008753B0008753B0008753B0008D0
:10005000753B0008753B0008753B0008753B0008C0
:10006000753B0008753B0008753B0008753B0008B0
:10007000753B0008753B0008753B0008753B0008A0
:10008000753B0008753B0008753B0008FD20000823
:1000900001210008753B000809200008753B000895
:1000A000753B0008753B0008753B0008753B000870
:1000B000753B0008753B0008753B0008753B000860
:1000C000753B0008753B0008753B0008753B000850
:1000D000753B0008753B0008753B0008753B000840
:1000E000753B0008753B0008753B000800000000E8
:1000F0000000000000000000000000000000000000
:1001000000000000000000005FF808F110B5054C89
:10011000237833B9044B13B10448AFF300800123B3
:10012000237010BD8002002000000000C89E00085F
:100130000C4B43B10C4810B50C49AFF300800C4890
:10014000036823B910BD0A48036833B97047094BE7
:10015000002BF7D0BDE810401847064B002BF5D018
:10016000184700BF00000000C89E0008840200205D
:100170007C02002000000000154B002B08BF134B31
:100180009D46A3F5803A00218B460F461348144A3A
:10019000121A06F0D5FD0F4B002B00D098470E4BDE
:1001A000002B00D098470020002104000D000D48CE
:1001B000002802D00C4802F09FFC06F001FD200050
:1001C000290002F03FFF02F009FE00BF0000080016
:1001D00000500020000000003530000880020020A0
:1001E000C8140020F92A000800000000036811B1BB
:1001F000826813607047C268FBE743681A68036847
:100200001A4214BF0120002070477047024A9368C9
:1002100001339360704700BF7C090020024A536895
:1002200001335360704700BF7C090020044B1A78EB
:10023000D2075EBF1A7842F001021A70704700BF01
:10024000D80900200368184708B10B68036070479D
:1002500070470000F8B5094E094D06F1B007304669
:1002600005F06EF840B12C793846631C2B7105F00F
:10027000B5FE2C442072F2E7F8BD00BFDC0A002076
:100280004405002010B50446382106F046F9204602
:1002900010BD000010B50446074BB03003F120023A
:1002A00040F8B03C80330260436005F06FFE2046AA
:1002B00005F01AF9204610BDE0970008A0F1B00043
:1002C000E8E7A0F1B400E5E710B5044605F0B4FE98
:1002D000237E1BB106F022F80023237605F0C2FE30
:1002E000204610BD024BDA681B681360704700BFE0
:1002F000A804002038B504460D461C22002106F053
:100300001FFD2046294605F0AAFA204638BD38B51B
:10031000054655F8043B04469B689847284601F07B
:10032000A7FD054623682046DB689847284638BD68
:1003300038B5002304460D46037605F07DFE2046C1
:10034000294603F055F905F08DFE204638BD38B535
:1003500004460D4605F070FE2946204603F0C7F915
:10036000BDE8384005F07EBE10B5044605F00CFA35
:100370002046064B102240F8283B002106F0E0FC06
:100380000123204684F8383010BD00BF889800084B
:1003900010B50C4C05F050FE2046142103F0A2F9D4
:1003A00005F060FE4FF47A71074B204693F9013057
:1003B00059437E2391FBF3F101F2DC51FFF7C7FFB4
:1003C00010BD00BF8C040020B80B002038B54D4B89
:1003D00004465A78102A34D0112A56D0012A40F007
:1003E0008F809B78012B02D0102B1AD038BD464B42
:1003F0009A6819681160454AD168106808602CB97C
:10040000D8681B68036013680B6038BD404B5B689D
:10041000022B94BF4FF4167121463E48FFF797FF19
:1004200038BD394A1368D1680B60384B98681D682D
:100430000560002CEAD112680A60DA681B68136054
:1004400038BD9B78012B02D0102B13D038BD324A17
:100450001368D1680B60314B98681D680560002CEB
:10046000E9D02B4B2E489B68022B94BF4FF416719A
:100470002146D3E7284B9A6819681160274AD1684A
:1004800010680860002CECD1BAE79B78012B02D0F1
:10049000102B1CD038BD204B1D4DDA681B68136033
:1004A0001E4B9A681B681360AA68022A8CBF01461B
:1004B0004FF416711A48FFF74AFF134B9A681B68EE
:1004C0001360124BDA681B6813606B68A0E7124B6D
:1004D0000F4D9A681B681360104BDA681B68136035
:1004E000AA68022A8CBF01464FF416710C48FFF728
:1004F0002EFF054BDA681B681360044B9A68E2E72D
:1005000038BD00BFCC090020AC030020C803002088
:100510007C09002054040020740300209003002074
:100520007004002070B5224B99881A7B914259883B
:10053000204B22DD8A4212DA0122DA701E4BDA6881
:100540001B6813601D4BDA681B6813601C4BDA686C
:100550001B6813601B4BDA681B68136070BD0022B8
:10056000DA700123184C4FF4E1706370A370FFF749
:100570002DFF10236370A3700FE08A424FF000023A
:10058000114CDA700FDA102501264FF4E170657016
:10059000A670FFF71BFF6670A5704FF4E170BDE811
:1005A0007040FFF713BF112363701023E3E700BF10
:1005B000A80B0020B0090020740300209003002045
:1005C000AC030020C8030020CC0900205523F0B55F
:1005D0008FB08DF804304E238DF8053045238DF80B
:1005E000063052238DF807303A23002145788DF8E4
:1005F00009304219937A0446A32B8DF808106DD068
:100600000DD8A12B6ED000F28B80A02B66D0DD23FD
:100610008DF80A3002238DF80830072341E0EE2BD5
:1006200022D012D8A42BF2D18DF80A300D238DF8E8
:100630000B3003238DF80830474B1A78002A7ED000
:1006400019704FF4FA729A810CE0F02B46D0F12B1E
:10065000DDD18DF80A30414B1B788DF80B30032328
:100660008DF8083008231CE0E91CC9B2C1F580737D
:10067000E82B2EDC3A4BC5F1FD05EDB20831014403
:100680002A46184606F051FBC5F1E902D2B204F140
:100690000801284406F049FB3149324801F064F969
:1006A00006230020074606462F4A92F806E0C5B208
:1006B0000EEB00019D42C9B200F1010042DA0EAF1B
:1006C0003D4415F8345C21446E4081F808510127FF
:1006D000EDE70144E92208312148DBE78DF80A30D3
:1006E0000D23BAE78DF80A300D238DF80B30032364
:1006F0008DF8083001231D4D517B2B70D37A1C4897
:100700006B70137B927BAB701A4B19705A701B681D
:10071000AB8005F008F8A8606420FFF757FEA1E75A
:10072000A2238DF80A300D238DF80B300323D27AE3
:100730008DF80830104B5A70FFF72AFE92E701221D
:100740001A707EE707B191719379591C1C4491711D
:1007500084F808610FB0F0BD7C090020F40000208F
:10076000DA090020D909002044050020CC09002026
:1007700090090020C40A0020B80B002070B5044680
:10078000324D334E637922799A425DD02A78062A17
:100790003ED8DFE802F0040F182028303F005A1C32
:1007A000627123441B7A552BECD101232B7000235B
:1007B000A370E7E75A1C6271E218127A4E2A26D11A
:1007C00002232B70DEE75A1C6271E218127A452A66
:1007D0001DD10323F5E75A1C6271E218127A522ADE
:1007E00015D10423EDE75A1C6370627123441B7A10
:1007F00033700523E5E75A1C6271E218127A3A2A2F
:1008000005D106232B70337883F03603D0E763716C
:100810000023D6E73278012A06DD591C6171234492
:100820001B7AA1784B40A370531EDBB23370002BB0
:10083000A8D12B706379A27823441B7A9A42A1D164
:100840002046FFF7C3FE9DE770BD00BF780900207A
:10085000080500205523F0B58FB08DF804304E23E5
:100860008DF8053045238DF8063052238DF807307A
:100870003A23A2288DF8093070D00BD8112834D033
:10088000A02855D0DD238DF80A30022307218DF8EA
:10089000083037E0A3286BD0A428F3D10A234449B9
:1008A0008DF808304B68434A8DF80A00C3F30720DF
:1008B00013608DF80B308DF80C00C3F307401B0E4E
:1008C0008DF80E308B688DF80D001360C3F307228E
:1008D0008DF80F308DF81020C3F307421B0E8DF8F2
:1008E00011208DF812300F210CE0042309218DF81E
:1008F0000830314B8DF80A005A781B788DF80B20A0
:100900008DF80C300020064605462C4B9F79C4B26A
:100910003A188C42D2B200F101003EDA0EAE3444F5
:1009200014F8344C1A44654082F808410126EEE779
:100930000623234A8DF8083053888DF80A008DF875
:100940000B301B0A8DF80C3093881A4A8DF80D3045
:1009500013601B0A8DF80E300B21D3E70D238DF8A1
:100960000B3003238DF80A008DF808300821C9E701
:1009700006238DF80830134B0E4A5B688DF80A0089
:100980001360C3F307228DF80C20C3F307428DF8E0
:100990000B308DF80D201B0EDCE706B19A719A79A9
:1009A000511C9971134483F808510FB0F0BD00BF7A
:1009B0007C090020C40A0020B00900204405002062
:1009C000A80B0020580C002010B5094C09482378CA
:1009D00023B104F0B1FE0023237010BD04F09FFE8C
:1009E000012360602370A320BDE81040FFF732BFF1
:1009F000580C00205809002010B5304C1120FFF78A
:100A000029FF22786378002A38D0032B21D8DFE829
:100A100003F03B022130237B052B0CDC284A0133F9
:100A2000DBB2D1681068042B0860237311D9936876
:100A300012681A6010BD062B11D12148FFF7DDFBAB
:100A4000B0FA80F11E484909FFF7D0FB237B013340
:100A5000237310BD237B052BE0DD082BEDDD184A49
:100A6000222B916812680A60DABF0133DBB20023DF
:100A7000EEE7237B052BD1DD0A2BEFE7032BE8D82C
:100A8000DFE803F0020D16190D48FFF7B6FBBDE8CD
:100A90001040B0FA80F10A484909FFF7A7BB237B51
:100AA000012BCADD064A1D2B916812680A60DBE73C
:100AB000237B032BF5E7237B052BF2E7B00900200E
:100AC000B802002008B51B4B9A681B4BB2F57A7F21
:100AD00024DBB2F5FA6F194A1ADB0021197059703C
:100AE000174BD8681B680360164BD8681B680360F7
:100AF000154BD8681B680360144BD8681B680360EB
:100B00005170FFF745FCBDE808401120FFF7A2BE79
:100B100001211970002311705370F4E7197839B965
:100B20005A780132D2B2032A94BF5A705970EAE758
:100B300008BD00BFC80A0020B0090020B80B002083
:100B40007403002090030020AC030020C8030020A1
:100B500038B5154C2378032B24D8DFE803F00207BF
:100B60000C1463780BB10323237038BD6378002B1A
:100B7000FBD10223F8E76578A5B90C4804F0D3FD52
:100B80002570606038BD6378002BEDD001230748E5
:100B9000237004F0C8FD6368C01AA060BDE8384047
:100BA000FFF790BF0123DFE7C80A0020900900206B
:100BB00008B5084804F0D5FB58B1074B0748DA7967
:100BC000511CD971134493F80811BDE8084005F091
:100BD000EFB908BDDC0A0020440500208C0B002082
:100BE000F8B5154DAC79EE79A642C8BF04F1FF34D3
:100BF000A41BE4B2204606F06BF80746D0B10023F0
:100C00001946F218581CDBB2A342D2B206DA2A44C3
:100C100092F808210121FA540346F2E701B1EA7182
:100C200022463946054800F0B1FE3846BDE8F84096
:100C300006F056B8F8BD00BF4C070020D9090020C7
:100C4000C36810B504460BB19B689847204610BD99
:100C500038B505460446064B45F8283B04F0CFFC62
:100C60002846FFF7EDFF204604F0B6FD204638BDCC
:100C70008898000810B50446FFF7EAFF2046402197
:100C800005F04BFC204610BD10B50446024B036036
:100C9000FFF7DEFF204610BD9C98000808B503460C
:100CA00053F8042B02B9036002689A4204D0682208
:100CB0000249034805F0A4F9184608BDDC8C000879
:100CC000FC8C000808B50248FFF7E8FF08BD00BF2C
:100CD0002012002008B50248FFF7E0FF08BD00BF62
:100CE00020120020F8B504460F460546074B084E73
:100CF00044F8043B3046FFF7D1FF3946204601F067
:100D0000C1F83046FFF7CAFF2846F8BDC08C00087E
:100D10002012002038B50D4604461022002106F0AE
:100D20000FF82B682360014BE36038BDD08C0008BE
:100D30002DE9F04FBE488FB000F040FEBD4804F0F2
:100D4000B1FCBD4804F0AEFCBC4A0EA913780AA859
:100D50006FF300031370BA4BBA4C41F8183DFFF71C
:100D6000D9FF00220AA9B84804F084FB0AA8FFF7BB
:100D700067FFB64B0EA941F81C3D0AA8FFF7CAFF52
:100D80004CF2503200230AA9B14804F01BFC0AA817
:100D9000FFF756FF0EA941F8204D0AA8FFF7BAFF4A
:100DA0000AA9AC4804F0FDF90AA8FFF749FF0EA90B
:100DB00041F8244D0AA8FFF7ADFF0AA9A54804F0A1
:100DC00016FA0AA8FFF73CFFA34B0EA941F8283DED
:100DD0000AA8FFF79FFF0AA9A04804F0E2F90AA8B1
:100DE000FFF72EFF9E4B0EA941F82C3D0AA8FFF7F6
:100DF00091FF0AA99B4804F0D4F90AA8FFF720FF45
:100E00008C4804F090FCDFF8A0B2DFF8A092CBF899
:100E1000100005F011F94FF47A71934802F046FB87
:100E200005F020F905F008F94FF47A718F4802F0C7
:100E30003DFB05F017F98E48FFF769FA7D4804F08D
:100E400072FC01238B4DC9F808007A482B7004F01E
:100E50006AFC00262823884CE86076482B742673A9
:100E600004F061FC854F667026707E70A060FFF70D
:100E70008FFAAA466F4E824D6D4800F051FF304602
:100E800004F051FCDAF80C30C01A9AF8103098428D
:100E900012D300233046CAF8083004F044FCCAF8E4
:100EA0000C007848FFF7A9F9002800F0158101230C
:100EB0008AF80130FFF74CFE304604F034FCA3689A
:100EC000C01A632805DD304604F02DFCA060FFF752
:100ED00093FD304604F027FCD9F80830C01AB9F861
:100EE0000630984217DB304604F01DFCC9F80800B4
:100EF0006548FFF70CFA4FF06408B0FBF8F0A9F86A
:100F000002005B48FFF703FAB0FBF8F0A9F8040011
:100F1000A020FFF79FFC5A4B1B78E3B1304604F04A
:100F200002FC574B9B68C01A554B9B88984212DBBA
:100F30000023534A1370554BDA681B681360544BF7
:100F4000DA681B681360534BDA681B681360524BF6
:100F5000DA681B681360304604F0E5FBDFF8508167
:100F6000D8F80C30C01AD8F8103098421BDB304645
:100F700004F0D9FB494BC8F80C009A681B680EA90D
:100F80001360012388F80030454B0AA841F8143D4E
:100F9000FFF7C0FE43480A2200230AA904F012FB0F
:100FA0000AA8FFF74DFE304604F0BDFBDBF8103019
:100FB000C01ABBF80C3098420CDB304604F0B3FB8F
:100FC000CBF81000A420FFF745FC0023CBF8043039
:100FD000CBF808302378002B00F0B2806378022B26
:100FE00000F0E380032B00F01582012B40F0A88075
:100FF00040F2AA52D8F80410914277D9234A3046D9
:10100000D168126801930A60214AD16812680A60A7
:10101000204AD16812680A601F4AD16812680A60C3
:1010200004F081FB7A68801A3A89904242E000BF5E
:10103000D90900209009002058090020D809002073
:1010400055020008C9090008DC0A00202D0200082A
:10105000C80B0020080C00200D020008D40200205C
:101060001D02000824030020540400207004002006
:10107000E4030020C80A0020B0090020B80B0020BB
:10108000CC0900209C0200201C04002074030020D6
:1010900090030020AC030020C8030020A804002017
:1010A000E5020008C80400207C090020A80B0020ED
:1010B000580C002044DB304604F035FB97F9012042
:1010C0007860592A0BDD019BA370A37863B12D3A98
:1010D0007A70FFF75DF933E08AF80100EAE612F171
:1010E000590FF2DA0023EFE72D32F1E7D8F80420A8
:1010F000B2F5DC7F40D997F90120002A09DA4FF4D4
:10110000AF706B70AB70FFF761F910236B70AB7051
:1011100012E04FF010080BD04FF4AF706B700193DA
:1011200085F80280FFF752F985F80180019BEEE710
:10113000112385F802806B704FF4AF70FFF746F90A
:10114000DFF8CC8298F8052098F8043040469A429F
:1011500001D0FFF713FB98F8072098F806309A4261
:1011600001D0FFF725FDA54BDA799B799A423FF430
:1011700083AEFFF735FD7FE6D8F80420B2F59F7FF8
:1011800002D811226A70C2E79D4BDA681B681360AF
:101190009C4BDA681B6813609B4BDA681B68136012
:1011A0009A4BDA681B681360CAE7D8F80430B3F5C5
:1011B000117F17D2924BDA681B681360914BDA6883
:1011C0001B681360904BDA681B6813608F4BDA68FA
:1011D0001B68136094F904304BB90122A37022718B
:1011E0002261636194F904300BB9FFF79BF994F91C
:1011F0000430013B032BA3D8DFE803F002345FD5B2
:10120000236953B100233046236104F08CFAA3789C
:1012100060612BB39C237B705BE7304604F083FA5C
:101220006369C01AB0F5C87F8ADB304604F07BFAE8
:10123000D8F804302061B3F57A7F08D20123236106
:10124000A37813B10023A3707AE70123FBE70223FD
:101250003046237104F067FAA3787860002BD9D068
:101260007823D8E74FF00108A37885F80180C3B14F
:101270004FF4FA7085F80280FFF7A8F810236B701E
:10128000AB704FF4FA70FFF7A1F8304604F04BFA58
:101290007B68C01AB0F5167FFFF652AF03232371A7
:1012A0004EE710234FF4FA70AB700193FFF78EF8FE
:1012B000019B85F802806B70E3E7A378002B49D08F
:1012C000D8F80430B3F57A7F26D901234FF01008FF
:1012D0004FF416706B7085F80280FFF777F885F889
:1012E0000180962085F80280FFF770F899F80C309D
:1012F000B9F804209A4204DCB9F802209342BFF600
:101300001FAF00237B70FFF743F80423304623719F
:1013100004F009FA786013E7D8F804304FF01008A9
:10132000B3F52F7F4FF0010385F802806B7008D969
:10133000FA20FFF74BF885F8018085F802806420D9
:10134000D2E76420FFF742F885F8018085F8028033
:10135000FA20C9E7D8F80430B3F57A7F0CD94FF0FA
:1013600010084FF4167085F8018085F80280FFF7A9
:101370002DF801236B70B4E7D8F804304FF0100853
:10138000B3F52F7F85F8018085F8028005D9FA2012
:10139000FFF71CF801236B70CFE76420FFF716F806
:1013A00001236B70D2E7A3784FF01008CBB14FF454
:1013B000FA7085F8018085F80280FFF707F80123AD
:1013C0006B704FF49670AB70FFF700F8304604F086
:1013D000AAF97B68C01AB0F5FA7FFFF6B1AE002318
:1013E0005DE701234FF4FA706B70019385F802807A
:1013F000FEF7ECFF85F80180019BE2E74C07002037
:101400007403002090030020AC030020C8030020D8
:101410004405002094F904308BB9FFF783F8E37892
:101420006BB194F9043053B901223046A370019393
:101430002271226104F077F9019B6061237694F9AF
:101440000430022B79D0032B00F0C180012B7FF4F4
:1014500077AE304604F067F96369C01AB0F57A7F59
:101460000EDB40F2CB622369D8F8041001339142BD
:10147000236144D8022B0AD1237E43F00203237652
:101480002369022B09D0042B7FF45AAE05E0042B0C
:1014900012D1237E43F004032376304604F043F94F
:1014A0002369606101332361A378002B43D09C231F
:1014B0007B70FEF76DFFC3E6062B7FF441AE237E03
:1014C00043F00103237602233046237104F027F909
:1014D00005F066FF05F08CFF002800F00100237E78
:1014E000B8BF404260616BB903233046237104F0FA
:1014F0001AF97860304604F016F97860C0E7062BD8
:10150000BED1E0E7062B02D10123A370F2E7032B43
:1015100001D10023F9E7012B03D10028F9D00223E0
:10152000F3E7042B02D10028F9D1EDE7022BE1D13A
:101530000028EED1E8E77823BAE7304604F0F3F864
:101540007B68C01AB0F5967F22DB01234FF01008AC
:101550004FF4FA706B7085F80280FEF737FF85F85C
:10156000018085F802804FF4FA70FEF72FFF3046B5
:1015700004F0D9F87B68C01AB0F5167FFFF6E0AD2D
:1015800000232371A3707B70236163612376A0E540
:10159000A3786BB910234FF001084FF4FA70AB70C9
:1015A000019385F80180FEF711FF019B6B70D8E76E
:1015B000012B09D14FF4FA706B70AB70FEF706FF88
:1015C00010236B70AB70CEE7022BD0D1BDE70123A7
:1015D0004FF4FA706B70AB70FEF7F8FE10234FF407
:1015E000FA706B70AB70FEF7F1FE304604F09BF8BA
:1015F0007B68C01AB0F57A7FFFF6A2AD0023237195
:10160000A37023616361237605E600BF10B504462D
:10161000FEF740FE2046CC2104F07FFF204610BD9F
:10162000A0F1B000F2E7A0F1B400EFE710B5044676
:10163000FFF72AFB2046402104F06FFF204610BD33
:10164000F8B51C276F4D704C2D217048FEF752FEE7
:101650004FF4E1330A220921284603F027FE2246EF
:101660006B49284601F046FA6A4D6B494FF4807386
:101670000A1D6A4E0831284600F058F9224668498A
:10168000284601F037FA674D13213046FEF750FE29
:101690003046654E2246294601F02CFA0821304694
:1016A000FEF746FE3046614E2246294601F022FAF8
:1016B00014213046FEF73CFE30465D4E2246294658
:1016C00001F018FA5B4D01213046FFF70BFB304665
:1016D000594E2246294601F00DFA00213046FFF707
:1016E00001FB3046554E2246294601F003FA0421FB
:1016F0003046FFF7F7FA2946514D2246304601F0B1
:10170000F9F93A460021284605F01AFB284604213B
:1017100004F092F81D214B48FEF7ECFD15214A48D4
:10172000FEF7E8FD16214948FEF7E4FD484D1E216D
:101730004848FEF7DFFD1F214748FEF7DBFD474E17
:10174000284604F00AF82846454D3146224601F065
:10175000D1F9284604F001F82846424D3146224688
:1017600001F0C8F92846FEF7FFFD28463E4D224607
:101770003E4901F0BFF92846FEF7F6FD3C4E3D4BD1
:1017800022463D4928462B6001F0B4F93B4D3946CD
:10179000304603F0ABFC3046394E2246294601F074
:1017A000A9F91821304603F0A1FC3046354E2246F7
:1017B000294601F09FF91921304603F097FC224693
:1017C0002946304601F096F94FF4C87100232E4A9D
:1017D0004FF4FA701181642113702C4A1370137244
:1017E000536011612A4A13702A4A13705360908122
:1017F0009360294AD1801E2113701173274A937078
:101800001370F8BDDC0A0020F0000020B8020020B0
:1018100095020008D90900204C0700208C04002004
:1018200065190008C9020008540400207004002053
:10183000E40300200B0200081C0400200C0500201B
:101840009C020020A80400207403002090030020C4
:1018500090090020AC030020C80300208556000832
:1018600058090020C80B0020C8040020510C0008B3
:10187000080C00209C980008890C000845510008BD
:10188000D402002024030020B80B0020580C0020B4
:10189000CC0900207C090020A80B0020B009002002
:1018A0002DE9F047194E1A4F1A4D304603F048FD06
:1018B00048B33B782BB9184B93F80080B8F1000F70
:1018C00008D06C781548631C6B7004F087FB2C44BF
:1018D0006071EAE7124C1148236893F80090114BAD
:1018E000D3F800A004F07AFB0AF809002268137804
:1018F0000133137023680C4A197812689142D4D9C5
:1019000083F80080D1E7BDE8F08700BFB40E002067
:10191000710E00206C0C0020F5000020640F0020E8
:10192000840E0020800E0020780E002030B50024A8
:10193000074D0470296007490A60074A1360074B86
:10194000DC705C701C719C70054B1C7030BD00BF5E
:10195000800E0020840E0020780E00206C0C0020E9
:10196000720E0020704700000122054B1A700A22F7
:10197000044B1960044B1A7000230370704700BFBA
:10198000710E0020740E00206C0C00200023F0B5B6
:101990001D46094CE778F8185E1CDBB29342C0B2D2
:1019A00006DACB5C204480F8053101253346F2E7A6
:1019B00005B1E070F0BD00BF6C0C00201FB5102217
:1019C0000021684605F0BCF90C4B002200930C4B3B
:1019D00069460C48039303F04DFD039B13B19B68CC
:1019E00068469847084803F05DFE074803F09BFEF1
:1019F000064B186005B05DF804FB00BFA118000895
:101A0000D08C0008B40E0020900E0020B00E0020F4
:101A100008B5084803F0A5FC58B1074B07481A79E8
:101A2000511C1971134493F80511BDE8084004F0E6
:101A3000BFBA08BDB40E00206C0C0020640F00205B
:101A400055201C4AD378D11881F805014E20591C25
:101A5000C9B2114481F805014520991CC9B211444D
:101A600081F805015220D91CC9B2114481F8050141
:101A70000320191DC9B2114481F805013A20591DEE
:101A8000C9B2114481F80501F020991DC9B2114471
:101A900081F805010D20D91DC9B2114481F8050155
:101AA00003F109010833DBB21344D170C82283F873
:101AB000052170476C0C0020F0B5002528462C4607
:101AC0000C4A567893789E4210D0D5186F790D5DE8
:101AD000AF4207D10134E4B20D5D002D04BF33469F
:101AE0000120F2E70133DBB20125ECE705B1967086
:101AF000F0BD00BF6C0C002070B5834C0546237808
:101B00000B2B30D8DFE813F00C0030004F006E00D4
:101B10002F008D00AD00CE002F002F002F00F00011
:101B20007A4E337832460A2B15D1F3784C1E103199
:101B300014F8015F581C0A2D1344C0B283F80551F4
:101B400004D1D0700822714B1A7070BD8C420346CC
:101B5000EED1D370F6E76E49FFF7AEFF18B10A2356
:101B600033700123237070BD684E337832460A2BE0
:101B700010D1F37801F11104243114F8015B581CE1
:101B80000A2D1344C0B283F80551DAD08C420346C3
:101B9000F3D1DEE75E49FFF78FFF0028E3D00A2389
:101BA00033700223DEE7594E337832460A2B10D1C8
:101BB000F37801F12404883114F8015B581C0A2DD4
:101BC0001344C0B283F80551BBD08C420346F3D115
:101BD000BFE74F49FFF770FF0028C4D00A233370D6
:101BE0000323BFE7494E337832460A2B10D1F378EE
:101BF00001F18804953114F8015B581C0A2D134437
:101C0000C0B283F805519CD0A1420346F3D1A0E7AE
:101C10003F49FFF751FF0028A5D00A233370052361
:101C2000A0E73A4E337832460A2B11D1F37801F10E
:101C30009504CF3114F8015B581C0A2D1344C0B22F
:101C400083F805513FF47DAFA1420346F2D180E70E
:101C50002F49FFF731FF002885D00A233370062370
:101C600080E72A4E337832460A2B11D1F37801F1FE
:101C7000CF04DD3114F8015B581C0A2D1344C0B2A7
:101C800083F805513FF45DAF8C420346F2D160E723
:101C90001F49FFF711FF00283FF465AF0A23337097
:101CA00007235FE7194E33780A2B13D1F37801F13C
:101CB000DD00E93110F8014B5A1C0A2C3344D2B232
:101CC00083F8054101D1F2703CE781421346F1D11E
:101CD000F27037E70E49FFF7EFFE80B90D4928464D
:101CE000FFF7EAFE58B970BDFFF7AAFE03220A4BC0
:101CF0001A700022094B1A7001232B7070BD0A2341
:101D000033700B232EE700BF7C0E00206C0C0020EC
:101D1000108D0008148D0008720E0020710E002036
:101D200038B5374D04462B78032B67D8DFE803F02E
:101D300002292F4C334803F0F6FC334B1B68C01AC2
:101D400042F20F73984204D90022304B1A700123DB
:101D50002B702C4803F0E7FC2D4B1B68C01AB0F524
:101D6000FA5F4BD32B492046FFF7A6FE002845D04B
:101D70000322294B1A700022244B1A7001232B7066
:101D800038BD264B1B78002B38D00223F7E7244DB3
:101D90002979EA78914201D0FFF73AFE2B78082B97
:101DA0000BD1184803F0BFFC174D2B68C01A092847
:101DB00024D9144803F0B7FC28601A4B2046196850
:101DC000BDE83840FFF798BE154B1A79DB789A4288
:101DD00001D0FFF71DFE0B4803F0A5FC0A4D2B6850
:101DE000C01A47F22F53984208D9064803F09BFCCB
:101DF00028602046BDE83840FFF722BE38BD00BF4E
:101E0000720E0020900E0020880E0020F5000020A9
:101E1000B00E0020178D00087C0E0020710E0020EF
:101E20006C0C0020740E002038B50C4C0C4D204674
:101E300003F093FC20460B4C2A460B4900F05AFE57
:101E40004FF4E13303220221204603F02FFA2A4601
:101E50002046BDE83840054900F04CBE900E0020F9
:101E6000F0000020B40E00208556000895020008FE
:101E700008B500F07BF8C0F3032343EA001080B2FA
:101E800008BD000070B5A1F1F0039BB20F2B86B026
:101E900004460D4615D92E49284603F02BFD2C4942
:101EA0002060284603F048FD29490646284603F0ED
:101EB000D9FC236801330FD13C222649264804F07F
:101EC0009FF82649284603F015FD2449206028463E
:101ED00003F032FD0646ECE7731C03D13D221D4999
:101EE0001F48ECE72586C6F304361E4D84F83260A1
:101EF000AB69012243F40073AB61AB69204603F484
:101F000000730193019B0023A3626360A360E360FD
:101F10006361A3614FF460232261E36102F022F860
:101F200010B1114804F0A0F96B6803F44043B3F515
:101F3000004F0AD0022302934FF4004302A80493F7
:101F400002F0B4FB204602F08DF806B070BD00BF71
:101F5000208D0008A88F000810900008D48D00087C
:101F60003A90000800100240539000081FB500236B
:101F700001220193042390F8321004460292039345
:101F800011293FD8DFE801F00A091C1F1D21232574
:101F900027292B2D2F313335373C019201A92046BB
:101FA00001F0A0FE204601F059FF0A21204601F071
:101FB000F7FD38BB204601F091FE80B204B010BDA1
:101FC00002230193EAE70323FBE70523F9E706234E
:101FD000F7E70723F5E70823F3E70923F1E70A23E7
:101FE000EFE70B23EDE70C23EBE70D23E9E70E23E7
:101FF000E7E70F23E5E71023019307230393CDE7DA
:102000001123F9E70020D9E7364B70B55A69D2079A
:102010002AD59868344E99683040B04208BF0126EE
:10202000324D9A6801EA050108BF9E60A94208BFC7
:102030004FF480752E4C2B4B02EA040208BF9D60C2
:10204000A24204BF4FF480349C60274B984205D0D5
:10205000264B994202D0264B9A4205D1254B264A5F
:102060001B680121106898471E4CE2686369960757
:1020700007D09D0705D51F4B1F4A1B68002110681C
:102080009847A169626963698C0709D5900507D5EE
:10209000190405D5174B184A1B6805211068984785
:1020A000104A9569546915F0040504F48064526976
:1020B00008D03CB1120405D50E4B0F4A1B6807210E
:1020C00010689847074B5B6955B14CB11B0407D5A5
:1020D000BDE87040074B084A1B680221106818478A
:1020E00070BD00BF00640040010000040001000852
:1020F00000000110840F0020800F0020FFF784BF34
:10210000FFF782BF102300F009B8202300F006B8C3
:10211000302300F003B8402300F000B8EFF308804C
:10212000042172460A4201D0EFF309809C46244BF9
:10213000196802680A60043142680A6004318268E2
:102140000A600431C2680A600431F0C147460F607A
:1021500004314F460F60043157460F6004315F462B
:102160000F60043102690A60083142690A60043173
:1021700082690A600431C2690A600431034620336F
:102180004FF40076324200D00433754610263542B3
:1021900000D148330C46103C2360EFF309820A60FB
:1021A0000431EFF308820A60043172460A60043198
:1021B000EFF314820A606046014900F097FBFEE7E6
:1021C0000892000830B50D0E91FAA1F4B4FA84F427
:1021D00091FAA1F10F23B1FA81F1A40003FA04F4FA
:1021E0004359890023EA040302FA01F119434151DA
:1021F00030BD00007FB5224B04283DD8DFE800F059
:1022000003101B2631009A691E4842F004029A61AD
:102210009B6903F004030193019B07B05DF804FB85
:102220009A69194842F008029A619B6903F0080311
:102230000293029BF1E79A69144842F010029A61F6
:102240009B6903F010030393039BE6E79A69104828
:1022500042F020029A619B6903F020030493049BDF
:10226000DBE79A690B4842F040029A619B6903F0F0
:1022700040030593059BD0E7074803F0F5FF00BF37
:102280000010024000080140000C01400010014015
:10229000001401400018014069900008431C10B56B
:1022A000044604D176220649064803F0A9FE00211F
:1022B00000F046FF012004F00F04A04010BD00BF55
:1022C0008A900008DC90000870B504464B1C0E464E
:1022D000218218D0C1F30310FFF78CFF054630466A
:1022E000FFF7DCFF238A084A03F00F0352F823307C
:1022F0006561A36105F10803636005F110031435FE
:102300002060A360E56070BDE8940008B0F910009B
:1023100001F016B821B9082281694069FFF752BF60
:102320000122F9E74C232DE9F04100254FF0010E81
:1023300043431F4F1A1D1F4C3A441F448D4203D183
:1023400001461D4803F090FF3B680EFA05F61E4259
:102350002AD0136B66690EFA03F3334224D0D2F805
:1023600018C063611668FEB1E26833EA020203D165
:10237000A26833EA020213D1A26833EA020203D14F
:10238000E26833EA02020DD1DCF80820134214BFE0
:1023900001210221094B3046BDE8F0411B68184776
:1023A0000221F7E70121F5E701350432C6E700BF56
:1023B000880F002000040140169100089C110020A5
:1023C00006210846FFF7AEBF05210846FFF7AABF62
:1023D00001210420FFF7A6BF01210320FFF7A2BFC0
:1023E00001210220FFF79EBF01210846FFF79ABF97
:1023F00001210020FFF796BF012910B518D11B4C11
:10240000838952B1A26803F00F0399401143A16080
:10241000836843F00103836010BDA26803F00F03DB
:10242000994022EA0101A160836823F00103F2E7E9
:102430000229F1D10D4983895AB10122CC6803F0F8
:102440000F0302FA03F32343CB60836843F00203D4
:10245000E1E70124CA6803F00F0304FA03F322EA58
:102460000303CB60836823F00203D4E70004014038
:102470000F22B0F90C3070B599B201F00F0606F0DA
:102480000C0404F1804404F5803401F00301A568D4
:1024900089008A4025EA02050122C3F303138B4019
:1024A0002B43A3600E4BB240196811431960846836
:1024B000E50742BF996811439960A10742BFD968F7
:1024C0000A43DA6090F90030002B08DB0122590939
:1024D00003F01F0302FA03F3024A42F8213070BDF1
:1024E0000004014000E100E02DE9F04F92464A1C53
:1024F00085B080460D4661D0314A324F916905F072
:102500000F0941F0010191619269C5F3031002F0D6
:1025100001020392039A0C2202FB09725468062CF2
:1025200049D8DFE804F0043C3E4042444600264ED1
:102530000193FFF75FFE0C2101FB09F157F801E061
:102540007A184C21A8F80C5001254FF0000B61437C
:102550001E4F92F908207B5805FA0EF51D43C8F866
:10256000044088F80020C8F808B07D50132101FB12
:1025700004E4019B07EB84014B60154BC861C3F871
:1025800000A0144BC1F834909B681032404643F8C9
:102590002260FFF76DFF584605B0BDE8F08F0E4E84
:1025A000C6E70E4EC4E70E4EC2E70E4EC0E70E4E13
:1025B000BEE70E4EBCE70E4803F056FE0846EBE7BA
:1025C0000010024040910008F1230008880F00200D
:1025D0009C11002000ED00E0E9230008E123000841
:1025E000D9230008D1230008C9230008C12300080B
:1025F000EF90000801210C22838970B503F00F03CE
:102600005A4301FA03F3DB431A4CA518A4581A4A9B
:102610006E68956801FA04F41D409560D5681D4008
:10262000D56015682B4013604C237343134AD3586D
:10263000A3431ED190F90030002B0CDB5A0903F0A4
:102640001F03994002F120030D4A42F82310BFF303
:102650004F8FBFF36F8F90F90030002B09DB012102
:102660005A0903F01F0301FA03F30549603241F8E8
:10267000223070BD4091000800040140880F002006
:1026800000E100E083894C2103F00F020C2370B4B9
:10269000012453430E4AD65843680E4A594304FA5C
:1026A00006F5545824EA05045450132101FB036332
:1026B000002102EB830461609C1D0C3302EB840457
:1026C00002EB83036160596070BCFFF793BF00BFEA
:1026D00040910008880F002008B502F057FC002048
:1026E00008BD0000104B10B51B68104C63B103F01F
:1026F0005DFB03F046FB23681844002323604FF47E
:102700007A73B0FBF3F010BD02F0A6FC23682060E2
:10271000C31A4FF47A70064A9BB211680B441360D7
:10272000B3FBF0F010BD00BFA8110020A4110020E1
:10273000A011002000B589B003F07EFC052101A89E
:1027400003F08DF8104E114D0424019A039B30467E
:102750001A6003F001FE019A049B30461A6003F0F0
:10276000FBFD013CF1D10424019A039B28461A6029
:1027700003F0F2FD019A049B28461A6003F0ECFD79
:10278000013CF1D1E0E700BFF0490200801A0600E9
:1027900010B5044603F050FC204605F028F8214609
:1027A0000246022000F046FABDE8104003F05ABC91
:1027B00010B5A2B00B460246842101A805F05EF8D0
:1027C0008328044605D9052205490DF1830004F04C
:1027D000ACFA002C02DD01A8FFF7DAFF22B010BD31
:1027E000009200080FB407B504A951F8040B019139
:1027F000FFF7DEFF03B05DF804EB04B070470000A4
:10280000F0B52C4C002526462B4F85B054F82520DA
:10281000294638460135FFF7E5FF0D2DF6D1A36CAB
:1028200004F134010293636C24480193236C244C1B
:1028300000930EC9FFF7D6FF21682248FFF7D2FFA9
:10284000E16AA26AA36AA06A256BE76B000C019596
:102850000090C3F307230297D2B21B48FFF7C2FFD1
:10286000A36A1D0603D5616B1848FFF7BBFFA36A77
:10287000180403D5A16B1648FFF7B4FFF36C1907D2
:1028800012D51448FFF7AEFF336DDA070FD51248A3
:10289000FFF7A8FFF36C5B074CBF1048104805B06A
:1028A000BDE8F040FFF79EBF0E48FFF79BFF0E48C4
:1028B000EEE700BF141300209C920008AA920008C3
:1028C00000ED00E0F9920008079300085693000815
:1028D000649300087293000881930008B193000884
:1028E000BD930008A19300088E93000813B5044619
:1028F0001548FFF777FF302C17D0402C1AD0202C2A
:102900001DD11248FFF76EFF114C1248FFF76AFF06
:10291000FFF776FF1048FFF765FF00230F4A00938B
:10292000D26B0F49204603F0BFFC0E48FFF75AFF59
:102930000D4CEAE70D48FFF755FF0D4CE5E70D4854
:10294000FFF750FF0C4CE0E70C92000835920008AE
:102950003E01FF80629200086D920008141300206F
:102960008C920008449200083F01FF804D920008BD
:102970004001FF80589200083D01FF8008B502F039
:10298000BFFA01F0F9F802F0ADFA02F0B9FA01224B
:10299000014B1A6008BD00BFA8110020002070473D
:1029A000036801221B6900211847002203681146B1
:1029B0001B69184703681B69184703689B69184718
:1029C00003689B6A184700290CBF6FF018000020AD
:1029D0007047012070471120704770476FF01C004E
:1029E00070476FF015007047012070470020704756
:1029F00070470000F8B515460C46064E8F18BC42CD
:102A000005D014F8011B304601F084F8F7E728469A
:102A1000F8BD00BF6813002038B58DB215F0010471
:102A200005D0084800F08AFE041C18BF0124EB06FC
:102A300005D5044800F098FE08B144F01004204683
:102A400038BD00BF6813002010B5044604F048F9F3
:102A5000204610BD10B50C462AB1044801F044F8D8
:102A60002070012010BD104610BD00BF681300206B
:102A700038B51D46074B04460360074B1B6833B946
:102A8000064800F0CBFE2946044800F0A1FE20468F
:102A900038BD00BFD49300080C120020681300203A
:102AA000002070470020704708B5012000F096F91B
:102AB0000C4A10B513681844EFF30881884205D317
:102AC0000C22094B4FF0FF301A6010BD07490C680B
:102AD00024B10749096821448842F1D210601846A0
:102AE00010BD00BFF8010020C0140020C411002058
:102AF000C81100200120704701207047002104F018
:102B000073BD7047704708B5FFF7FBFF08BD08B5F8
:102B1000FFF7F8FF08BD000008B5037803F00302D3
:102B2000012A0BD02AB140F28C520549054803F026
:102B300067FA43F002030370012008BD002008BDBE
:102B40001C9400086B94000808B5037803F0030296
:102B5000022A05D040F294520449054803F050FA85
:102B600023F0030343F00103037008BD1C94000825
:102B7000919400083F2870B504462FDC184D55F895
:102B800020305A1C13D1022811DCFFF78BFF0346BB
:102B900058B92046FFF784FF034630B9114E337809
:102BA000BFF35B8FDB0704D50F4B45F82430184685
:102BB00070BD3046FFF7B0FF0028F5D04FF4165334
:102BC000032202210848FFF753FF3046FFF7BCFFFE
:102BD000064A07490448FFF78DFFE5E70023E6E7CB
:102BE000F8000020AC110020C0110020F0000020EF
:102BF000F129000838B505460024FFF7BBFF0B4B51
:102C000043F8254030B903F08BFC092303604FF0F3
:102C1000FF3038BD03685B699847051E04DA03F08E
:102C20007FFC6D420560F2E7204638BDF8000020C9
:102C3000FFF7E0BF38B50C461546FFF79BFF38B9E4
:102C400003F06EFC092303604FF0FF34204638BDCB
:102C500003682146DB682A469847041EF6DA03F02B
:102C60005FFC64420460EFE708B5131E06DA03F068
:102C700057FC162303604FF0FF3008BD04D0FFF768
:102C8000D9FF40EAE07008BD184608BD38B50C46CB
:102C90001546FFF76FFF38B903F042FC09230360C4
:102CA0004FF0FF34204638BD036821469B682A4612
:102CB0009847041EF6DA03F033FC64420460EFE741
:102CC000002A08B503DBBDE80840FFF7DFBF03F0CB
:102CD00027FC162303604FF0FF3008BD10B5FFF747
:102CE00049FF044628B903F01BFC09230360204672
:102CF00010BD0368DB699847041EF8DA03F010FC86
:102D0000644204600024F2E71FB504220C4640230D
:102D10000DEB020101900DF109008DF8083004F06F
:102D200004F8214602A803F041FE044630B10198A0
:102D3000FFF7D4FF10B12046FFF7E0FE204604B0B5
:102D400010BDFFF7CBBF38B50C461546FFF712FF95
:102D500038B903F0E5FB092303604FF0FF34204648
:102D600038BD036821461B692A469847041EF6DAD7
:102D700003F0D6FB64420460EFE7FFF7E4BF10B551
:102D8000FFF7F8FE30B903F0CBFB092303604FF0E7
:102D9000FF3010BD03689B699847041E04DA03F0F6
:102DA000BFFB64420460F2E7002010BD05460A4CF8
:102DB00008B52368986803F0C5FC2368D86803F059
:102DC000C1FC0120FFF7DBFF0220FFF7D8FF0DB1A8
:102DD000FFF7B0FCFEE700BF0402002008B5FFF7D4
:102DE000E5FF38B50D46FFF7C5FE044630B903F0E0
:102DF00097FB092303604FF0FF3038BD0368DB69A0
:102E00009847002814BF4FF400534FF400436B6001
:102E1000236820469B6A98472861002038BDFFF749
:102E2000E0BF03F05DBF000010B504460948FDF7A0
:102E300035FF00231946084A52F82300A04208BF74
:102E400042F823100133402BF6D10248FDF726FF4C
:102E500010BD00BFB0110020F800002010B5032401
:102E60000E48FDF71BFF0E4B53F824206AB10134C6
:102E7000402CF9D103F054FB182303600748FDF7F9
:102E80000DFF4FF0FF34204610BD4FF0FF320348D6
:102E900043F82420FDF702FFF5E700BFB011002042
:102EA000F800002010B50446FFF7D8FF0028A4BFA3
:102EB000014B43F8204010BDF800002070B50646D5
:102EC0000C46FFF7EFFF054690B12146FFF71CFFC8
:102ED000044630B9074B53F82520964203D143F8F6
:102EE0002500204670BD03F01BFB09230360F8E7B3
:102EF0000446F6E7F80000200EB42DE9F04185B055
:102F00000546FFF7ABFF041E13DB0023294602A88A
:102F1000019302F061FF02A802F0AEFF1B4D0646CE
:102F200068B903F0FDFA1323036045F824604FF0FD
:102F3000FF34204605B0BDE8F04103B0704702A859
:102F400002F088FF074602A837B102F08CFF01901B
:102F5000019B45F82430ECE702F073FF0646002899
:102F6000DFD0036802A8D3F8088002F05FFF0B9B54
:102F7000024601A93046C04706460028E8D003F0C3
:102F8000CFFA7642066045F82470D0E7F8000020BA
:102F900073B50E461849054604F01FFC044620B9D7
:102FA000FFF7E8FD204602B070BD1449284604F042
:102FB00014FC20B90120FFF7DDFD0124F2E71049E0
:102FC000284604F00AFC20B90220FFF7D3FD0224B2
:102FD000E8E72B78402B07D10422691C0DEB020097
:102FE00003F0A3FE019CDDE726F400412846FFF72D
:102FF00083FF0446D6E700BFD8940008DF9400089A
:10300000D094000870477047074B10B59A6807497D
:103010000748043A52F8044F41F8044F8142F9D16D
:103020004FF000529A6010BD00ED00E0FCFFFF1F62
:10303000E800002008B5FFF7E7FFFFF79FFCFFF768
:10304000E2FF08BD08B5FFF7DDFFBDE80840FDF76A
:103050006FBE30B50D0E91FAA1F4B4FA84F491FA72
:10306000A1F10F23B1FA81F1A40003FA04F443594A
:10307000890023EA040302FA01F11943415130BDEA
:1030800030B50D0E91FAA1F4B4FA84F491FAA1F1DD
:103090000423B1FA81F1A40003FA04F4435989002E
:1030A00023EA040302FA01F11943415130BD10B57E
:1030B00091FAA1F2B2FA82F291FAA1F394000F22EE
:1030C000B3FA83F3090E4058A24010409B00D84049
:1030D00010BD70B5164605460C46FFF7E8FF012EF9
:1030E0000AD0022E1CD0082829D121462846BDE846
:1030F00070400422FFF7ADBF042804D10822214606
:103100002846FFF7A6FFEB68240A94FAA4F223EA04
:103110000404B2FA82F2012393401C43EC6070BDB8
:10312000042804D1082221462846FFF792FFEB68C5
:10313000240A23EA040394FAA4F4EB6070BD70BD82
:10314000B0F1FF3F2DE9F3478246894604D13E2284
:103150007549764802F054FF1FFA80F8744B08F066
:103160000F02C0F3031001F0070553F82240FFF7E8
:1031700041F8012D06466F4F40F0C780210E94FAAA
:10318000A4F3B3FA83F394FAA4F04FF0030EB0FA69
:1031900080F072589B000EFA03F322EA03032A46DA
:1031A00080000EFA00FE43EA0E03735021463046BB
:1031B000013DFFF74EFF012D07D819F0080218BF97
:1031C000042221463046FFF75BFFC9F30112214676
:1031D0003046FFF77EFFBB6943F00103BB61BB696B
:1031E00003F001030193019BA8F10D03012B79D892
:1031F000514A536823F0E06343F080635360A8F1C1
:103200001308B8F1010F77D86FE0BB69C9F3032247
:1032100043F00103BB61BB6903F001030093009B12
:1032200082B1531E092B0DD8DFE803F0050E151CE3
:10323000232C353E454D404A536843F0E06343F04C
:10324000010353600922B1E73B4A536843F0E0634E
:1032500043F00203F5E7384A536843F0E06343F074
:103260000403EEE7344A536843F0E06343F0080395
:10327000E7E7314A536823F0300343F0E06343F05B
:103280001003DEE72C4A536823F0C00343F0E063E9
:1032900043F04003D5E7284A536823F4406343F0E2
:1032A000E06343F40063CCE7234A536843F0E063F0
:1032B00043F44073C5E720494B6843F0E06343F4AF
:1032C00040634B6072E71C4A536823F4C04343F0E9
:1032D000E06343F48043B4E767221349174839E7B2
:1032E000002263E7BAF10F0F89D1134A536823F024
:1032F000E06343F00073536002B0BDE8F087012241
:1033000021463046FFF7A5FE57E7032DE4D801A379
:1033100053F825F025330008FF3200080B3200086F
:10332000E1320008082241E728950008DC900008F7
:10333000E89400080010024000000140079A0008CD
:10334000431C70B50E4604D188221A491A4802F06F
:1033500057FE1A4B00F00F02C0F3031053F822403F
:10336000FEF748FF21460546FFF7A1FE20F00800C2
:10337000012807D1F31E022B0DD80422214628462E
:10338000FFF77EFE032E0BD1012221462846BDE821
:103390007040FFF79EBE002221462846FFF770FED0
:1033A000012EF1D0052E01D0022E01D10222ECE730
:1033B0000022EAE728950008DC900008E89400085D
:1033C00030B50C460268284B89B005461A600021CA
:1033D000204605F0C5F950BB4FF07E51204605F060
:1033E000DDF908B14FF07E54E86804F0C3FF2146D0
:1033F00005F018F804F094FE1C4B002204F032FD96
:1034000004F0E2FE60230193AB682861B0FBF3F0A7
:103410000023039305930693049307932B7D029057
:10342000013B032B1BD8DFE803F012040E1000242D
:10343000DAE70424224601A90B4801F043FB40B11E
:103440000B4802F011FF0824F4E70C24F2E70024F3
:10345000F0E76B7D214604481BB101F0EFFB09B09A
:1034600030BD01F0C7FBFAE7CC1100200000E03FBF
:10347000F995000838B5C46894B1006904F07AFF82
:103480000546204604F076FF0146284605F07EF802
:103490004FF07E51044605F081F918B9204638BD39
:1034A0000024FBE74FF07E54F8E7000000232DE9ED
:1034B000F04FD0F80080494C87B0009305460E4687
:1034C000C4F80080FFF7D6FF41F21113D8F820208E
:1034D00083461A420BD140F24443D8F820201A42C6
:1034E00002BFD8F8003023F00103C8F8003001A86B
:1034F000694601F0BDF800222868394BD1B253F873
:10350000317001328742F9D110B9364802F0ACFE71
:1035100003EBC1031B79002B3ED101F089F8009029
:10352000049801230099AB602F4B002839D1B1FBDF
:10353000F3F3013B63602C4B4FEA4108B1FBF3FE10
:10354000002106F1FF3CB8FBF3F88A4663464FF6CC
:10355000FE796268C4F80CC0B3F5803F25D2B2F59D
:10356000803F22D2BAF1000F00D0626001B1E36067
:1035700000231A482361A36001F05EFA30BBEE60BD
:1035800059462846FFF71CFF2268136843F00103E1
:10359000136007B0BDE8F08F01F05AF8009005986D
:1035A000BFE74A00B2FBF3F3C3E7AB685B00AB6075
:1035B00070B90EFB03F2BCFBF3F34B4502F1FF3293
:1035C00009D8B2F5803F06D36260E36007489DE703
:1035D00008FB03F2EFE701218A46BDE7CC1100208A
:1035E00010960008E495000840420F00F995000885
:1035F00030B50D46044685B03249284602F07AF9C6
:103600002060013004D12E222F49304802F0F8FC0E
:103610002C49284602F090F9431C03D132222A4952
:103620002B48F3E7C0F3043323752A4A2368C0F319
:103630004040934260751AD1274B9A6942F4006268
:103640009A619B6903F400630093009B28461D491F
:1036500002F008F90023E36023610123A580A36041
:1036600044F620612046FFF721FF05B030BDB3F1DD
:10367000804F0BD103F50433DA6942F00102DA61BD
:10368000DB6903F001030193019BDFE7134A9342D7
:103690000AD1114BDA6942F00202DA61DB6903F008
:1036A00002030293029BD1E70D4A9342CED10A4B0B
:1036B000DA6942F00402DA61DB6903F00403039380
:1036C000039BC3E7F88D000878950008CC950008A7
:1036D0003A900008002C0140001002400004004015
:1036E000000800404FF47A735943FFF7DFBE38B546
:1036F0000446084604F042FE0546E06804F03AFE3F
:103700000146284604F042FF01462046BDE8384005
:10371000FFF756BE0FB407B5064B05AA1B6806494E
:10372000D868019203F052FC03B05DF804EB04B0DA
:10373000704700BF04020020389600084368094A19
:103740009B01D35882B01A68120706D50022019255
:103750001A6801925A680192019A1868C0F34010E1
:1037600002B07047B41300204368034A9B01D3584A
:103770001868C0F3C0107047B4130020426810B43A
:103780001249046892015450531882685A60C26802
:103790009A600269DA6042691A61026A9A610022DB
:1037A000DA84DA619A84DA859A85B0F91A200132CE
:1037B00005D108225A61184610BC01F0F0BAB0F9E0
:1037C000182001320CBF04220C22F3E7B4130020AE
:1037D00010B581600C46FFF7D1FF28B12146BDE846
:1037E00010400248FFF796BF10BD00BF3896000892
:1037F000094B98420BD0A3F57443984209D003F5C6
:10380000806398420CBF02204FF0FF3070470020C9
:1038100070470120704700BF00380140F0B50E46E8
:1038200085B0044643493046154602F063F84249E4
:103830000746284602F05EF80146384602F036F8A0
:103840002060013004D13D223C493D4802F0D8FBC4
:10385000022E0AD0032D08D03649022002F04AF881
:1038600087421BD1374802F0FFFC01272068364B06
:10387000984215D103F558439A6942F480429A61FF
:103880009B6903F480430193019BFFF7B1FF00287C
:10389000606023DAA42229492C48D7E70027E5E70E
:1038A0002B4B98420BD103F5E633DA6942F4003230
:1038B000DA61DB6903F400330293029BE5E7254BF1
:1038C0009842E2D103F5E433DA6942F48022DA6106
:1038D000DB6903F480230393039BD6E71549304645
:1038E00001F0C0FF1449284601F0BCFF721C03D050
:1038F00001213046FFF724FD6B1C03D0012128462F
:10390000FFF71EFD4FF41653A36000232683E360E8
:1039100023616361236265832046FFF72FFF3FB178
:1039200001220D4B21461A600C484C2203F0FDF990
:1039300005B0F0BD608F0008188F0008629600087F
:10394000B6960008D2960008003801400797000894
:1039500000440040004800400C1200206813002082
:10396000002808DB0123420900F01F0003FA00F0E1
:10397000014B43F82200704700E100E000280DDB16
:103980000122430900F01F0002FA00F0044A20332C
:1039900042F82300BFF34F8FBFF36F8F704700BF14
:1039A00000E100E0F7B5FFF723FF071E26DB144E0A
:1039B00056F8270010B3134CBD0163591A6812065C
:1039C00006D5DB68190603D50F4B01211B68984704
:1039D00063591A68920608D5DB68980605D50A4B24
:1039E00000211B6856F82700984763591A68110789
:1039F00004D55A69D20744BF5B68019303B0F0BD98
:103A000014120020B4130020101200200148FFF708
:103A1000C9BF00BF004800400148FFF7C3BF00BF57
:103A2000004400400148FFF7BDBF00BF003801401F
:103A3000034B19604168034B43F82120704700BFD6
:103A4000101200201412002030B409C81E4CA042ED
:103A500013D125201D4C1E4D9B01FAB1EA58D368A5
:103A6000C9B943F02003D3601A4B00F110029B68E0
:103A700043F8224030BCFFF773BF174CA04202D17D
:103A8000164C2620E7E7164CA04213BF0024154C25
:103A900027202046DFE743F08003E4E7EB58DA68AD
:103AA00049B922F02002DA60DB6813F0800F09D1F7
:103AB00030BCFFF763BF22F08002DA60DB6813F0EE
:103AC000200FF4E730BC704700380140253A000869
:103AD000B413002000ED00E000440040193A000853
:103AE000004800400D3A000838B5054644682846AD
:103AF000FFF724FE0028FAD0054AA301D358E9684D
:103B0000586809B9C0B238BDC0F3080038BD00BF5D
:103B1000B413002070B506460C4645683046FFF7E2
:103B200023FE0028FAD0054AF168AB01D35811B939
:103B3000E4B25C6070BDC4F30804FAE7B41300207B
:103B400008488546002103E0074B5B584350043189
:103B50000648074B42189A42F6D301F063F9FCF786
:103B60000BFBFEE700500020D49E0008F000002070
:103B700080020020FEE77047074A08B5136803205B
:103B800043F01003136000F0D5FA0F20FEF7A4FDF8
:103B9000FFF7F1FF002008BD002002407047000041
:103BA000F7B5002604460D460196FEF79BFD2368F7
:103BB00007469A68D20508D50120A36A84F82460D4
:103BC00043F02003A36203B0F0BD5A68D60503D4C6
:103BD000DB6A13F4700F3BD03A4B02201E6800F0F2
:103BE000DDFD2368384A1969B6FBF0F01142374A07
:103BF0004FD1DE6836490E424BD11969114259D175
:103C0000DA68344B1A4214BF2923142300FB03F64D
:103C1000019B9E4220D96B1C05D05DB1FEF762FD71
:103C2000C01B854206D3019B01330193F0E7681C5A
:103C30000FD045B9A36A032043F00403A362002315
:103C400084F82430BFE7FEF74DFDC01B8542F1D359
:103C5000226813689907EAD56FF01203226813608F
:103C6000A36A43F40073A362936803F46023B3F57B
:103C7000602F25D1E3681BBBA36A23F48073A36282
:103C8000A06A10F480501BD1A36A43F00103A36221
:103C900099E71969114203D1D9680E4A11420BD034
:103CA00019690D4A114209D1DB68134214BFFC2384
:103CB0005423ABE72923A9E75423A7E7FC23A5E76F
:103CC000002080E7FC01002024499224922449121C
:103CD0002449920092244900499224000368D86C38
:103CE00070470000002373B5019390F82430012B36
:103CF00074D001234D6880F82430062D02684FEA05
:103D000085030C6825D82B441F25566B053B9D4029
:103D100026EA050504FA03F32B435363092C4FEA03
:103D200044038D682FD907262344D1681E3B9E404B
:103D300021EA060105FA03F30B43D360A4F1100353
:103D4000012B2BD90023002280F82420184602B032
:103D500070BD0C2D0BD82B441F25166B233B9D40AB
:103D600026EA050504FA03F32B431363D6E72B4435
:103D70001F25D66A413B9D4026EA050504FA03F358
:103D80002B43D362CAE70726116923449E4021EAE8
:103D9000060105FA03F30B431361CFE7104B9A4278
:103DA00016D193681B02CDD49368102C43F4000302
:103DB0009360C7D10B4B0C4A1B68B3FBF2F20A238A
:103DC00053430193019B002BBCD0019B013BF8E7BF
:103DD000836A43F0200383620123B4E70223B5E73B
:103DE00000240140FC01002040420F00002373B575
:103DF0000193036804469A68D20702D5002002B0F6
:103E000070BD9A6842F001029A60124B124A1B6818
:103E1000B3FBF2F30193019BC3B9FEF763FC0646C3
:103E200023689D6815F00105E8D1FEF75BFC801B57
:103E30000228F5D9A36A84F8245043F01003A36242
:103E4000E36A012043F00103E362D8E7019B013BF1
:103E5000E0E700BFFC01002040420F0090F8243052
:103E600010B5012B044654D0012380F82430FFF70D
:103E7000BDFF002849D1A36A274A23F4407323F0E9
:103E8000010343F48073A3622368934204D123495E
:103E90004A6812F4702F2ED1A26A22F48012A26214
:103EA0005A68520541BFA26A22F4405242F480523D
:103EB000A262A26A12F480521CBFE26A22F00602D9
:103EC000E262002284F824206FF002021A609A68ED
:103ED00002F46022B2F5602F13D10F4A934205D14C
:103EE000A2F58062526812F4702F0AD19A6842F4E7
:103EF000A0029A6010BDA26A42F48012A2624A68CF
:103F0000CFE79A6842F48012F3E7002384F8243064
:103F100010BD022010BD00BF002801400024014058
:103F200038B5036804469A68D20701D4002038BD2A
:103F30009A6822F001029A60FEF7D4FB05462368D6
:103F40009B68DB07F2D5FEF7CDFB401B0228F6D9B4
:103F5000A36A012043F01003A362E36A43F0010364
:103F6000E36238BD70B50446002871D0836A23B976
:103F7000C36280F82430FFF711FE2046FFF7D0FF20
:103F8000A36A13F0100FA36A64D1002862D1E1691B
:103F900023F48853626823F0020343F002030A43C8
:103FA000A168A362E368B1F5807F42EA430238D09A
:103FB000012914BF06464FF480766569012D07D1AB
:103FC000002B30D1A369013B46EA433545F4006636
:103FD0002368B1F5807F5D6825F4694545EA0605EB
:103FE0005D609E681D4D05EA060545EA02059D6077
:103FF00001D0012920D1216901390905DD6A25F4A3
:1040000070052943D9629968154B0B409A4215D126
:104010000023E362A36A23F0030343F00103A362D6
:1040200070BD0E46C9E7A36A43F02003A362E36AAA
:1040300043F00103E362CBE70021DFE7A36A23F04B
:10404000120343F01003A362E36A43F00103E36247
:10405000012070BD43F01003A362F9E7FDF7E1FF13
:10406000FE0E1FFF002373B5019390F82430044621
:10407000012B5AD0012380F82430FFF751FF054669
:10408000002832D1A36A022023F4885323F00203CC
:1040900043F00203A362264B1E6800F07FFBB6FBD1
:1040A000F0F040000190019B1BBB2046FFF79EFEF5
:1040B0002268936843F008039360FEF713FB0646FB
:1040C00023689A68120718D49A6842F004029A602A
:1040D000FEF708FB064623689B685B071FD4A36AAC
:1040E00023F0030343F00103A362002384F8243088
:1040F00012E0019B013B0193D5E7FEF7F3FA801B29
:104100000A28DDD9A36A012523F0120343F0100326
:10411000A362002384F82430284602B070BDFEF765
:10412000E1FA801B0A28D6D9ECE70225F4E700BFA4
:10413000FC010020074A0002D36800F4E06023F489
:10414000E0631B041B0C43F0BF6343F400330343E1
:10415000D360704700ED00E003682DE9F341DB0711
:10416000054610D42B689F075ED42B68190700F111
:1041700095802B685A0700F1BF80EA69002A40F059
:104180002D81002014E0904C636803F00C03042B95
:1041900007D0636803F00C03082B0CD16368DE03BF
:1041A00009D523689C03DDD56B68002BDAD101208B
:1041B00002B0BDE8F0816B68B3F5803F10D1236891
:1041C00043F480332360FEF78DFA06462368980394
:1041D000C8D4FEF787FA801B6428F7D90320E7E7E5
:1041E0009BB9236823F480332360236823F480235E
:1041F0002360FEF777FA064623689903B2D5FEF7E7
:1042000071FA801B6428F7D9E8E7B3F5A02F23687B
:1042100003D143F480232360D1E723F48033236068
:10422000236823F48023CDE7674C636813F00C0FF9
:1042300007D0636803F00C03082B10D16368DA031E
:104240000DD423689B0702D52B69012BAFD12368BE
:104250006A6923F0F80343EAC203236085E72A6909
:104260005A4B6AB101221A60FEF73CFA06462368EF
:104270009F07ECD4FEF736FA801B0228F7D9ADE78A
:104280001A60FEF72FFA0646236898077FF56DAF90
:10429000FEF728FA801B0228F6D99FE7AA694A4C44
:1042A0004B4BDAB101221A60FEF71CFA0646636A2C
:1042B0009B070DD54FF4FA52464B1B68B3FBF2F344
:1042C000019300BF019B5A1E0192002BF9D150E7C8
:1042D000FEF708FA801B0228E9D97FE71A60FEF78B
:1042E00001FA0646636A9F077FF543AFFEF7FAF9C6
:1042F000801B0228F6D971E7334CE369D80024D437
:104300000127E36943F08053E361E36903F08053DD
:104310000093009B304E3368D90518D5EB68012B0C
:1043200026D1236A43F001032362FEF7DBF941F251
:1043300088368046236A9B073FD5002F3FF41DAF88
:10434000E36923F08053E36117E70027E2E733686E
:1043500043F480733360FEF7C5F980463368DA05AD
:10436000DCD4FEF7BFF9A0EB08006428F6D935E7E6
:10437000ABB9236A41F2883823F001032362236A30
:1043800023F004032362FEF7ADF90646236A98077B
:10439000D3D5FEF7A7F9801B4045F7D91EE7052BBB
:1043A000236A03D143F004032362BAE723F0010335
:1043B0002362236A23F00403B6E7FEF793F9A0EB28
:1043C0000800B042B6D909E700100240000042429E
:1043D00080044242FC01002000700040224C6368CF
:1043E00003F00C03082B3FF4E2AE00231F4E022A19
:1043F00033602BD1FEF776F90746236899011FD465
:104400002B6AB3F5803F05D16268A96822F40032B7
:104410000A436260696A62680B4322F474121343B0
:10442000636001233360FEF75DF9054623689A0156
:104430003FF5A7AEFEF756F9401B0228F6D9CDE6A8
:10444000FEF750F9C01B0228D7D9C7E6FEF74AF994
:10445000054623689B017FF594AEFEF743F9401BA8
:104460000228F6D9BAE600BF0010024060004242BE
:1044700030B5194B87B002AC03F11005224618681D
:104480005968083303C2AB421446F7D101238DF8B3
:104490000430022311498DF805304B6803F00C02FB
:1044A000082A17D1C3F3834206A80244DB0312F89B
:1044B000102C0CD54B680A48C3F34043504306AA5E
:1044C000134413F8143CB0FBF3F007B030BD0548BB
:1044D0005043FAE70248F8E7199700080010024035
:1044E00000127A0000093D004D4A2DE9F0411368A1
:1044F000054603F007038B420E4628D32A6891072E
:1045000032D4D20738D4464A136803F007039E42D8
:1045100073D32A68434C12F0040F79D1130706D5E0
:1045200063682A6923F4605343EAC2036360FFF7B8
:104530009FFF63683C4AC3F30313D35CD8403B4BF3
:1045400018600F20FEF7C8F80020BDE8F08113685E
:1045500023F007030B431360136803F0070399422A
:10456000CCD00120BDE8F0812E49A8684B6823F02B
:10457000F00303434B60C4E76A682A4C012A2368AE
:104580001CD113F4003FECD0636841F2883823F06B
:10459000030313436360FEF7A5F86B680746012B1E
:1045A00014D1636803F00C03042BACD0FEF79AF827
:1045B000C01B4045F5D90320BDE8F081022A02D195
:1045C00013F0007FDFE713F0020FDCE7022B0FD1BF
:1045D000636803F00C03082B95D0FEF783F8C01B2B
:1045E0004045F5D9E7E7FEF77DF8C01B4045E2D826
:1045F000636813F00C0FF6D185E7136823F0070307
:1046000033431360136803F007039E42A9D180E788
:104610006368E96823F4E0630B4363607EE700BFEF
:1046200000200240001002404D970008FC010020CD
:10463000044B054A5B68C3F30223D35C034A10684A
:10464000D8407047001002405D970008FC01002030
:10465000044B054A5B68C3F3C223D35C034A10686A
:10466000D8407047001002405D970008FC01002010
:104670000F2303600B4B5A6802F0030242605A6832
:1046800002F0F00282605A6802F4E062C2605B6885
:10469000DB0803F4E0630361034B1B6803F00703CB
:1046A0000B607047001002400020024003682DE9B3
:1046B000F341D907054620D5354CE369DA0032D4F9
:1046C0000127E36943F08053E361E36903F080531A
:1046D0000193019B2F4E3368DB0526D5236A13F423
:1046E000407336D1236A6A6823F44073134323620C
:1046F0001FB1E36923F08053E3612868830706D57F
:10470000234AA968536823F440430B43536010F0D5
:1047100010001BD01E4AE9685368002023F4800370
:104720000B43536012E00027D4E7336843F48073EF
:104730003360FDF7D7FF80463368D805CED4FDF748
:10474000D1FFA0EB08006428F6D9032002B0BDE831
:10475000F0816A6802F440729342C3D001200E4A8D
:10476000236A1060002023F4407110602162D90791
:10477000B8D5FDF7B7FF41F288380646236A9A0795
:10478000B0D4FDF7AFFF801B4045F7D9DDE700BF90
:1047900000100240007000404004424270B50446E0
:1047A000364B86B002AD03F110062A4618685968E8
:1047B000083303C2B3421546F7D101238DF8043004
:1047C00002239C428DF8053049D0102C17D0012CC3
:1047D00051D140F202312A4A136A1940B1F5817F62
:1047E00046D003F44073B3F5007F2DD1536A13F024
:1047F000020F0CBF00204FF4FA4006B070BD204BF2
:104800005968186810F08070F7D0C1F3834206A889
:10481000024412F8100CCA0341BF5A6806A9C2F339
:104820004042521844BF12F8141C164A5B684CBF31
:10483000B2FBF1F2144A5B0202FB00F0DDD4032369
:104840004000B0FBF3F0D8E7B3F5407F13D1136815
:104850004FF2244013F4003F08BF0020CDE7FFF7DC
:10486000F7FE074B5B68C3F3813301335B00E8E776
:104870004FF40040C1E70020BFE700BF29970008C0
:104880000010024000127A0000093D00036A70B572
:1048900023F001030362036A446882690D6822F011
:1048A00073022A438D6823F002032B430A4DA8426A
:1048B0000BD1CD6823F008032B438E694D6924F496
:1048C0004074354323F004032C43446082614A68FA
:1048D0004263036270BD00BF002C0140036A70B5E3
:1048E00023F480730362036A4468C2690D6822F08E
:1048F00073022A438D6823F4007343EA05230B4DAA
:10490000A8420DD1CD6823F4006343EA05238E69E4
:104910004D6924F44054354323F4806344EA05147C
:104920004460C2614A68C263036270BD002C0140EA
:10493000036A30B523F480530362036A4468C26992
:104940000D6822F4E64242EA05228D6823F4005302
:1049500043EA0533064DA84202BF4D6924F4804462
:1049600044EA85144460C2614A680264036230BD4F
:10497000002C014070470223026880F83D30136824
:1049800043F001031360012380F83D30002070479D
:10499000704700001A4A036890420AD0B0F1804F75
:1049A00007D0A2F59432904203D002F58062904283
:1049B00015D14A6823F070031343114A90420AD07C
:1049C000B0F1804F07D0A2F59432904203D002F5A7
:1049D0008062904203D1CA6823F4407313434A694A
:1049E00023F08003134303608B68C3620B68836208
:1049F000034B984204BF0B69036301234361704773
:104A0000002C014010B50446A0B190F83D3003F0F1
:104A1000FF021BB980F83C20FFF7ACFF022320689F
:104A200084F83D30211DFFF7B5FF0123002084F8F5
:104A30003D3010BD012010BD10B50446A0B190F866
:104A40003D3003F0FF021BB980F83C20FFF7A0FFC8
:104A50000223206884F83D30211DFFF79BFF0123CE
:104A6000002084F83D3010BD012010BD036A70B5F0
:104A700023F010030362036A446882690D6822F41C
:104A8000E64242EA05228D6823F0200343EA05133B
:104A90000B4DA8420DD1CD6823F0800343EA0513E6
:104AA0008E694D6924F44064354323F0400344EAA1
:104AB0008504446082614A688263036270BD00BFFE
:104AC000002C014038B590F83C300446012B4FF0E3
:104AD000020025D0012384F83D0084F83C300C2AE4
:104AE00018D8DFE802F0071717171E1717172F1728
:104AF000171740002068FFF7C9FE236809699A6903
:104B000042F008029A619A6922F004029A619A6955
:104B10000A439A610123002084F83D3084F83C0068
:104B200038BD2068FFF7A2FF236809699A6942F43B
:104B300000629A619A6922F480629A619A6942EAF3
:104B40000122E6E72068FFF7C9FE23680969DA69F0
:104B500042F00802DA61DA6922F00402DA61DA6905
:104B60000A43DA61D6E72068FFF7E2FE23680969A5
:104B7000DA6942F40062DA61DA6922F48062DA61A9
:104B8000DA6942EA0122ECE710B50124036A8C409D
:104B900023EA04030362036A8A401A43026210BDD7
:104BA00010B5044600220068FFF7EEFF2368104AA4
:104BB00093420DD141F21112196A114208D140F20B
:104BC0004442196A114202BF5A6C22F400425A64EC
:104BD00041F21112196A114208D140F24442196A95
:104BE000114202BF1A6822F001021A60002010BDB3
:104BF000002C014010B5044601220068FFF7C4FFF5
:104C00002368064A0020934202BF5A6C42F40042D5
:104C10005A641A6842F001021A6010BD002C01406B
:104C2000FFF7E8BF10B50424036A8C4023EA0403AD
:104C30000362036A8A401A43026210BD10B504463B
:104C400004220068FFF7EEFF236800205A6C42F44C
:104C500000425A641A6842F001021A6010BD000056
:104C60002DE9F0470568C2682B69016923F44053B8
:104C700013432B618368EA680B43416922F4B05205
:104C800022F00C020B431343EB606B69826923F43F
:104C9000407313436B61404B81469D424FF01904B2
:104CA00046D1FFF7D5FC04FB00F3D9F804604FF0C0
:104CB0006408B600B3FBF6F3B3FBF8F31E01FFF78D
:104CC000C7FC6043D9F804309B00B0FBF3F7FFF753
:104CD000BFFC6043D9F804309B00B0FBF3F3B3FB97
:104CE000F8F308FB13731B013233B3FBF8F303F043
:104CF000F007FFF7ADFC6043D9F804209200B0FB49
:104D0000F2FAFFF7A5FC6043D9F804309B00B0FB32
:104D1000F3F3B3FBF8F308FB13A31B013233B3FB2C
:104D2000F8F303F00F033B433344AB60BDE8F08777
:104D3000FFF77EFC04FB00F3D9F804604FF0640831
:104D4000B600B3FBF6F3B3FBF8F31E01FFF770FCFC
:104D50006043D9F804309B00B0FBF3F7FFF768FC21
:104D60006043D9F804309B00B0FBF3F3B3FBF8F3D6
:104D700008FB13731B013233B3FBF8F303F0F007A6
:104D8000FFF756FC6043D9F804209200B0FBF2FA1A
:104D9000FFF74EFCB7E700BF00380140704710B581
:104DA000044640B390F8393003F0FF021BB980F895
:104DB0003820FFF7F3FF2423226884F83930D368C2
:104DC000204623F40053D360FFF74AFF23680020F6
:104DD0001A6922F490421A615A6922F02A025A6131
:104DE000DA6842F40052DA602023E06384F8393054
:104DF00084F83A3010BD012010BD7FB50F23022189
:104E000001934FF48062002301A80291039304925E
:104E10000593FFF769FBB0FA80F0400907B05DF831
:104E200004FB00000F4B1A6842F001021A60596837
:104E30000D4A0A405A601A6822F0847222F48032C5
:104E40001A601A6822F480221A605A6822F4FE025C
:104E50005A604FF41F029A604FF00062034B9A6051
:104E6000704700BF001002400000FFF800ED00E0B6
:104E7000012310B58AB00093A0B94FF48033019399
:104E8000022307934FF48033002408934FF4E01378
:104E9000684602940993FFF75FF930B9FFF7ADFF59
:104EA0000AB010BD4FF4A023E9E72046F8E703233A
:104EB00010B58AB0009301230493102305930223B5
:104EC000002407934FF460136846019408940993F3
:104ED000FFF742F918B9FFF790FF0AB010BD20465E
:104EE000FBE7000008B50120FFF7C2FF28B9FFF774
:104EF000DEFF10B9014801F0B7F908BD3997000885
:104F0000114A124B516801F00C01042901D0082903
:104F10000AD00F49196052680E49C2F30312895C26
:104F20001A68CA401A60704751685068C1F38341DB
:104F3000C00301F1020102D407484143EAE7506887
:104F40008003F9D40248F8E700100240FC01002079
:104F500000127A004D97000800093D00074B084AEF
:104F600013601A69910707D5DA68920704D56FF0C4
:104F700002021A6100F01EBF704700BF0008004027
:104F8000781400200048704768970008224B37B516
:104F9000DA69224C42F00402DA61DA69002502F093
:104FA00004020192019A1A6942F004021A611A6914
:104FB00022F004021A61FFF7A3FF194B194A23607C
:104FC0004FF6FF73E360184B20461B682561B3FB67
:104FD000F2F3013B6360A5606561A561FFF712FD17
:104FE00029462046FFF71CFE104B114A9B682046BD
:104FF000C3F8B8204FF080420E4B1A60FFF7BBFC9D
:105000002268D36823F00203D3600B4B1D600B4B67
:105010001D6003B030BD00BF0010024078140020B6
:105020000008004040420F00FC01002000ED00E0BD
:105030005D4F000800E100E0A4110020A011002055
:10504000044800210268D36823F00203D360FFF70D
:10505000E7BD00BF78140020014B586A704700BFBD
:10506000000800406FF00202044B1B6858631A618D
:10507000DA6842F00202DA60704700BF781400205C
:105080006FF00202054B1B681A615A6942F0020276
:105090005A61DA6842F00202DA6070477814002040
:1050A000034B1A68D36823F00203D360704700BF34
:1050B000781400206FF00202014B1B681A617047E0
:1050C0007814002008B500210348FFF769FDBDE80A
:1050D0000840FFF7E5BF00BF781400200346024AEE
:1050E0002030FDF701BA00BF61520008F8B505464F
:1050F000044610260F46124B1C2245F8043B0021A3
:10510000284601F01DFE3246002104F1200001F086
:1051100017FE3246002104F1300001F011FE324644
:10512000002104F1400001F00BFE39462046FFF754
:10513000D5FF2846394600F07FFB2046F8BD00BF6A
:10514000D097000810B50446074B40F8203BFDF708
:1051500099FA04F14000FBF773FD04F13000FBF70E
:105160006FFD204610BD00BFD097000810B5044663
:10517000FFF7E8FF2046FDF754FE204610BD8842A9
:1051800038B504460D460AD0FBF75AFD3CB1EB6832
:105190001BB15B68294620469847EB68E3602046D0
:1051A00038BDF0B50F46044685B000F045FFFD68F8
:1051B00004F13006203465B139463046FFF7DFFF91
:1051C000012201212046FDF717F900F04BFF05B041
:1051D000F0BD10222946684601F0B2FD694630460E
:1051E000FFF7CDFF6846FBF72BFD2A46E9E7F0B550
:1051F0000F46044685B000F01FFFFD6804F140062D
:10520000203465B139463046FFF7B9FF012202214B
:105210002046FDF7F1F800F025FF05B0F0BD1022A3
:105220002946684601F08CFD69463046FFF7A7FF26
:105230006846FBF705FD2A46E9E70000C36810B59C
:105240002BB940F23A220449044800F0D9FE1B6809
:10525000BDE81040184700BF70970008C3970008CA
:10526000012908B502D0022906D008BDC36B13B1CD
:105270003030FFF7E3FF08BDC36C002BFBD040309C
:10528000F7E77047A0F1B000FFF7FBBFA0F1B00057
:10529000FFF7F7BF00F076B8A0F1B000FFF7FABF54
:1052A00000F073B8A0F1B000FFF7FABF10B50446E4
:1052B00000F07AF8002104F1B00000F03DFE064B4A
:1052C000204603F10802226003F128028833C4F863
:1052D000B020C4F8B43010BDD897000870477047AC
:1052E00010B4446800F108010EC954B103F0010084
:1052F00002B930B15B1008B1E0588258E01810BC18
:10530000104710BC7047000000EB01138C33DA68C3
:1053100010B57AB100EB0110D0F898202AB940F20C
:105320003A220549054800F06BFE12681846BDE8B0
:105330001040104710BD00BF70970008C3970008C9
:1053400038B5054655F8403B04461B689847284643
:10535000FEF7F4F90546236820465B68984728461F
:1053600038BD38B5054655F8403B04461B6898479C
:105370002846FEF7F9F90546236820465B689847FA
:10538000284638BD4030FEF7AFBB10B50C46403064
:10539000FEF7C0FB204610BDC36810B504460BB134
:1053A0009B689847204610BD2DE9F04F0025044624
:1053B0009B46894692462C4B85B003602B4BA060E0
:1053C00029464360C560056145618561057745777C
:1053D0001022203001F0B4FC04F1400629461022CE
:1053E00004F1300001F0ACFC04F18C0829464C2299
:1053F000304601F0A5FC04F19C07294610224046E6
:1054000001F09EFC29461022384601F099FC10223A
:105410002946C4F8ACB0684601F092FC69464046A3
:10542000FFF7ADFE6846FBF70BFC102229466846E5
:1054300001F086FC69463846FFF7A1FE6846FBF797
:10544000FFFB524649463046FEF7E8F9D4F8AC1067
:105450003046FEF7BDF9304622460549FEF7E8FA28
:10546000204605B0BDE8F08F70980008E1520008B2
:10547000095300082DE9FF410646884617460546B0
:1054800056F8403B3C011B68984700F0D5FDD8F822
:105490000C308C342C44ABB1E3680BB900F01CFF2A
:1054A00041462046FFF76BFE012239463046FEF7A3
:1054B000CBFA00F0D7FD2B6828465B68984704B00C
:1054C000BDE8F081E3680BB100F028FF1022002155
:1054D000684601F035FC69462046FFF750FE6846F5
:1054E000FBF7AEFB0022E0E77FB504461A4B102223
:1054F00003600021684601F023FC00226946204633
:10550000FFF7B8FF6846FBF79BFB102200216846B7
:1055100001F016FC012269462046FFF7ABFF684602
:10552000FBF78EFB14F18C0608D004F1AC05B542F4
:1055300004D0103D2846FBF783FBF8E704F1300068
:10554000FFF72AFF04F12000FFF726FFA06900F013
:105550003BFC204604B070BD7098000810B50446AE
:10556000FFF7C2FF2046FDF75CFC204610BD70B57A
:10557000D0E90823D0E90245064612196B4100F034
:105580001BF9736B2BB106F128001B68BDE8704056
:10559000184770BDD0B5044616461F4600F04CFDB6
:1055A000204600F013F9C4E90867A06900F0E9FBA0
:1055B000321847EB0103204600F0FEF8BDE8D0406A
:1055C00000F050BDF8B504461F460D46164600F0E3
:1055D00033FD636B13B994F838306BB9294604F185
:1055E0002800FFF7CCFD32463B462046FFF7D2FFAE
:1055F000BDE8F84000F036BD00F06EFEEEE71FB5E6
:10560000044600F019FD204600F0E0F8636B13B18A
:1056100094F8383083B910220021684601F090FBDD
:10562000694604F12800FFF7AAFD6846FBF708FB6E
:1056300000F018FD04B010BD00F070FEEBE70000B4
:105640001FB5436B044600F1280113B15B6868463F
:105650009847636B20460393FFF7D1FF039B2BB959
:1056600040F23A220549064800F0CAFC1B68684629
:1056700098476846FBF7E4FA04B010BD709700083D
:10568000C397000810B5044600F0D6FC23681BB190
:10569000237F0BB100F042FE0023236000F0E2FC08
:1056A000204610BD10B5044600F0C6FC236853B96F
:1056B000237F0BB100F010FEA06900F062FB012314
:1056C000C4E902012360BDE8104000F0CBBC38B54E
:1056D000044600F0B1FC236873B1A06900F051FBEF
:1056E00004F10805D5E90045041B61EB050500F050
:1056F000B9FC2046294638BD00240025F7E770B5DF
:10570000064600F099FCD6E904453046FFF7DFFF76
:1057100024184D4100F0A6FC2046294670BD08B56E
:10572000FFF7EDFF08BD08B5FFF7E9FF4FF47A7208
:10573000002303F03DF808BD10B5044600F07CFCE2
:10574000A06900F01EFB00220023C4E90201C4E9A5
:105750000423BDE8104000F085BC002310B50022F2
:1057600003600023C0E90223C0E90423044600F0DB
:105770001DFB0123A06123772046FFF7DDFF2046B4
:1057800010BD03689B681847094B10B500220360E1
:105790000023C0E90223002303614361044600F0B3
:1057A00005FB0449A06100F069FA204610BD00BF66
:1057B000B09800088357000807B5009000F1080171
:1057C000806900F09AFA03B05DF804FB00F108016B
:1057D000806900F0BBBA000010B50446024B0360BC
:1057E000FFF7F4FF204610BDB098000870B50E46D4
:1057F00004461546FCF768FD013609D02046002115
:10580000FCF788FD29462046BDE87040FCF77EBDC8
:1058100070BD38B504460D4603685AB1826820460B
:1058200013600121FCF776FD29462046BDE838408B
:10583000FCF76CBDC268F2E70022FFF7D7BF70B576
:105840000E4604461546FCF73FFD013606D02A46B3
:105850002046BDE870400021FFF7DBBF70BD00228D
:10586000FFF7EDBF13B5044601300FD102B010BDF4
:105870009C420AD120468968FDF762FC002120463F
:1058800002B0BDE81040FDF75BBD0C31B1F900304E
:105890005A1CEDD10023224600930249024800F031
:1058A00003FD00BF0B99000830010180884207B555
:1058B00002460AD0431C08D0013105D00023054917
:1058C0000093054800F0F0FC0146084603B05DF87F
:1058D00004FB00BFDA98000830010180B1F9003004
:1058E0005A1C01D118467047834201D1486870475D
:1058F0000C31F3E7431C07B50AD0FFF7EFFF431C59
:1059000006D10023024600930349044800F0CCFC72
:1059100003B05DF804FB00BFEB9800083001018084
:10592000B1F900305A1C01D118467047834201D1A9
:10593000886870470C31F3E7431C07B50AD0FFF7BE
:10594000EFFF431C06D1002302460093034904489D
:1059500000F0AAFC03B05DF804FB00BFBC9800088F
:10596000300101802DE9F74FD0F804A004469AF8E1
:105970003A30002B46D103685B68984763681B6A1E
:1059800098423FD0DAF82030DAF80840A0EB03085C
:10599000CAF82000DAF80C30314808EA03088442DB
:1059A00046464FF0000727D0DAE90A239AF83BB0C1
:1059B000A8FB0089CDE900230025BBF1000F2BD007
:1059C0005A464046494602F02FFADDE9002312EB21
:1059D000080243EB090390465A46994606460F468D
:1059E00002F02EFAB8EB000069EB0101A94208BFF2
:1059F000A0420AD2CAE90A01DAE90C23B6185F41CB
:105A0000CAE90C6703B0BDE8F08F013647F1000723
:105A1000001B61EB0501EDE722462B464046494657
:105A200002F0C6FE224606460F46404649462B4631
:105A300002F0BEFEDDE9008918EB020849EB03091C
:105A4000A94508BFA04502D2CAE90A89D4E70136B0
:105A500047F10007B8EB040869EB0509F4E700BF5C
:105A600040420F00824206D98A420BD9884294BF35
:105A7000002001207047884206D98A428CBF00204E
:105A80000120704701207047002070472DE9F14F39
:105A90004768064697F83A30002B60D197F83930BE
:105AA000002B5CD1FFF75EFF75686B68002B59D047
:105AB000D5E90C89D3E90001894508BF804505D3A4
:105AC00033685B6901B0BDE8F04F1847B0EB0808D8
:105AD00061EB0909D5E906234B4508BF42452C690E
